{
  "abi": [
    {
      "inputs": [
        {
          "internalType": "address",
          "name": "_governor",
          "type": "address"
        },
        {
          "internalType": "address",
          "name": "_guardian",
          "type": "address"
        },
        {
          "internalType": "address",
          "name": "_policy",
          "type": "address"
        },
        {
          "internalType": "address",
          "name": "_vault",
          "type": "address"
        }
      ],
      "stateMutability": "nonpayable",
      "type": "constructor"
    },
    {
      "inputs": [],
      "name": "UNAUTHORIZED",
      "type": "error"
    },
    {
      "anonymous": false,
      "inputs": [
        {
          "indexed": false,
          "internalType": "contract IAuthority",
          "name": "authority",
          "type": "address"
        }
      ],
      "name": "AuthorityUpdated",
      "type": "event"
    },
    {
      "anonymous": false,
      "inputs": [
        {
          "indexed": true,
          "internalType": "address",
          "name": "from",
          "type": "address"
        },
        {
          "indexed": true,
          "internalType": "address",
          "name": "to",
          "type": "address"
        }
      ],
      "name": "GovernorPulled",
      "type": "event"
    },
    {
      "anonymous": false,
      "inputs": [
        {
          "indexed": true,
          "internalType": "address",
          "name": "from",
          "type": "address"
        },
        {
          "indexed": true,
          "internalType": "address",
          "name": "to",
          "type": "address"
        },
        {
          "indexed": false,
          "internalType": "bool",
          "name": "_effectiveImmediately",
          "type": "bool"
        }
      ],
      "name": "GovernorPushed",
      "type": "event"
    },
    {
      "anonymous": false,
      "inputs": [
        {
          "indexed": true,
          "internalType": "address",
          "name": "from",
          "type": "address"
        },
        {
          "indexed": true,
          "internalType": "address",
          "name": "to",
          "type": "address"
        }
      ],
      "name": "GuardianPulled",
      "type": "event"
    },
    {
      "anonymous": false,
      "inputs": [
        {
          "indexed": true,
          "internalType": "address",
          "name": "from",
          "type": "address"
        },
        {
          "indexed": true,
          "internalType": "address",
          "name": "to",
          "type": "address"
        },
        {
          "indexed": false,
          "internalType": "bool",
          "name": "_effectiveImmediately",
          "type": "bool"
        }
      ],
      "name": "GuardianPushed",
      "type": "event"
    },
    {
      "anonymous": false,
      "inputs": [
        {
          "indexed": true,
          "internalType": "address",
          "name": "from",
          "type": "address"
        },
        {
          "indexed": true,
          "internalType": "address",
          "name": "to",
          "type": "address"
        }
      ],
      "name": "PolicyPulled",
      "type": "event"
    },
    {
      "anonymous": false,
      "inputs": [
        {
          "indexed": true,
          "internalType": "address",
          "name": "from",
          "type": "address"
        },
        {
          "indexed": true,
          "internalType": "address",
          "name": "to",
          "type": "address"
        },
        {
          "indexed": false,
          "internalType": "bool",
          "name": "_effectiveImmediately",
          "type": "bool"
        }
      ],
      "name": "PolicyPushed",
      "type": "event"
    },
    {
      "anonymous": false,
      "inputs": [
        {
          "indexed": true,
          "internalType": "address",
          "name": "from",
          "type": "address"
        },
        {
          "indexed": true,
          "internalType": "address",
          "name": "to",
          "type": "address"
        }
      ],
      "name": "VaultPulled",
      "type": "event"
    },
    {
      "anonymous": false,
      "inputs": [
        {
          "indexed": true,
          "internalType": "address",
          "name": "from",
          "type": "address"
        },
        {
          "indexed": true,
          "internalType": "address",
          "name": "to",
          "type": "address"
        },
        {
          "indexed": false,
          "internalType": "bool",
          "name": "_effectiveImmediately",
          "type": "bool"
        }
      ],
      "name": "VaultPushed",
      "type": "event"
    },
    {
      "inputs": [],
      "name": "authority",
      "outputs": [
        {
          "internalType": "contract IAuthority",
          "name": "",
          "type": "address"
        }
      ],
      "stateMutability": "view",
      "type": "function"
    },
    {
      "inputs": [],
      "name": "governor",
      "outputs": [
        {
          "internalType": "address",
          "name": "",
          "type": "address"
        }
      ],
      "stateMutability": "view",
      "type": "function"
    },
    {
      "inputs": [],
      "name": "guardian",
      "outputs": [
        {
          "internalType": "address",
          "name": "",
          "type": "address"
        }
      ],
      "stateMutability": "view",
      "type": "function"
    },
    {
      "inputs": [],
      "name": "newGovernor",
      "outputs": [
        {
          "internalType": "address",
          "name": "",
          "type": "address"
        }
      ],
      "stateMutability": "view",
      "type": "function"
    },
    {
      "inputs": [],
      "name": "newGuardian",
      "outputs": [
        {
          "internalType": "address",
          "name": "",
          "type": "address"
        }
      ],
      "stateMutability": "view",
      "type": "function"
    },
    {
      "inputs": [],
      "name": "newPolicy",
      "outputs": [
        {
          "internalType": "address",
          "name": "",
          "type": "address"
        }
      ],
      "stateMutability": "view",
      "type": "function"
    },
    {
      "inputs": [],
      "name": "newVault",
      "outputs": [
        {
          "internalType": "address",
          "name": "",
          "type": "address"
        }
      ],
      "stateMutability": "view",
      "type": "function"
    },
    {
      "inputs": [],
      "name": "policy",
      "outputs": [
        {
          "internalType": "address",
          "name": "",
          "type": "address"
        }
      ],
      "stateMutability": "view",
      "type": "function"
    },
    {
      "inputs": [],
      "name": "pullGovernor",
      "outputs": [],
      "stateMutability": "nonpayable",
      "type": "function"
    },
    {
      "inputs": [],
      "name": "pullGuardian",
      "outputs": [],
      "stateMutability": "nonpayable",
      "type": "function"
    },
    {
      "inputs": [],
      "name": "pullPolicy",
      "outputs": [],
      "stateMutability": "nonpayable",
      "type": "function"
    },
    {
      "inputs": [],
      "name": "pullVault",
      "outputs": [],
      "stateMutability": "nonpayable",
      "type": "function"
    },
    {
      "inputs": [
        {
          "internalType": "address",
          "name": "_newGovernor",
          "type": "address"
        },
        {
          "internalType": "bool",
          "name": "_effectiveImmediately",
          "type": "bool"
        }
      ],
      "name": "pushGovernor",
      "outputs": [],
      "stateMutability": "nonpayable",
      "type": "function"
    },
    {
      "inputs": [
        {
          "internalType": "address",
          "name": "_newGuardian",
          "type": "address"
        },
        {
          "internalType": "bool",
          "name": "_effectiveImmediately",
          "type": "bool"
        }
      ],
      "name": "pushGuardian",
      "outputs": [],
      "stateMutability": "nonpayable",
      "type": "function"
    },
    {
      "inputs": [
        {
          "internalType": "address",
          "name": "_newPolicy",
          "type": "address"
        },
        {
          "internalType": "bool",
          "name": "_effectiveImmediately",
          "type": "bool"
        }
      ],
      "name": "pushPolicy",
      "outputs": [],
      "stateMutability": "nonpayable",
      "type": "function"
    },
    {
      "inputs": [
        {
          "internalType": "address",
          "name": "_newVault",
          "type": "address"
        },
        {
          "internalType": "bool",
          "name": "_effectiveImmediately",
          "type": "bool"
        }
      ],
      "name": "pushVault",
      "outputs": [],
      "stateMutability": "nonpayable",
      "type": "function"
    },
    {
      "inputs": [
        {
          "internalType": "contract IAuthority",
          "name": "_newAuthority",
          "type": "address"
        }
      ],
      "name": "setAuthority",
      "outputs": [],
      "stateMutability": "nonpayable",
      "type": "function"
    },
    {
      "inputs": [],
      "name": "vault",
      "outputs": [
        {
          "internalType": "address",
          "name": "",
          "type": "address"
        }
      ],
      "stateMutability": "view",
      "type": "function"
    }
  ],
  "bytecode": {
    "object": "0x608060405234801561001057600080fd5b50604051610b44380380610b4483398101604081905261002f916101f0565b600080546001600160a01b031916309081179091556040518181527f2f658b440c35314f52658ea8a740e05b284cdc84dc9ae01e891f21b8933e7cad9060200160405180910390a150600180546001600160a01b0319166001600160a01b0386169081178255604051918252906000907f4f337dcbb2512f18373c1f72d990a2f0a6ee5024b04007c52afd01eb73374a899060200160405180910390a3600280546001600160a01b0319166001600160a01b038516908117909155604051600181526000907fde655975891e8f09671597b37bd4d663bcc5c21dc6d7641b33cdf85fbe15d08b9060200160405180910390a3600380546001600160a01b0319166001600160a01b038416908117909155604051600181526000907f90a5902a45c24aae553d5aff384ca16d6560f08d74c9784a4fbd2796d9e13f2b9060200160405180910390a3600480546001600160a01b0319166001600160a01b038316908117909155604051600181526000907f05a80f5053574d6a62733e1692e8cbcfaf927dc82df0a7267ea2e489a7cc18ff9060200160405180910390a350505050610244565b80516001600160a01b03811681146101eb57600080fd5b919050565b6000806000806080858703121561020657600080fd5b61020f856101d4565b935061021d602086016101d4565b925061022b604086016101d4565b9150610239606086016101d4565b905092959194509250565b6108f1806102536000396000f3fe608060405234801561001057600080fd5b50600436106101165760003560e01c80635beede08116100a25780638fd20577116100715780638fd205771461021a578063be11f1dd1461022d578063bf7e214f14610235578063d8a0421214610248578063fbfa77cf1461025057600080fd5b80635beede08146101d95780636fe72c14146101e15780637a9e5e4b146101f457806388aaf0c81461020757600080fd5b8063215e92bc116100e9578063215e92bc146101855780633bf90c281461018d578063452a9320146101a057806352759694146101b357806354e3d703146101c657600080fd5b80630505c8c91461011b5780630c340a241461014a578063198598471461015d5780631afe871414610170575b600080fd5b60035461012e906001600160a01b031681565b6040516001600160a01b03909116815260200160405180910390f35b60015461012e906001600160a01b031681565b60065461012e906001600160a01b031681565b61018361017e36600461083c565b610263565b005b6101836102ed565b60075461012e906001600160a01b031681565b60025461012e906001600160a01b031681565b6101836101c136600461083c565b61039b565b6101836101d436600461083c565b61041d565b61018361049f565b6101836101ef36600461083c565b610549565b61018361020236600461087a565b6105cb565b60085461012e906001600160a01b031681565b60055461012e906001600160a01b031681565b610183610627565b60005461012e906001600160a01b031681565b6101836106d0565b60045461012e906001600160a01b031681565b61026b61077c565b801561028d57600280546001600160a01b0319166001600160a01b0384161790555b600680546001600160a01b0319166001600160a01b038481169182179092556002546040518415158152919216907fde655975891e8f09671597b37bd4d663bcc5c21dc6d7641b33cdf85fbe15d08b906020015b60405180910390a35050565b6008546001600160a01b031633146103385760405162461bcd60e51b8152602060048201526009602482015268085b995dd5985d5b1d60ba1b60448201526064015b60405180910390fd5b6008546004546040516001600160a01b0392831692909116907f3d08e01e3b8340be6ca709db7a9321448661a1f490da4d7f3eb03d84fe73095390600090a3600854600480546001600160a01b0319166001600160a01b03909216919091179055565b6103a361077c565b80156103c557600180546001600160a01b0319166001600160a01b0384161790555b600580546001600160a01b0319166001600160a01b038481169182179092556001546040518415158152919216907f4f337dcbb2512f18373c1f72d990a2f0a6ee5024b04007c52afd01eb73374a89906020016102e1565b61042561077c565b801561044757600380546001600160a01b0319166001600160a01b0384161790555b600780546001600160a01b0319166001600160a01b038481169182179092556003546040518415158152919216907f90a5902a45c24aae553d5aff384ca16d6560f08d74c9784a4fbd2796d9e13f2b906020016102e1565b6007546001600160a01b031633146104e65760405162461bcd60e51b815260206004820152600a602482015269216e6577506f6c69637960b01b604482015260640161032f565b6007546003546040516001600160a01b0392831692909116907f64d2fa522b403ca222efff0c7ad07d2ef45472a45e5770918bdfa9a2845d29a890600090a3600754600380546001600160a01b0319166001600160a01b03909216919091179055565b61055161077c565b801561057357600480546001600160a01b0319166001600160a01b0384161790555b600880546001600160a01b0319166001600160a01b038481169182179092556004546040518415158152919216907f05a80f5053574d6a62733e1692e8cbcfaf927dc82df0a7267ea2e489a7cc18ff906020016102e1565b6105d361077c565b600080546001600160a01b0319166001600160a01b0383169081179091556040519081527f2f658b440c35314f52658ea8a740e05b284cdc84dc9ae01e891f21b8933e7cad9060200160405180910390a150565b6006546001600160a01b0316331461066d5760405162461bcd60e51b8152602060048201526009602482015268085b995dd1dd585c9960ba1b604482015260640161032f565b6006546002546040516001600160a01b0392831692909116907f0960fb9900fb8096216606c4f7fc2fce5d08cc0c82da55cec8619b66b523848190600090a3600654600280546001600160a01b0319166001600160a01b03909216919091179055565b6005546001600160a01b031633146107195760405162461bcd60e51b815260206004820152600c60248201526b10b732bba3b7bb32b93737b960a11b604482015260640161032f565b6005546001546040516001600160a01b0392831692909116907fffd6fed33fe8ec1016718bdd5d04ae6fecd9aba0da6578807daaaa7fc3d1682690600090a3600554600180546001600160a01b0319166001600160a01b03909216919091179055565b60008054906101000a90046001600160a01b03166001600160a01b0316630c340a246040518163ffffffff1660e01b8152600401602060405180830381865afa1580156107cd573d6000803e3d6000fd5b505050506040513d601f19601f820116820180604052508101906107f1919061089e565b6001600160a01b0316336001600160a01b0316146108225760405163075fd2b160e01b815260040160405180910390fd5b565b6001600160a01b038116811461083957600080fd5b50565b6000806040838503121561084f57600080fd5b823561085a81610824565b91506020830135801515811461086f57600080fd5b809150509250929050565b60006020828403121561088c57600080fd5b813561089781610824565b9392505050565b6000602082840312156108b057600080fd5b81516108978161082456fea2646970667358221220c2a789614dc193f5377fde9f04d9e2947da074e040ca6461000bb923465150de64736f6c63430008100033",
    "linkReferences": {}
  },
  "methodIdentifiers": {
    "authority()": "bf7e214f",
    "governor()": "0c340a24",
    "guardian()": "452a9320",
    "newGovernor()": "8fd20577",
    "newGuardian()": "19859847",
    "newPolicy()": "3bf90c28",
    "newVault()": "88aaf0c8",
    "policy()": "0505c8c9",
    "pullGovernor()": "d8a04212",
    "pullGuardian()": "be11f1dd",
    "pullPolicy()": "5beede08",
    "pullVault()": "215e92bc",
    "pushGovernor(address,bool)": "52759694",
    "pushGuardian(address,bool)": "1afe8714",
    "pushPolicy(address,bool)": "54e3d703",
    "pushVault(address,bool)": "6fe72c14",
    "setAuthority(address)": "7a9e5e4b",
    "vault()": "fbfa77cf"
  },
  "id": 0
}