{
  "abi": [
    {
      "inputs": [
        {
          "internalType": "address",
          "name": "_authority",
          "type": "address"
        }
      ],
      "stateMutability": "nonpayable",
      "type": "constructor"
    },
    {
      "inputs": [],
      "name": "UNAUTHORIZED",
      "type": "error"
    },
    {
      "anonymous": false,
      "inputs": [
        {
          "indexed": false,
          "internalType": "contract IAuthority",
          "name": "authority",
          "type": "address"
        }
      ],
      "name": "AuthorityUpdated",
      "type": "event"
    },
    {
      "anonymous": false,
      "inputs": [
        {
          "indexed": true,
          "internalType": "address",
          "name": "token",
          "type": "address"
        },
        {
          "indexed": false,
          "internalType": "uint256",
          "name": "amount",
          "type": "uint256"
        }
      ],
      "name": "DepositERC20",
      "type": "event"
    },
    {
      "anonymous": false,
      "inputs": [
        {
          "indexed": true,
          "internalType": "address",
          "name": "token",
          "type": "address"
        },
        {
          "indexed": false,
          "internalType": "uint256",
          "name": "amount",
          "type": "uint256"
        }
      ],
      "name": "WithdrawERC20",
      "type": "event"
    },
    {
      "inputs": [],
      "name": "authority",
      "outputs": [
        {
          "internalType": "contract IAuthority",
          "name": "",
          "type": "address"
        }
      ],
      "stateMutability": "view",
      "type": "function"
    },
    {
      "inputs": [
        {
          "internalType": "uint256",
          "name": "_amount",
          "type": "uint256"
        },
        {
          "internalType": "address",
          "name": "_token",
          "type": "address"
        },
        {
          "internalType": "address",
          "name": "_sender",
          "type": "address"
        }
      ],
      "name": "deposit",
      "outputs": [],
      "stateMutability": "nonpayable",
      "type": "function"
    },
    {
      "inputs": [
        {
          "internalType": "address",
          "name": "",
          "type": "address"
        },
        {
          "internalType": "uint256",
          "name": "",
          "type": "uint256"
        }
      ],
      "name": "erc1155Treasury",
      "outputs": [
        {
          "internalType": "uint256",
          "name": "",
          "type": "uint256"
        }
      ],
      "stateMutability": "view",
      "type": "function"
    },
    {
      "inputs": [
        {
          "internalType": "address",
          "name": "",
          "type": "address"
        }
      ],
      "name": "erc20Treasury",
      "outputs": [
        {
          "internalType": "uint256",
          "name": "",
          "type": "uint256"
        }
      ],
      "stateMutability": "view",
      "type": "function"
    },
    {
      "inputs": [],
      "name": "fee",
      "outputs": [
        {
          "internalType": "uint256",
          "name": "",
          "type": "uint256"
        }
      ],
      "stateMutability": "view",
      "type": "function"
    },
    {
      "inputs": [],
      "name": "feeDivisor",
      "outputs": [
        {
          "internalType": "uint256",
          "name": "",
          "type": "uint256"
        }
      ],
      "stateMutability": "view",
      "type": "function"
    },
    {
      "inputs": [
        {
          "internalType": "address",
          "name": "_token",
          "type": "address"
        }
      ],
      "name": "getTokenBalance",
      "outputs": [
        {
          "internalType": "uint256",
          "name": "",
          "type": "uint256"
        }
      ],
      "stateMutability": "view",
      "type": "function"
    },
    {
      "inputs": [
        {
          "internalType": "address",
          "name": "_token",
          "type": "address"
        }
      ],
      "name": "getTreasuryBalance",
      "outputs": [
        {
          "internalType": "uint256",
          "name": "",
          "type": "uint256"
        }
      ],
      "stateMutability": "view",
      "type": "function"
    },
    {
      "inputs": [
        {
          "internalType": "enum Treasury.STATUS",
          "name": "",
          "type": "uint8"
        },
        {
          "internalType": "address",
          "name": "",
          "type": "address"
        }
      ],
      "name": "permissions",
      "outputs": [
        {
          "internalType": "bool",
          "name": "",
          "type": "bool"
        }
      ],
      "stateMutability": "view",
      "type": "function"
    },
    {
      "inputs": [
        {
          "internalType": "contract IAuthority",
          "name": "_newAuthority",
          "type": "address"
        }
      ],
      "name": "setAuthority",
      "outputs": [],
      "stateMutability": "nonpayable",
      "type": "function"
    },
    {
      "inputs": [
        {
          "internalType": "uint256",
          "name": "_fee",
          "type": "uint256"
        }
      ],
      "name": "setFee",
      "outputs": [],
      "stateMutability": "nonpayable",
      "type": "function"
    },
    {
      "inputs": [
        {
          "internalType": "enum Treasury.STATUS",
          "name": "_status",
          "type": "uint8"
        },
        {
          "internalType": "address",
          "name": "_address",
          "type": "address"
        },
        {
          "internalType": "bool",
          "name": "_permission",
          "type": "bool"
        }
      ],
      "name": "setPermission",
      "outputs": [],
      "stateMutability": "nonpayable",
      "type": "function"
    },
    {
      "inputs": [
        {
          "internalType": "uint256",
          "name": "_amount",
          "type": "uint256"
        },
        {
          "internalType": "address",
          "name": "_token",
          "type": "address"
        }
      ],
      "name": "withdraw",
      "outputs": [],
      "stateMutability": "nonpayable",
      "type": "function"
    }
  ],
  "bytecode": {
    "object": "0x60c0604052601660809081527f54726561737572793a206e6f7420617070726f7665640000000000000000000060a0526001906200003e9082620001be565b5060408051808201909152601781527f54726561737572793a20696e76616c696420746f6b656e0000000000000000006020820152600290620000829082620001be565b50600a6004556127106005553480156200009b57600080fd5b5060405162000c8238038062000c82833981016040819052620000be916200028a565b600080546001600160a01b0319166001600160a01b03831690811790915560405190815281907f2f658b440c35314f52658ea8a740e05b284cdc84dc9ae01e891f21b8933e7cad9060200160405180910390a15050620002bc565b634e487b7160e01b600052604160045260246000fd5b600181811c908216806200014457607f821691505b6020821081036200016557634e487b7160e01b600052602260045260246000fd5b50919050565b601f821115620001b957600081815260208120601f850160051c81016020861015620001945750805b601f850160051c820191505b81811015620001b557828155600101620001a0565b5050505b505050565b81516001600160401b03811115620001da57620001da62000119565b620001f281620001eb84546200012f565b846200016b565b602080601f8311600181146200022a5760008415620002115750858301515b600019600386901b1c1916600185901b178555620001b5565b600085815260208120601f198616915b828110156200025b578886015182559484019460019091019084016200023a565b50858210156200027a5787850151600019600388901b60f8161c191681555b5050505050600190811b01905550565b6000602082840312156200029d57600080fd5b81516001600160a01b0381168114620002b557600080fd5b9392505050565b6109b680620002cc6000396000f3fe608060405234801561001057600080fd5b50600436106100ce5760003560e01c806371a330f21161008c5780639a36f932116100665780639a36f932146101ec578063bf7e214f146101f5578063cd6f483b14610220578063ddca3f431461024057600080fd5b806371a330f21461019b57806372cf7066146101ae5780637a9e5e4b146101d957600080fd5b8062f714ce146100d35780632e2d2984146100e8578063330dd345146100fb5780633aecd0e31461013e57806357baeac81461015f57806369fe0e2d14610188575b600080fd5b6100e66100e136600461069a565b610249565b005b6100e66100f63660046106ca565b610364565b610129610109366004610720565b600360209081526000928352604080842090915290825290205460ff1681565b60405190151581526020015b60405180910390f35b61015161014c36600461074c565b610430565b604051908152602001610135565b61015161016d36600461074c565b6001600160a01b031660009081526006602052604090205490565b6100e6610196366004610770565b6104a1565b6100e66101a9366004610797565b6104bc565b6101516101bc3660046107d5565b600760209081526000928352604080842090915290825290205481565b6100e66101e736600461074c565b61052a565b61015160055481565b600054610208906001600160a01b031681565b6040516001600160a01b039091168152602001610135565b61015161022e36600461074c565b60066020526000908152604090205481565b61015160045481565b3360009081527fc3a24b0501bd2c13a7e57f2db4369ec4c223447539fc0724a9d55ac4a06ebd4d602052604090205460019060ff166102a45760405162461bcd60e51b815260040161029b9190610817565b60405180910390fd5b506040516323b872dd60e01b8152306004820152336024820152604481018390526001600160a01b038216906323b872dd906064016020604051808303816000875af11580156102f8573d6000803e3d6000fd5b505050506040513d601f19601f8201168201806040525081019061031c91906108c3565b50806001600160a01b03167fbe7426aee8a34d0263892b55ce65ce81d8f4c806eb4719e59015ea49feb92d228360405161035891815260200190565b60405180910390a25050565b6040516323b872dd60e01b81526001600160a01b038281166004830152306024830152604482018590528316906323b872dd906064016020604051808303816000875af11580156103b9573d6000803e3d6000fd5b505050506040513d601f19601f820116820180604052508101906103dd91906108c3565b50816001600160a01b03167f27f44e9a3001987fb4861e2d482738bc6a12b52de72ca3a5216157b75c28f81c8460405161041991815260200190565b60405180910390a261042b8284610586565b505050565b6040516370a0823160e01b81523060048201526000906001600160a01b038316906370a0823190602401602060405180830381865afa158015610477573d6000803e3d6000fd5b505050506040513d601f19601f8201168201806040525081019061049b91906108e0565b92915050565b6104a96105da565b61271081106104b757600080fd5b600455565b6104c46105da565b80600360008560028111156104db576104db610801565b60028111156104ec576104ec610801565b8152602080820192909252604090810160009081206001600160a01b0396909616815294909152909220805460ff1916921515929092179091555050565b6105326105da565b600080546001600160a01b0319166001600160a01b0383169081179091556040519081527f2f658b440c35314f52658ea8a740e05b284cdc84dc9ae01e891f21b8933e7cad9060200160405180910390a150565b600060055460045483610599919061090f565b6105a3919061092e565b6001600160a01b0384166000908152600660205260408120805492935083929091906105d0908490610950565b9091555050505050565b60008054906101000a90046001600160a01b03166001600160a01b0316630c340a246040518163ffffffff1660e01b8152600401602060405180830381865afa15801561062b573d6000803e3d6000fd5b505050506040513d601f19601f8201168201806040525081019061064f9190610963565b6001600160a01b0316336001600160a01b0316146106805760405163075fd2b160e01b815260040160405180910390fd5b565b6001600160a01b038116811461069757600080fd5b50565b600080604083850312156106ad57600080fd5b8235915060208301356106bf81610682565b809150509250929050565b6000806000606084860312156106df57600080fd5b8335925060208401356106f181610682565b9150604084013561070181610682565b809150509250925092565b80356003811061071b57600080fd5b919050565b6000806040838503121561073357600080fd5b61073c8361070c565b915060208301356106bf81610682565b60006020828403121561075e57600080fd5b813561076981610682565b9392505050565b60006020828403121561078257600080fd5b5035919050565b801515811461069757600080fd5b6000806000606084860312156107ac57600080fd5b6107b58461070c565b925060208401356107c581610682565b9150604084013561070181610789565b600080604083850312156107e857600080fd5b82356107f381610682565b946020939093013593505050565b634e487b7160e01b600052602160045260246000fd5b600060208083526000845481600182811c91508083168061083957607f831692505b858310810361085657634e487b7160e01b85526022600452602485fd5b8786018381526020018180156108735760018114610889576108b4565b60ff198616825284151560051b820196506108b4565b60008b81526020902060005b868110156108ae57815484820152908501908901610895565b83019750505b50949998505050505050505050565b6000602082840312156108d557600080fd5b815161076981610789565b6000602082840312156108f257600080fd5b5051919050565b634e487b7160e01b600052601160045260246000fd5b6000816000190483118215151615610929576109296108f9565b500290565b60008261094b57634e487b7160e01b600052601260045260246000fd5b500490565b8082018082111561049b5761049b6108f9565b60006020828403121561097557600080fd5b81516107698161068256fea2646970667358221220cb720f88e6f94b7cd5f79f6ba3826e6da3ba2a7c55066eefb304c08cd7c73ebb64736f6c63430008100033",
    "linkReferences": {}
  },
  "methodIdentifiers": {
    "authority()": "bf7e214f",
    "deposit(uint256,address,address)": "2e2d2984",
    "erc1155Treasury(address,uint256)": "72cf7066",
    "erc20Treasury(address)": "cd6f483b",
    "fee()": "ddca3f43",
    "feeDivisor()": "9a36f932",
    "getTokenBalance(address)": "3aecd0e3",
    "getTreasuryBalance(address)": "57baeac8",
    "permissions(uint8,address)": "330dd345",
    "setAuthority(address)": "7a9e5e4b",
    "setFee(uint256)": "69fe0e2d",
    "setPermission(uint8,address,bool)": "71a330f2",
    "withdraw(uint256,address)": "00f714ce"
  },
  "id": 2
}