{
  "abi": [
    {
      "inputs": [
        {
          "internalType": "address",
          "name": "_lp_token",
          "type": "address"
        }
      ],
      "stateMutability": "nonpayable",
      "type": "constructor"
    },
    {
      "inputs": [
        {
          "internalType": "address",
          "name": "",
          "type": "address"
        }
      ],
      "name": "balanceOf",
      "outputs": [
        {
          "internalType": "uint256",
          "name": "",
          "type": "uint256"
        }
      ],
      "stateMutability": "view",
      "type": "function"
    },
    {
      "inputs": [
        {
          "internalType": "uint256",
          "name": "_value",
          "type": "uint256"
        },
        {
          "internalType": "address",
          "name": "_addr",
          "type": "address"
        },
        {
          "internalType": "bool",
          "name": "",
          "type": "bool"
        }
      ],
      "name": "deposit",
      "outputs": [],
      "stateMutability": "nonpayable",
      "type": "function"
    },
    {
      "inputs": [],
      "name": "lp_token",
      "outputs": [
        {
          "internalType": "address",
          "name": "",
          "type": "address"
        }
      ],
      "stateMutability": "view",
      "type": "function"
    },
    {
      "inputs": [],
      "name": "totalSupply",
      "outputs": [
        {
          "internalType": "uint256",
          "name": "",
          "type": "uint256"
        }
      ],
      "stateMutability": "view",
      "type": "function"
    }
  ],
  "bytecode": {
    "object": "0x608060405234801561001057600080fd5b506040516105f63803806105f683398101604081905261002f91610054565b600080546001600160a01b0319166001600160a01b0392909216919091179055610084565b60006020828403121561006657600080fd5b81516001600160a01b038116811461007d57600080fd5b9392505050565b610563806100936000396000f3fe608060405234801561001057600080fd5b506004361061004c5760003560e01c806318160ddd1461005157806370a082311461006d57806382c630661461008d57806383df6747146100b8575b600080fd5b61005a60015481565b6040519081526020015b60405180910390f35b61005a61007b36600461040a565b60026020526000908152604090205481565b6000546100a0906001600160a01b031681565b6040516001600160a01b039091168152602001610064565b6100cb6100c6366004610436565b6100cd565b005b821561012f5782600160008282546100e59190610476565b90915550506001600160a01b03821660009081526002602052604081208054859290610112908490610476565b909155505060005461012f906001600160a01b0316333086610134565b505050565b604080516001600160a01b0385811660248301528416604482015260648082018490528251808303909101815260849091019091526020810180516001600160e01b03166323b872dd60e01b17905261018e908590610194565b50505050565b60006101e9826040518060400160405280602081526020017f5361666545524332303a206c6f772d6c6576656c2063616c6c206661696c6564815250856001600160a01b031661026b9092919063ffffffff16565b80519091501561012f5780806020019051810190610207919061049d565b61012f5760405162461bcd60e51b815260206004820152602a60248201527f5361666545524332303a204552433230206f7065726174696f6e20646964206e6044820152691bdd081cdd58d8d9595960b21b60648201526084015b60405180910390fd5b606061027a8484600085610284565b90505b9392505050565b6060824710156102e55760405162461bcd60e51b815260206004820152602660248201527f416464726573733a20696e73756666696369656e742062616c616e636520666f6044820152651c8818d85b1b60d21b6064820152608401610262565b6001600160a01b0385163b61033c5760405162461bcd60e51b815260206004820152601d60248201527f416464726573733a2063616c6c20746f206e6f6e2d636f6e74726163740000006044820152606401610262565b600080866001600160a01b0316858760405161035891906104de565b60006040518083038185875af1925050503d8060008114610395576040519150601f19603f3d011682016040523d82523d6000602084013e61039a565b606091505b50915091506103aa8282866103b5565b979650505050505050565b606083156103c457508161027d565b8251156103d45782518084602001fd5b8160405162461bcd60e51b815260040161026291906104fa565b80356001600160a01b038116811461040557600080fd5b919050565b60006020828403121561041c57600080fd5b61027d826103ee565b801515811461043357600080fd5b50565b60008060006060848603121561044b57600080fd5b8335925061045b602085016103ee565b9150604084013561046b81610425565b809150509250925092565b8082018082111561049757634e487b7160e01b600052601160045260246000fd5b92915050565b6000602082840312156104af57600080fd5b815161027d81610425565b60005b838110156104d55781810151838201526020016104bd565b50506000910152565b600082516104f08184602087016104ba565b9190910192915050565b60208152600082518060208401526105198160408501602087016104ba565b601f01601f1916919091016040019291505056fea2646970667358221220f82f4551bb33102bff653066e7653310c1aded874e09606e5d765d0ea96f028e64736f6c63430008100033",
    "linkReferences": {}
  },
  "methodIdentifiers": {
    "balanceOf(address)": "70a08231",
    "deposit(uint256,address,bool)": "83df6747",
    "lp_token()": "82c63066",
    "totalSupply()": "18160ddd"
  },
  "id": 71
}