{
  "abi": [
    {
      "inputs": [
        {
          "internalType": "address",
          "name": "_lp_token",
          "type": "address"
        }
      ],
      "stateMutability": "nonpayable",
      "type": "constructor"
    },
    {
      "inputs": [
        {
          "internalType": "address",
          "name": "",
          "type": "address"
        }
      ],
      "name": "balanceOf",
      "outputs": [
        {
          "internalType": "uint256",
          "name": "",
          "type": "uint256"
        }
      ],
      "stateMutability": "view",
      "type": "function"
    },
    {
      "inputs": [
        {
          "internalType": "uint256",
          "name": "_value",
          "type": "uint256"
        },
        {
          "internalType": "address",
          "name": "_addr",
          "type": "address"
        },
        {
          "internalType": "bool",
          "name": "",
          "type": "bool"
        }
      ],
      "name": "deposit",
      "outputs": [],
      "stateMutability": "nonpayable",
      "type": "function"
    },
    {
      "inputs": [],
      "name": "lp_token",
      "outputs": [
        {
          "internalType": "address",
          "name": "",
          "type": "address"
        }
      ],
      "stateMutability": "view",
      "type": "function"
    },
    {
      "inputs": [],
      "name": "totalSupply",
      "outputs": [
        {
          "internalType": "uint256",
          "name": "",
          "type": "uint256"
        }
      ],
      "stateMutability": "view",
      "type": "function"
    }
  ],
  "bytecode": {
    "object": "0x608060405234801561001057600080fd5b5060405161060a38038061060a83398101604081905261002f91610054565b600080546001600160a01b0319166001600160a01b0392909216919091179055610084565b60006020828403121561006657600080fd5b81516001600160a01b038116811461007d57600080fd5b9392505050565b610577806100936000396000f3fe608060405234801561001057600080fd5b506004361061004c5760003560e01c806318160ddd1461005157806370a082311461006d57806382c630661461008d57806383df6747146100b8575b600080fd5b61005a60015481565b6040519081526020015b60405180910390f35b61005a61007b366004610417565b60026020526000908152604090205481565b6000546100a0906001600160a01b031681565b6040516001600160a01b039091168152602001610064565b6100cb6100c636600461044a565b6100cd565b005b821561012f5782600160008282546100e5919061048a565b90915550506001600160a01b0382166000908152600260205260408120805485929061011290849061048a565b909155505060005461012f906001600160a01b0316333086610134565b505050565b604080516001600160a01b0385811660248301528416604482015260648082018490528251808303909101815260849091019091526020810180516001600160e01b03166323b872dd60e01b17905261018e908590610194565b50505050565b60006101e9826040518060400160405280602081526020017f5361666545524332303a206c6f772d6c6576656c2063616c6c206661696c6564815250856001600160a01b031661026b9092919063ffffffff16565b80519091501561012f578080602001905181019061020791906104b1565b61012f5760405162461bcd60e51b815260206004820152602a60248201527f5361666545524332303a204552433230206f7065726174696f6e20646964206e6044820152691bdd081cdd58d8d9595960b21b60648201526084015b60405180910390fd5b606061027a8484600085610282565b949350505050565b6060824710156102e35760405162461bcd60e51b815260206004820152602660248201527f416464726573733a20696e73756666696369656e742062616c616e636520666f6044820152651c8818d85b1b60d21b6064820152608401610262565b600080866001600160a01b031685876040516102ff91906104f2565b60006040518083038185875af1925050503d806000811461033c576040519150601f19603f3d011682016040523d82523d6000602084013e610341565b606091505b50915091506103528783838761035d565b979650505050505050565b606083156103cc5782516000036103c5576001600160a01b0385163b6103c55760405162461bcd60e51b815260206004820152601d60248201527f416464726573733a2063616c6c20746f206e6f6e2d636f6e74726163740000006044820152606401610262565b508161027a565b61027a83838151156103e15781518083602001fd5b8060405162461bcd60e51b8152600401610262919061050e565b80356001600160a01b038116811461041257600080fd5b919050565b60006020828403121561042957600080fd5b610432826103fb565b9392505050565b801515811461044757600080fd5b50565b60008060006060848603121561045f57600080fd5b8335925061046f602085016103fb565b9150604084013561047f81610439565b809150509250925092565b808201808211156104ab57634e487b7160e01b600052601160045260246000fd5b92915050565b6000602082840312156104c357600080fd5b815161043281610439565b60005b838110156104e95781810151838201526020016104d1565b50506000910152565b600082516105048184602087016104ce565b9190910192915050565b602081526000825180602084015261052d8160408501602087016104ce565b601f01601f1916919091016040019291505056fea264697066735822122013daf6f688d2cb1115b30dbc8535dd0bd181fd0319514df9f3b68c242cf0934564736f6c63430008100033",
    "linkReferences": {}
  },
  "methodIdentifiers": {
    "balanceOf(address)": "70a08231",
    "deposit(uint256,address,bool)": "83df6747",
    "lp_token()": "82c63066",
    "totalSupply()": "18160ddd"
  },
  "id": 108
}