{
  "abi": [
    {
      "inputs": [
        {
          "internalType": "address",
          "name": "_authority",
          "type": "address"
        },
        {
          "internalType": "address",
          "name": "_link",
          "type": "address"
        }
      ],
      "stateMutability": "nonpayable",
      "type": "constructor"
    },
    {
      "inputs": [],
      "name": "UNAUTHORIZED",
      "type": "error"
    },
    {
      "anonymous": false,
      "inputs": [
        {
          "indexed": false,
          "internalType": "contract IAuthority",
          "name": "authority",
          "type": "address"
        }
      ],
      "name": "AuthorityUpdated",
      "type": "event"
    },
    {
      "anonymous": false,
      "inputs": [
        {
          "indexed": true,
          "internalType": "bytes32",
          "name": "id",
          "type": "bytes32"
        }
      ],
      "name": "ChainlinkCancelled",
      "type": "event"
    },
    {
      "anonymous": false,
      "inputs": [
        {
          "indexed": true,
          "internalType": "bytes32",
          "name": "id",
          "type": "bytes32"
        }
      ],
      "name": "ChainlinkFulfilled",
      "type": "event"
    },
    {
      "anonymous": false,
      "inputs": [
        {
          "indexed": true,
          "internalType": "bytes32",
          "name": "id",
          "type": "bytes32"
        }
      ],
      "name": "ChainlinkRequested",
      "type": "event"
    },
    {
      "anonymous": false,
      "inputs": [
        {
          "indexed": true,
          "internalType": "address",
          "name": "claimOwner",
          "type": "address"
        },
        {
          "indexed": false,
          "internalType": "enum Escrow.OfferStatus",
          "name": "toStatus",
          "type": "uint8"
        },
        {
          "indexed": false,
          "internalType": "uint256",
          "name": "offerId",
          "type": "uint256"
        }
      ],
      "name": "ClaimToken",
      "type": "event"
    },
    {
      "anonymous": false,
      "inputs": [
        {
          "indexed": true,
          "internalType": "address",
          "name": "executor",
          "type": "address"
        },
        {
          "indexed": false,
          "internalType": "uint256",
          "name": "offerId",
          "type": "uint256"
        }
      ],
      "name": "FinishOffer",
      "type": "event"
    },
    {
      "anonymous": false,
      "inputs": [
        {
          "indexed": true,
          "internalType": "address",
          "name": "creator",
          "type": "address"
        },
        {
          "indexed": true,
          "internalType": "address",
          "name": "executor",
          "type": "address"
        },
        {
          "indexed": false,
          "internalType": "uint256",
          "name": "offerId",
          "type": "uint256"
        }
      ],
      "name": "NewOffer",
      "type": "event"
    },
    {
      "anonymous": false,
      "inputs": [
        {
          "indexed": true,
          "internalType": "address",
          "name": "requester",
          "type": "address"
        },
        {
          "indexed": false,
          "internalType": "uint256",
          "name": "offerId",
          "type": "uint256"
        }
      ],
      "name": "OfferCancelled",
      "type": "event"
    },
    {
      "anonymous": false,
      "inputs": [
        {
          "indexed": false,
          "internalType": "uint256",
          "name": "offerId",
          "type": "uint256"
        }
      ],
      "name": "OfferFinalized",
      "type": "event"
    },
    {
      "anonymous": false,
      "inputs": [
        {
          "indexed": true,
          "internalType": "address",
          "name": "from",
          "type": "address"
        },
        {
          "indexed": true,
          "internalType": "address",
          "name": "to",
          "type": "address"
        }
      ],
      "name": "OwnershipTransferRequested",
      "type": "event"
    },
    {
      "anonymous": false,
      "inputs": [
        {
          "indexed": true,
          "internalType": "address",
          "name": "from",
          "type": "address"
        },
        {
          "indexed": true,
          "internalType": "address",
          "name": "to",
          "type": "address"
        }
      ],
      "name": "OwnershipTransferred",
      "type": "event"
    },
    {
      "anonymous": false,
      "inputs": [
        {
          "indexed": true,
          "internalType": "uint256",
          "name": "offerId",
          "type": "uint256"
        },
        {
          "indexed": true,
          "internalType": "uint256",
          "name": "blockNumber",
          "type": "uint256"
        },
        {
          "indexed": false,
          "internalType": "bytes",
          "name": "proof",
          "type": "bytes"
        }
      ],
      "name": "ProofAdded",
      "type": "event"
    },
    {
      "inputs": [],
      "name": "acceptOwnership",
      "outputs": [],
      "stateMutability": "nonpayable",
      "type": "function"
    },
    {
      "inputs": [],
      "name": "authority",
      "outputs": [
        {
          "internalType": "contract IAuthority",
          "name": "",
          "type": "address"
        }
      ],
      "stateMutability": "view",
      "type": "function"
    },
    {
      "inputs": [
        {
          "internalType": "uint256",
          "name": "offerId",
          "type": "uint256"
        }
      ],
      "name": "cancelOffer",
      "outputs": [
        {
          "internalType": "bool",
          "name": "",
          "type": "bool"
        }
      ],
      "stateMutability": "nonpayable",
      "type": "function"
    },
    {
      "inputs": [
        {
          "internalType": "bytes32",
          "name": "_requestId",
          "type": "bytes32"
        },
        {
          "internalType": "uint256",
          "name": "_payment",
          "type": "uint256"
        },
        {
          "internalType": "bytes4",
          "name": "_callbackFunctionId",
          "type": "bytes4"
        },
        {
          "internalType": "uint256",
          "name": "_expiration",
          "type": "uint256"
        }
      ],
      "name": "cancelRequest",
      "outputs": [],
      "stateMutability": "nonpayable",
      "type": "function"
    },
    {
      "inputs": [
        {
          "internalType": "bytes32",
          "name": "_requestId",
          "type": "bytes32"
        },
        {
          "internalType": "uint256",
          "name": "_param1",
          "type": "uint256"
        },
        {
          "internalType": "uint256",
          "name": "_param2",
          "type": "uint256"
        }
      ],
      "name": "fulfill",
      "outputs": [],
      "stateMutability": "nonpayable",
      "type": "function"
    },
    {
      "inputs": [],
      "name": "getChainlinkToken",
      "outputs": [
        {
          "internalType": "address",
          "name": "",
          "type": "address"
        }
      ],
      "stateMutability": "view",
      "type": "function"
    },
    {
      "inputs": [
        {
          "internalType": "uint256",
          "name": "offerId",
          "type": "uint256"
        }
      ],
      "name": "getOffer",
      "outputs": [
        {
          "internalType": "address",
          "name": "",
          "type": "address"
        },
        {
          "internalType": "address",
          "name": "",
          "type": "address"
        },
        {
          "internalType": "uint8",
          "name": "",
          "type": "uint8"
        }
      ],
      "stateMutability": "view",
      "type": "function"
    },
    {
      "inputs": [
        {
          "internalType": "uint256",
          "name": "offerId",
          "type": "uint256"
        }
      ],
      "name": "getProofBlockNumbers",
      "outputs": [
        {
          "internalType": "uint256[]",
          "name": "",
          "type": "uint256[]"
        }
      ],
      "stateMutability": "view",
      "type": "function"
    },
    {
      "inputs": [
        {
          "internalType": "address",
          "name": "u",
          "type": "address"
        }
      ],
      "name": "offerPerUser",
      "outputs": [
        {
          "internalType": "uint256[]",
          "name": "",
          "type": "uint256[]"
        }
      ],
      "stateMutability": "view",
      "type": "function"
    },
    {
      "inputs": [],
      "name": "oracleRequest",
      "outputs": [
        {
          "internalType": "bytes32",
          "name": "requestId",
          "type": "bytes32"
        }
      ],
      "stateMutability": "nonpayable",
      "type": "function"
    },
    {
      "inputs": [
        {
          "internalType": "address",
          "name": "_oracle",
          "type": "address"
        },
        {
          "internalType": "bytes32",
          "name": "_jobId",
          "type": "bytes32"
        },
        {
          "internalType": "uint256",
          "name": "_payment",
          "type": "uint256"
        },
        {
          "internalType": "string",
          "name": "_url",
          "type": "string"
        },
        {
          "internalType": "string[]",
          "name": "_params",
          "type": "string[]"
        },
        {
          "internalType": "string[]",
          "name": "_paths",
          "type": "string[]"
        }
      ],
      "name": "oracleSetUp",
      "outputs": [],
      "stateMutability": "nonpayable",
      "type": "function"
    },
    {
      "inputs": [],
      "name": "owner",
      "outputs": [
        {
          "internalType": "address",
          "name": "",
          "type": "address"
        }
      ],
      "stateMutability": "view",
      "type": "function"
    },
    {
      "inputs": [
        {
          "internalType": "uint256",
          "name": "offerId",
          "type": "uint256"
        },
        {
          "internalType": "bytes",
          "name": "_proof",
          "type": "bytes"
        }
      ],
      "name": "saveProof",
      "outputs": [],
      "stateMutability": "nonpayable",
      "type": "function"
    },
    {
      "inputs": [
        {
          "internalType": "contract IAuthority",
          "name": "_newAuthority",
          "type": "address"
        }
      ],
      "name": "setAuthority",
      "outputs": [],
      "stateMutability": "nonpayable",
      "type": "function"
    },
    {
      "inputs": [
        {
          "internalType": "uint256",
          "name": "_dailyBlocks",
          "type": "uint256"
        }
      ],
      "name": "setDailyBlocks",
      "outputs": [],
      "stateMutability": "nonpayable",
      "type": "function"
    },
    {
      "inputs": [
        {
          "internalType": "address",
          "name": "_treasury",
          "type": "address"
        }
      ],
      "name": "setTreasury",
      "outputs": [],
      "stateMutability": "nonpayable",
      "type": "function"
    },
    {
      "inputs": [
        {
          "internalType": "address",
          "name": "token",
          "type": "address"
        },
        {
          "internalType": "uint256",
          "name": "creatorAmount",
          "type": "uint256"
        },
        {
          "internalType": "address",
          "name": "executerAddress",
          "type": "address"
        },
        {
          "internalType": "uint256",
          "name": "executorAmount",
          "type": "uint256"
        },
        {
          "internalType": "uint256",
          "name": "cid",
          "type": "uint256"
        }
      ],
      "name": "startOffer",
      "outputs": [
        {
          "internalType": "uint256",
          "name": "",
          "type": "uint256"
        }
      ],
      "stateMutability": "payable",
      "type": "function"
    },
    {
      "inputs": [
        {
          "internalType": "address",
          "name": "to",
          "type": "address"
        }
      ],
      "name": "transferOwnership",
      "outputs": [],
      "stateMutability": "nonpayable",
      "type": "function"
    },
    {
      "inputs": [],
      "name": "treasury",
      "outputs": [
        {
          "internalType": "contract ITreasury",
          "name": "",
          "type": "address"
        }
      ],
      "stateMutability": "view",
      "type": "function"
    },
    {
      "inputs": [
        {
          "internalType": "address",
          "name": "tokenAddress",
          "type": "address"
        },
        {
          "internalType": "uint256",
          "name": "amount",
          "type": "uint256"
        }
      ],
      "name": "verifyOfferIntegrity",
      "outputs": [
        {
          "internalType": "bool",
          "name": "",
          "type": "bool"
        }
      ],
      "stateMutability": "pure",
      "type": "function"
    },
    {
      "inputs": [],
      "name": "withdrawLink",
      "outputs": [],
      "stateMutability": "nonpayable",
      "type": "function"
    }
  ],
  "bytecode": {
    "object": "0x608060405260016004553480156200001657600080fd5b5060405162002f5a38038062002f5a833981016040819052620000399162000385565b813380600081620000915760405162461bcd60e51b815260206004820152601860248201527f43616e6e6f7420736574206f776e657220746f207a65726f000000000000000060448201526064015b60405180910390fd5b600680546001600160a01b0319166001600160a01b0384811691909117909155811615620000c457620000c4816200021b565b5050600880546001600160a01b0319166001600160a01b0384169081179091556040519081527f2f658b440c35314f52658ea8a740e05b284cdc84dc9ae01e891f21b8933e7cad915060200160405180910390a1506001600160a01b0382166200012d57600080fd5b6001600160a01b0381166200014c5762000146620002c7565b62000168565b600280546001600160a01b0319166001600160a01b0383161790555b6000601081905560118190556012819055600a5560646019556008546040805163fbfa77cf60e01b815290516001600160a01b039092169163fbfa77cf916004808201926020929091908290030181865afa158015620001cc573d6000803e3d6000fd5b505050506040513d601f19601f82011682018060405250810190620001f29190620003bd565b600980546001600160a01b0319166001600160a01b039290921691909117905550620003e29050565b336001600160a01b03821603620002755760405162461bcd60e51b815260206004820152601760248201527f43616e6e6f74207472616e7366657220746f2073656c66000000000000000000604482015260640162000088565b600780546001600160a01b0319166001600160a01b03838116918217909255600654604051919216907fed8889f560326eb138920d842192f0eb3dd22b4f139c87a2c57538e05bae127890600090a350565b6200036673c89bd4e1632d3a43cb03aaad5262cbe4038bc5716001600160a01b03166338cc48316040518163ffffffff1660e01b8152600401602060405180830381865afa1580156200031e573d6000803e3d6000fd5b505050506040513d601f19601f82011682018060405250810190620003449190620003bd565b600280546001600160a01b0319166001600160a01b0392909216919091179055565b565b80516001600160a01b03811681146200038057600080fd5b919050565b600080604083850312156200039957600080fd5b620003a48362000368565b9150620003b46020840162000368565b90509250929050565b600060208284031215620003d057600080fd5b620003db8262000368565b9392505050565b612b6880620003f26000396000f3fe60806040526004361061012a5760003560e01c80639446c0d9116100ab578063e987e93c1161006f578063e987e93c14610354578063ec65d0f814610367578063ef706adf14610387578063f0f44260146103a7578063f2fde38b146103c7578063fd2fe3fc146103e757600080fd5b80639446c0d9146102975780639a2bd584146102c4578063a1d12821146102e4578063bf7e214f14610304578063da870a881461032457600080fd5b806379ba5097116100f257806379ba50971461020f5780637a9e5e4b1461022457806388a997bf146102445780638da5cb5b146102645780638dc654a21461028257600080fd5b8063165d35e11461012f5780634579268a1461016157806347a77d07146101aa5780635bef630c146101cc57806361d027b3146101ef575b600080fd5b34801561013b57600080fd5b50610144610407565b6040516001600160a01b0390911681526020015b60405180910390f35b34801561016d57600080fd5b5061018161017c3660046122d0565b610420565b604080516001600160a01b03948516815293909216602084015260ff1690820152606001610158565b3480156101b657600080fd5b506101ca6101c53660046122d0565b610474565b005b3480156101d857600080fd5b506101e16104e0565b604051908152602001610158565b3480156101fb57600080fd5b50600954610144906001600160a01b031681565b34801561021b57600080fd5b506101ca610738565b34801561023057600080fd5b506101ca61023f3660046122fe565b6107e6565b34801561025057600080fd5b506101ca61025f36600461231b565b610843565b34801561027057600080fd5b506006546001600160a01b0316610144565b34801561028e57600080fd5b506101ca610920565b3480156102a357600080fd5b506102b76102b23660046122d0565b610a64565b6040516101589190612347565b3480156102d057600080fd5b506102b76102df3660046122fe565b610ac6565b3480156102f057600080fd5b506101ca6102ff3660046124da565b610b30565b34801561031057600080fd5b50600854610144906001600160a01b031681565b34801561033057600080fd5b5061034461033f366004612586565b610b9a565b6040519015158152602001610158565b6101e16103623660046125b2565b610c56565b34801561037357600080fd5b506101ca610382366004612604565b610f8c565b34801561039357600080fd5b506103446103a23660046122d0565b610fa6565b3480156103b357600080fd5b506101ca6103c23660046122fe565b6110fb565b3480156103d357600080fd5b506101ca6103e23660046122fe565b611185565b3480156103f357600080fd5b506101ca610402366004612650565b611196565b600061041b6002546001600160a01b031690565b905090565b6000818152600c6020526040812060018101546005820154600a8301548493849390926001600160a01b039182169291169060ff166004811115610466576104666126aa565b935093509350509193909250565b61047c6114f0565b600081116104db5760405162461bcd60e51b815260206004820152602160248201527f4552524f523a204441494c595f424c4f434b535f4d5553545f504f53495449566044820152604560f81b60648201526084015b60405180910390fd5b601955565b60006104ea6114f0565b6013546014546015546016805461041b946001600160a01b031693929190610511906126c0565b80601f016020809104026020016040519081016040528092919081815260200182805461053d906126c0565b801561058a5780601f1061055f5761010080835404028352916020019161058a565b820191906000526020600020905b81548152906001019060200180831161056d57829003601f168201915b50505050506017805480602002602001604051908101604052809291908181526020016000905b8282101561065d5783829060005260206000200180546105d0906126c0565b80601f01602080910402602001604051908101604052809291908181526020018280546105fc906126c0565b80156106495780601f1061061e57610100808354040283529160200191610649565b820191906000526020600020905b81548152906001019060200180831161062c57829003601f168201915b5050505050815260200190600101906105b1565b505050506018805480602002602001604051908101604052809291908181526020016000905b8282101561072f5783829060005260206000200180546106a2906126c0565b80601f01602080910402602001604051908101604052809291908181526020018280546106ce906126c0565b801561071b5780601f106106f05761010080835404028352916020019161071b565b820191906000526020600020905b8154815290600101906020018083116106fe57829003601f168201915b505050505081526020019060010190610683565b5050505061159a565b6007546001600160a01b0316331461078b5760405162461bcd60e51b815260206004820152601660248201527526bab9ba10313290383937b837b9b2b21037bbb732b960511b60448201526064016104d2565b600680546001600160a01b0319808216339081179093556007805490911690556040516001600160a01b03909116919082907f8be0079c531659141344cd1fd0a4f28419497f9722a3daafe3b4186f6b6457e090600090a350565b6107ee6114f0565b600880546001600160a01b0319166001600160a01b0383169081179091556040519081527f2f658b440c35314f52658ea8a740e05b284cdc84dc9ae01e891f21b8933e7cad906020015b60405180910390a150565b60008381526005602052604090205483906001600160a01b031633146108bc5760405162461bcd60e51b815260206004820152602860248201527f536f75726365206d75737420626520746865206f7261636c65206f6620746865604482015267081c995c5d595cdd60c21b60648201526084016104d2565b60008181526005602052604080822080546001600160a01b03191690555182917f7cc135e0cebb02c3480ae5d74d377283180a2601f8f644edf7987b009316c63a91a28282156109195761090f816116fa565b6109198184611747565b5050505050565b6109286114f0565b600061093c6002546001600160a01b031690565b6040516370a0823160e01b81523060048201529091506001600160a01b0382169063a9059cbb90339083906370a0823190602401602060405180830381865afa15801561098d573d6000803e3d6000fd5b505050506040513d601f19601f820116820180604052508101906109b191906126f4565b6040516001600160e01b031960e085901b1681526001600160a01b03909216600483015260248201526044016020604051808303816000875af11580156109fc573d6000803e3d6000fd5b505050506040513d601f19601f82011682018060405250810190610a20919061270d565b610a615760405162461bcd60e51b81526020600482015260126024820152712ab730b13632903a37903a3930b739b332b960711b60448201526064016104d2565b50565b6000818152600d6020908152604091829020805483518184028101840190945280845260609392830182828015610aba57602002820191906000526020600020905b815481526020019060010190808311610aa6575b50505050509050919050565b6001600160a01b0381166000908152600e6020908152604091829020805483518184028101840190945280845260609392830182828015610aba5760200282019190600052602060002090815481526020019060010190808311610aa65750505050509050919050565b610b386114f0565b601380546001600160a01b0319166001600160a01b038816179055601485905560158490556016610b69848261277d565b508151610b7d9060179060208501906121d8565b508051610b919060189060208401906121d8565b50505050505050565b60006001600160a01b038316610bfc5760405162461bcd60e51b815260206004820152602160248201527f4552524f523a2043524541544f525f434f4e54524143545f4e4f545f56414c496044820152601160fa1b60648201526084016104d2565b60008211610c4c5760405162461bcd60e51b815260206004820152601b60248201527f4552524f523a20414d4f554e545f4d5553545f504f534954495645000000000060448201526064016104d2565b5060015b92915050565b60006001600160a01b038416610cae5760405162461bcd60e51b815260206004820152601a60248201527f45584543555445525f414444524553535f4e4f545f56414c494400000000000060448201526064016104d2565b600a8054906000610cbe83612852565b9091555050600a80546000818152600c6020526040808220600981019390935582546001600160a01b03808c166001600160a01b031992831617909455845483528183206001018054821633179055935482529020600501805491871691909216179055610d2c8686610b9a565b50610d38338787611784565b50600a80546000908152600c60205260408082206003018890559154815220600401805460ff19166001179055610d6f8684610b9a565b50610d7b848785611784565b50600a80546000908152600c6020908152604080832060070189905583548352808320600801805460ff19908116600190811790925585548552828520860180549091168217905533808552600e8452828520865481548085018355918752858720909101556001600160a01b038a811686528386208754815480860183559188528688209091015586548652600d85528386204360039091018190558754875284872080548086018255908852958720909501949094558554855282852060049081018990558654865283862090920185905594548452818420600201939093556009549051630b8b4a6160e21b8152928301899052898216602484015260448301939093529190911690632e2d298490606401600060405180830381600087803b158015610eaa57600080fd5b505af1158015610ebe573d6000803e3d6000fd5b5050600954604051630b8b4a6160e21b8152600481018790526001600160a01b038a8116602483015288811660448301529091169250632e2d29849150606401600060405180830381600087803b158015610f1857600080fd5b505af1158015610f2c573d6000803e3d6000fd5b50505050836001600160a01b0316336001600160a01b03167f3a70875340d4e51f5512fc83d1c1a2eca9e850635d587e6988614dca764fe22c600a54604051610f7791815260200190565b60405180910390a350600a5495945050505050565b610f946114f0565b610fa08484848461199a565b50505050565b6000818152600c602052604081206001600a82015460ff166004811115610fcf57610fcf6126aa565b1461101c5760405162461bcd60e51b815260206004820181905260248201527f4552524f523a204f464645525f5354415455532049534e54204352454154454460448201526064016104d2565b60058101546001600160a01b0316331480611043575060018101546001600160a01b031633145b6110a05760405162461bcd60e51b815260206004820152602860248201527f4552524f523a2045584543555445522049534e542043524541544f52204f522060448201526722ac22a1aaaa22a960c11b60648201526084016104d2565b6000838152600c6020908152604091829020600a01805460ff19166003179055905184815233917f899cab278284ae4a91172caa0943607a0bcb19766254c3ebe1139be00650b102910160405180910390a250600192915050565b6111036114f0565b6001600160a01b0381166111635760405162461bcd60e51b815260206004820152602160248201527f4552524f523a2054524541535552595f414444524553535f4e4f545f56414c496044820152601160fa1b60648201526084016104d2565b600980546001600160a01b0319166001600160a01b0392909216919091179055565b61118d611a6c565b610a6181611abf565b81806000036111da5760405162461bcd60e51b815260206004820152601060248201526f125b9d985b1a59081bd999995c881a5960821b60448201526064016104d2565b6000818152600c60209081526040808320815160e08101835281546001600160a01b03908116825260018301541681850152825160608101845260028301805482526003808501549683019690965260048401549295939486810194929391929084019160ff1690811115611251576112516126aa565b6003811115611262576112626126aa565b905250815260058201546001600160a01b031660208083019190915260408051606081018252600685018054825260078601549382019390935260088501549382019390929183019060ff1660038111156112bf576112bf6126aa565b60038111156112d0576112d06126aa565b905250815260098201546020820152600a82015460409091019060ff1660048111156112fe576112fe6126aa565b600481111561130f5761130f6126aa565b90525060608101519091506001600160a01b0316331461137f5760405162461bcd60e51b815260206004820152602560248201527f4f6e6c79206578656375746f722063616e20706572666f726d2074686973206160448201526431ba34b7b760d91b60648201526084016104d2565b600083511161138d57600080fd5b60016000858152600c60205260409020600a015460ff1660048111156113b5576113b56126aa565b146114025760405162461bcd60e51b815260206004820152601760248201527f4552524f523a204f464645525f4e4f545f41435449564500000000000000000060448201526064016104d2565b6000848152600d6020526040812060018101548154909291908390811061142b5761142b61286b565b9060005260206000200154436114419190612881565b90506019548161145191906128aa565b6000878152600d6020526040812060020180549091906114729084906128be565b90915550506000868152600d60209081526040822080546001818101835582855292842043910155888352018054916114aa83612852565b919050555043867f051918d66aae6ebee41c03f933b870b307a4bd8590c41c4de88877c3a5184296876040516114e09190612921565b60405180910390a3505050505050565b600860009054906101000a90046001600160a01b03166001600160a01b0316630c340a246040518163ffffffff1660e01b8152600401602060405180830381865afa158015611543573d6000803e3d6000fd5b505050506040513d601f19601f820116820180604052508101906115679190612934565b6001600160a01b0316336001600160a01b0316146115985760405163075fd2b160e01b815260040160405180910390fd5b565b60006115a46114f0565b60006115b887306388a997bf60e01b611b69565b905061162160405180604001604052806006815260200165706172616d3160d01b81525086866000815181106115f0576115f061286b565b6020026020010151604051602001611609929190612951565b60408051601f19818403018152919052839190611b8e565b611657604051806040016040528060068152602001653830b930b69960d11b81525086866001815181106115f0576115f061286b565b6116a96040518060400160405280600b81526020016a706174685f706172616d3160a81b815250846000815181106116915761169161286b565b602002602001015183611b8e9092919063ffffffff16565b6116e36040518060400160405280600b81526020016a3830ba342fb830b930b69960a91b815250846001815181106116915761169161286b565b6116ee888288611bb1565b98975050505050505050565b6000818152600c6020908152604091829020600a01805460ff1916600217905590518281527f6565e2771bb9e128c0ef6023116fa26c6bc135907e695edd5ef57d7d74b6ea6b9101610838565b6000828152600d602052604090206001015461176390826128aa565b61176e906064612980565b6000928352600f60205260409092209190915550565b6040516370a0823160e01b81526001600160a01b038481166004830152600091908416906370a0823190602401602060405180830381865afa1580156117ce573d6000803e3d6000fd5b505050506040513d601f19601f820116820180604052508101906117f291906126f4565b82111561184b5760405162461bcd60e51b815260206004820152602160248201527f4552524f523a204552525f4e4f545f454e4f5547485f46554e44535f455243326044820152600360fc1b60648201526084016104d2565b826001600160a01b031663dd62ed3e85600860009054906101000a90046001600160a01b03166001600160a01b031663fbfa77cf6040518163ffffffff1660e01b8152600401602060405180830381865afa1580156118ae573d6000803e3d6000fd5b505050506040513d601f19601f820116820180604052508101906118d29190612934565b6040516001600160e01b031960e085901b1681526001600160a01b03928316600482015291166024820152604401602060405180830381865afa15801561191d573d6000803e3d6000fd5b505050506040513d601f19601f8201168201806040525081019061194191906126f4565b8211156119905760405162461bcd60e51b815260206004820181905260248201527f4552524f523a204552525f4e4f545f414c4c4f575f5350454e445f46554e445360448201526064016104d2565b5060019392505050565b60008481526005602052604080822080546001600160a01b0319811690915590516001600160a01b039091169186917fe1fe3afa0f7f761ff0a8b89086790efd5140d2907ebd5b7ff6bfcb5e075fd4c59190a2604051636ee4d55360e01b815260048101869052602481018590526001600160e01b031984166044820152606481018390526001600160a01b03821690636ee4d55390608401600060405180830381600087803b158015611a4d57600080fd5b505af1158015611a61573d6000803e3d6000fd5b505050505050505050565b6006546001600160a01b031633146115985760405162461bcd60e51b815260206004820152601660248201527527b7363c9031b0b63630b1363290313c9037bbb732b960511b60448201526064016104d2565b336001600160a01b03821603611b175760405162461bcd60e51b815260206004820152601760248201527f43616e6e6f74207472616e7366657220746f2073656c6600000000000000000060448201526064016104d2565b600780546001600160a01b0319166001600160a01b03838116918217909255600654604051919216907fed8889f560326eb138920d842192f0eb3dd22b4f139c87a2c57538e05bae127890600090a350565b611b7161222e565b611b7961222e565b611b8581868686611c44565b95945050505050565b6080830151611b9d9083611c8a565b6080830151611bac9082611c8a565b505050565b600454600090611bc28160016128be565b600455835160408086015160808701515191516000936320214ca360e11b93611bfa9386938493923092918a9160019160240161299f565b60408051601f198184030181529190526020810180516001600160e01b03166001600160e01b0319909316929092179091529050611c3a86838684611ca1565b9695505050505050565b611c4c61222e565b611c5c8560800151610100611dff565b50508284526001600160a01b03821660208501526001600160e01b031981166040850152835b949350505050565b611c978260038351611e64565b611bac8282611f6b565b6040516bffffffffffffffffffffffff193060601b1660208201526034810184905260009060540160408051808303601f1901815282825280516020918201206000818152600590925291812080546001600160a01b0319166001600160a01b038a1617905590925082917fb5e6e01e79f91267dc17b4e6314d5d4d03593d2ceee0fbb452b750bd70ea5af99190a2600254604051630200057560e51b81526001600160a01b0390911690634000aea090611d6490889087908790600401612a07565b6020604051808303816000875af1158015611d83573d6000803e3d6000fd5b505050506040513d601f19601f82011682018060405250810190611da7919061270d565b611c825760405162461bcd60e51b815260206004820152602360248201527f756e61626c6520746f207472616e73666572416e6443616c6c20746f206f7261604482015262636c6560e81b60648201526084016104d2565b604080518082019091526060815260006020820152611e1f602083612a2e565b15611e4757611e2f602083612a2e565b611e3a906020612881565b611e4490836128be565b91505b506020828101829052604080518085526000815290920101905290565b6017816001600160401b031611611e8857610fa08360e0600585901b168317611f99565b60ff816001600160401b031611611ec457611eae836018611fe0600586901b1617611f99565b50610fa0836001600160401b0383166001611fbe565b61ffff816001600160401b031611611f0157611eeb836019611fe0600586901b1617611f99565b50610fa0836001600160401b0383166002611fbe565b63ffffffff816001600160401b031611611f4057611f2a83601a611fe0600586901b1617611f99565b50610fa0836001600160401b0383166004611fbe565b611f5583601b611fe0600586901b1617611f99565b50610fa0836001600160401b0383166008611fbe565b604080518082019091526060815260006020820152611f9283846000015151848551611fe4565b9392505050565b604080518082019091526060815260006020820152611f9283846000015151846120ce565b604080518082019091526060815260006020820152611c82848560000151518585612129565b604080518082019091526060815260006020820152825182111561200757600080fd5b602085015161201683866128be565b111561204957612049856120398760200151878661203491906128be565b6121aa565b612044906002612980565b6121c1565b6000808651805187602083010193508088870111156120685787860182525b505050602084015b602084106120a857805182526120876020836128be565b91506120946020826128be565b90506120a1602085612881565b9350612070565b51815160001960208690036101000a019081169019919091161790525083949350505050565b604080518082019091526060815260006020820152836020015183106121035761210384856020015160026120449190612980565b835180516020858301018481535080850361211f576001810182525b5093949350505050565b604080518082019091526060815260006020820152602085015161214d85846128be565b1115612161576121618561203986856128be565b6000600161217184610100612b26565b61217b9190612881565b905085518386820101858319825116178152508051848701111561219f5783860181525b509495945050505050565b6000818311156121bb575081610c50565b50919050565b81516121cd8383611dff565b50610fa08382611f6b565b82805482825590600052602060002090810192821561221e579160200282015b8281111561221e578251829061220e908261277d565b50916020019190600101906121f8565b5061222a929150612269565b5090565b6040805160a0810182526000808252602080830182905282840182905260608084018390528451808601909552845283015290608082015290565b8082111561222a57600061227d8282612286565b50600101612269565b508054612292906126c0565b6000825580601f106122a2575050565b601f016020900490600052602060002090810190610a6191905b8082111561222a57600081556001016122bc565b6000602082840312156122e257600080fd5b5035919050565b6001600160a01b0381168114610a6157600080fd5b60006020828403121561231057600080fd5b8135611f92816122e9565b60008060006060848603121561233057600080fd5b505081359360208301359350604090920135919050565b6020808252825182820181905260009190848201906040850190845b8181101561237f57835183529284019291840191600101612363565b50909695505050505050565b634e487b7160e01b600052604160045260246000fd5b604051601f8201601f191681016001600160401b03811182821017156123c9576123c961238b565b604052919050565b60006001600160401b038311156123ea576123ea61238b565b6123fd601f8401601f19166020016123a1565b905082815283838301111561241157600080fd5b828260208301376000602084830101529392505050565b600082601f83011261243957600080fd5b611f92838335602085016123d1565b600082601f83011261245957600080fd5b813560206001600160401b03808311156124755761247561238b565b8260051b6124848382016123a1565b938452858101830193838101908886111561249e57600080fd5b84880192505b858310156116ee578235848111156124bc5760008081fd5b6124ca8a87838c0101612428565b83525091840191908401906124a4565b60008060008060008060c087890312156124f357600080fd5b86356124fe816122e9565b9550602087013594506040870135935060608701356001600160401b038082111561252857600080fd5b6125348a838b01612428565b9450608089013591508082111561254a57600080fd5b6125568a838b01612448565b935060a089013591508082111561256c57600080fd5b5061257989828a01612448565b9150509295509295509295565b6000806040838503121561259957600080fd5b82356125a4816122e9565b946020939093013593505050565b600080600080600060a086880312156125ca57600080fd5b85356125d5816122e9565b94506020860135935060408601356125ec816122e9565b94979396509394606081013594506080013592915050565b6000806000806080858703121561261a57600080fd5b843593506020850135925060408501356001600160e01b03198116811461264057600080fd5b9396929550929360600135925050565b6000806040838503121561266357600080fd5b8235915060208301356001600160401b0381111561268057600080fd5b8301601f8101851361269157600080fd5b6126a0858235602084016123d1565b9150509250929050565b634e487b7160e01b600052602160045260246000fd5b600181811c908216806126d457607f821691505b6020821081036121bb57634e487b7160e01b600052602260045260246000fd5b60006020828403121561270657600080fd5b5051919050565b60006020828403121561271f57600080fd5b81518015158114611f9257600080fd5b601f821115611bac57600081815260208120601f850160051c810160208610156127565750805b601f850160051c820191505b8181101561277557828155600101612762565b505050505050565b81516001600160401b038111156127965761279661238b565b6127aa816127a484546126c0565b8461272f565b602080601f8311600181146127df57600084156127c75750858301515b600019600386901b1c1916600185901b178555612775565b600085815260208120601f198616915b8281101561280e578886015182559484019460019091019084016127ef565b508582101561282c5787850151600019600388901b60f8161c191681555b5050505050600190811b01905550565b634e487b7160e01b600052601160045260246000fd5b6000600182016128645761286461283c565b5060010190565b634e487b7160e01b600052603260045260246000fd5b81810381811115610c5057610c5061283c565b634e487b7160e01b600052601260045260246000fd5b6000826128b9576128b9612894565b500490565b80820180821115610c5057610c5061283c565b60005b838110156128ec5781810151838201526020016128d4565b50506000910152565b6000815180845261290d8160208601602086016128d1565b601f01601f19169290920160200192915050565b602081526000611f9260208301846128f5565b60006020828403121561294657600080fd5b8151611f92816122e9565b600083516129638184602088016128d1565b8351908301906129778183602088016128d1565b01949350505050565b600081600019048311821515161561299a5761299a61283c565b500290565b6001600160a01b0389811682526020820189905260408201889052861660608201526001600160e01b03198516608082015260a0810184905260c0810183905261010060e082018190526000906129f8838201856128f5565b9b9a5050505050505050505050565b60018060a01b0384168152826020820152606060408201526000611b8560608301846128f5565b600082612a3d57612a3d612894565b500690565b600181815b80851115612a7d578160001904821115612a6357612a6361283c565b80851615612a7057918102915b93841c9390800290612a47565b509250929050565b600082612a9457506001610c50565b81612aa157506000610c50565b8160018114612ab75760028114612ac157612add565b6001915050610c50565b60ff841115612ad257612ad261283c565b50506001821b610c50565b5060208310610133831016604e8410600b8410161715612b00575081810a610c50565b612b0a8383612a42565b8060001904821115612b1e57612b1e61283c565b029392505050565b6000611f928383612a8556fea2646970667358221220d6e5c7f1dd0a716b2b21f10f629224004f2c160e1238fdae0a288c0729f8f9ba64736f6c63430008100033",
    "linkReferences": {}
  },
  "methodIdentifiers": {
    "acceptOwnership()": "79ba5097",
    "authority()": "bf7e214f",
    "cancelOffer(uint256)": "ef706adf",
    "cancelRequest(bytes32,uint256,bytes4,uint256)": "ec65d0f8",
    "fulfill(bytes32,uint256,uint256)": "88a997bf",
    "getChainlinkToken()": "165d35e1",
    "getOffer(uint256)": "4579268a",
    "getProofBlockNumbers(uint256)": "9446c0d9",
    "offerPerUser(address)": "9a2bd584",
    "oracleRequest()": "5bef630c",
    "oracleSetUp(address,bytes32,uint256,string,string[],string[])": "a1d12821",
    "owner()": "8da5cb5b",
    "saveProof(uint256,bytes)": "fd2fe3fc",
    "setAuthority(address)": "7a9e5e4b",
    "setDailyBlocks(uint256)": "47a77d07",
    "setTreasury(address)": "f0f44260",
    "startOffer(address,uint256,address,uint256,uint256)": "e987e93c",
    "transferOwnership(address)": "f2fde38b",
    "treasury()": "61d027b3",
    "verifyOfferIntegrity(address,uint256)": "da870a88",
    "withdrawLink()": "8dc654a2"
  },
  "id": 1
}