{
  "address": "0xCf7Ed3AccA5a467e9e704C703E8D87F634fB0Fc9",
  "abi": [
    {
      "inputs": [
        {
          "internalType": "address",
          "name": "_governor",
          "type": "address"
        },
        {
          "internalType": "address",
          "name": "_guardian",
          "type": "address"
        },
        {
          "internalType": "address",
          "name": "_policy",
          "type": "address"
        },
        {
          "internalType": "address",
          "name": "_vault",
          "type": "address"
        }
      ],
      "stateMutability": "nonpayable",
      "type": "constructor"
    },
    {
      "inputs": [],
      "name": "UNAUTHORIZED",
      "type": "error"
    },
    {
      "anonymous": false,
      "inputs": [
        {
          "indexed": false,
          "internalType": "contract IAuthority",
          "name": "authority",
          "type": "address"
        }
      ],
      "name": "AuthorityUpdated",
      "type": "event"
    },
    {
      "anonymous": false,
      "inputs": [
        {
          "indexed": true,
          "internalType": "address",
          "name": "from",
          "type": "address"
        },
        {
          "indexed": true,
          "internalType": "address",
          "name": "to",
          "type": "address"
        }
      ],
      "name": "GovernorPulled",
      "type": "event"
    },
    {
      "anonymous": false,
      "inputs": [
        {
          "indexed": true,
          "internalType": "address",
          "name": "from",
          "type": "address"
        },
        {
          "indexed": true,
          "internalType": "address",
          "name": "to",
          "type": "address"
        },
        {
          "indexed": false,
          "internalType": "bool",
          "name": "_effectiveImmediately",
          "type": "bool"
        }
      ],
      "name": "GovernorPushed",
      "type": "event"
    },
    {
      "anonymous": false,
      "inputs": [
        {
          "indexed": true,
          "internalType": "address",
          "name": "from",
          "type": "address"
        },
        {
          "indexed": true,
          "internalType": "address",
          "name": "to",
          "type": "address"
        }
      ],
      "name": "GuardianPulled",
      "type": "event"
    },
    {
      "anonymous": false,
      "inputs": [
        {
          "indexed": true,
          "internalType": "address",
          "name": "from",
          "type": "address"
        },
        {
          "indexed": true,
          "internalType": "address",
          "name": "to",
          "type": "address"
        },
        {
          "indexed": false,
          "internalType": "bool",
          "name": "_effectiveImmediately",
          "type": "bool"
        }
      ],
      "name": "GuardianPushed",
      "type": "event"
    },
    {
      "anonymous": false,
      "inputs": [
        {
          "indexed": true,
          "internalType": "address",
          "name": "from",
          "type": "address"
        },
        {
          "indexed": true,
          "internalType": "address",
          "name": "to",
          "type": "address"
        }
      ],
      "name": "PolicyPulled",
      "type": "event"
    },
    {
      "anonymous": false,
      "inputs": [
        {
          "indexed": true,
          "internalType": "address",
          "name": "from",
          "type": "address"
        },
        {
          "indexed": true,
          "internalType": "address",
          "name": "to",
          "type": "address"
        },
        {
          "indexed": false,
          "internalType": "bool",
          "name": "_effectiveImmediately",
          "type": "bool"
        }
      ],
      "name": "PolicyPushed",
      "type": "event"
    },
    {
      "anonymous": false,
      "inputs": [
        {
          "indexed": true,
          "internalType": "address",
          "name": "from",
          "type": "address"
        },
        {
          "indexed": true,
          "internalType": "address",
          "name": "to",
          "type": "address"
        }
      ],
      "name": "VaultPulled",
      "type": "event"
    },
    {
      "anonymous": false,
      "inputs": [
        {
          "indexed": true,
          "internalType": "address",
          "name": "from",
          "type": "address"
        },
        {
          "indexed": true,
          "internalType": "address",
          "name": "to",
          "type": "address"
        },
        {
          "indexed": false,
          "internalType": "bool",
          "name": "_effectiveImmediately",
          "type": "bool"
        }
      ],
      "name": "VaultPushed",
      "type": "event"
    },
    {
      "inputs": [],
      "name": "authority",
      "outputs": [
        {
          "internalType": "contract IAuthority",
          "name": "",
          "type": "address"
        }
      ],
      "stateMutability": "view",
      "type": "function"
    },
    {
      "inputs": [],
      "name": "governor",
      "outputs": [
        {
          "internalType": "address",
          "name": "",
          "type": "address"
        }
      ],
      "stateMutability": "view",
      "type": "function"
    },
    {
      "inputs": [],
      "name": "guardian",
      "outputs": [
        {
          "internalType": "address",
          "name": "",
          "type": "address"
        }
      ],
      "stateMutability": "view",
      "type": "function"
    },
    {
      "inputs": [],
      "name": "newGovernor",
      "outputs": [
        {
          "internalType": "address",
          "name": "",
          "type": "address"
        }
      ],
      "stateMutability": "view",
      "type": "function"
    },
    {
      "inputs": [],
      "name": "newGuardian",
      "outputs": [
        {
          "internalType": "address",
          "name": "",
          "type": "address"
        }
      ],
      "stateMutability": "view",
      "type": "function"
    },
    {
      "inputs": [],
      "name": "newPolicy",
      "outputs": [
        {
          "internalType": "address",
          "name": "",
          "type": "address"
        }
      ],
      "stateMutability": "view",
      "type": "function"
    },
    {
      "inputs": [],
      "name": "newVault",
      "outputs": [
        {
          "internalType": "address",
          "name": "",
          "type": "address"
        }
      ],
      "stateMutability": "view",
      "type": "function"
    },
    {
      "inputs": [],
      "name": "policy",
      "outputs": [
        {
          "internalType": "address",
          "name": "",
          "type": "address"
        }
      ],
      "stateMutability": "view",
      "type": "function"
    },
    {
      "inputs": [],
      "name": "pullGovernor",
      "outputs": [],
      "stateMutability": "nonpayable",
      "type": "function"
    },
    {
      "inputs": [],
      "name": "pullGuardian",
      "outputs": [],
      "stateMutability": "nonpayable",
      "type": "function"
    },
    {
      "inputs": [],
      "name": "pullPolicy",
      "outputs": [],
      "stateMutability": "nonpayable",
      "type": "function"
    },
    {
      "inputs": [],
      "name": "pullVault",
      "outputs": [],
      "stateMutability": "nonpayable",
      "type": "function"
    },
    {
      "inputs": [
        {
          "internalType": "address",
          "name": "_newGovernor",
          "type": "address"
        },
        {
          "internalType": "bool",
          "name": "_effectiveImmediately",
          "type": "bool"
        }
      ],
      "name": "pushGovernor",
      "outputs": [],
      "stateMutability": "nonpayable",
      "type": "function"
    },
    {
      "inputs": [
        {
          "internalType": "address",
          "name": "_newGuardian",
          "type": "address"
        },
        {
          "internalType": "bool",
          "name": "_effectiveImmediately",
          "type": "bool"
        }
      ],
      "name": "pushGuardian",
      "outputs": [],
      "stateMutability": "nonpayable",
      "type": "function"
    },
    {
      "inputs": [
        {
          "internalType": "address",
          "name": "_newPolicy",
          "type": "address"
        },
        {
          "internalType": "bool",
          "name": "_effectiveImmediately",
          "type": "bool"
        }
      ],
      "name": "pushPolicy",
      "outputs": [],
      "stateMutability": "nonpayable",
      "type": "function"
    },
    {
      "inputs": [
        {
          "internalType": "address",
          "name": "_newVault",
          "type": "address"
        },
        {
          "internalType": "bool",
          "name": "_effectiveImmediately",
          "type": "bool"
        }
      ],
      "name": "pushVault",
      "outputs": [],
      "stateMutability": "nonpayable",
      "type": "function"
    },
    {
      "inputs": [
        {
          "internalType": "contract IAuthority",
          "name": "_newAuthority",
          "type": "address"
        }
      ],
      "name": "setAuthority",
      "outputs": [],
      "stateMutability": "nonpayable",
      "type": "function"
    },
    {
      "inputs": [],
      "name": "vault",
      "outputs": [
        {
          "internalType": "address",
          "name": "",
          "type": "address"
        }
      ],
      "stateMutability": "view",
      "type": "function"
    }
  ],
  "transactionHash": "0x03335dd6eca67f90fc467b72ec50afdbd7668ea90c8158868022bef52b2031fd",
  "args": [
    "0xf39Fd6e51aad88F6F4ce6aB8827279cffFb92266",
    "0xf39Fd6e51aad88F6F4ce6aB8827279cffFb92266",
    "0xf39Fd6e51aad88F6F4ce6aB8827279cffFb92266",
    "0xf39Fd6e51aad88F6F4ce6aB8827279cffFb92266"
  ],
  "numDeployments": 1,
  "solcInputHash": "5f4f061b93a096e1a5dcc1377b772abc",
  "bytecode": "0x608060405234801561001057600080fd5b50604051610b96380380610b9683398101604081905261002f916101f0565b600080546001600160a01b031916309081179091556040518181527f2f658b440c35314f52658ea8a740e05b284cdc84dc9ae01e891f21b8933e7cad9060200160405180910390a150600180546001600160a01b0319166001600160a01b0386169081178255604051918252906000907f4f337dcbb2512f18373c1f72d990a2f0a6ee5024b04007c52afd01eb73374a899060200160405180910390a3600280546001600160a01b0319166001600160a01b038516908117909155604051600181526000907fde655975891e8f09671597b37bd4d663bcc5c21dc6d7641b33cdf85fbe15d08b9060200160405180910390a3600380546001600160a01b0319166001600160a01b038416908117909155604051600181526000907f90a5902a45c24aae553d5aff384ca16d6560f08d74c9784a4fbd2796d9e13f2b9060200160405180910390a3600480546001600160a01b0319166001600160a01b038316908117909155604051600181526000907f05a80f5053574d6a62733e1692e8cbcfaf927dc82df0a7267ea2e489a7cc18ff9060200160405180910390a350505050610244565b80516001600160a01b03811681146101eb57600080fd5b919050565b6000806000806080858703121561020657600080fd5b61020f856101d4565b935061021d602086016101d4565b925061022b604086016101d4565b9150610239606086016101d4565b905092959194509250565b610943806102536000396000f3fe608060405234801561001057600080fd5b50600436106101365760003560e01c80635beede08116100b25780638fd2057711610081578063bf7e214f11610066578063bf7e214f14610255578063d8a0421214610268578063fbfa77cf1461027057600080fd5b80638fd205771461023a578063be11f1dd1461024d57600080fd5b80635beede08146101f95780636fe72c14146102015780637a9e5e4b1461021457806388aaf0c81461022757600080fd5b8063215e92bc11610109578063452a9320116100ee578063452a9320146101c057806352759694146101d357806354e3d703146101e657600080fd5b8063215e92bc146101a55780633bf90c28146101ad57600080fd5b80630505c8c91461013b5780630c340a241461016a578063198598471461017d5780631afe871414610190575b600080fd5b60035461014e906001600160a01b031681565b6040516001600160a01b03909116815260200160405180910390f35b60015461014e906001600160a01b031681565b60065461014e906001600160a01b031681565b6101a361019e3660046108b7565b610283565b005b6101a361030d565b60075461014e906001600160a01b031681565b60025461014e906001600160a01b031681565b6101a36101e13660046108b7565b6103cf565b6101a36101f43660046108b7565b610451565b6101a36104d3565b6101a361020f3660046108b7565b610590565b6101a36102223660046108f5565b610612565b60085461014e906001600160a01b031681565b60055461014e906001600160a01b031681565b6101a361066e565b60005461014e906001600160a01b031681565b6101a361072b565b60045461014e906001600160a01b031681565b61028b6107e8565b80156102ad57600280546001600160a01b0319166001600160a01b0384161790555b600680546001600160a01b0319166001600160a01b038481169182179092556002546040518415158152919216907fde655975891e8f09671597b37bd4d663bcc5c21dc6d7641b33cdf85fbe15d08b906020015b60405180910390a35050565b6008546001600160a01b0316331461036c5760405162461bcd60e51b815260206004820152600960248201527f216e65775661756c74000000000000000000000000000000000000000000000060448201526064015b60405180910390fd5b6008546004546040516001600160a01b0392831692909116907f3d08e01e3b8340be6ca709db7a9321448661a1f490da4d7f3eb03d84fe73095390600090a3600854600480546001600160a01b0319166001600160a01b03909216919091179055565b6103d76107e8565b80156103f957600180546001600160a01b0319166001600160a01b0384161790555b600580546001600160a01b0319166001600160a01b038481169182179092556001546040518415158152919216907f4f337dcbb2512f18373c1f72d990a2f0a6ee5024b04007c52afd01eb73374a8990602001610301565b6104596107e8565b801561047b57600380546001600160a01b0319166001600160a01b0384161790555b600780546001600160a01b0319166001600160a01b038481169182179092556003546040518415158152919216907f90a5902a45c24aae553d5aff384ca16d6560f08d74c9784a4fbd2796d9e13f2b90602001610301565b6007546001600160a01b0316331461052d5760405162461bcd60e51b815260206004820152600a60248201527f216e6577506f6c696379000000000000000000000000000000000000000000006044820152606401610363565b6007546003546040516001600160a01b0392831692909116907f64d2fa522b403ca222efff0c7ad07d2ef45472a45e5770918bdfa9a2845d29a890600090a3600754600380546001600160a01b0319166001600160a01b03909216919091179055565b6105986107e8565b80156105ba57600480546001600160a01b0319166001600160a01b0384161790555b600880546001600160a01b0319166001600160a01b038481169182179092556004546040518415158152919216907f05a80f5053574d6a62733e1692e8cbcfaf927dc82df0a7267ea2e489a7cc18ff90602001610301565b61061a6107e8565b600080546001600160a01b0319166001600160a01b0383169081179091556040519081527f2f658b440c35314f52658ea8a740e05b284cdc84dc9ae01e891f21b8933e7cad9060200160405180910390a150565b6006546001600160a01b031633146106c85760405162461bcd60e51b815260206004820152600960248201527f216e6577477561726400000000000000000000000000000000000000000000006044820152606401610363565b6006546002546040516001600160a01b0392831692909116907f0960fb9900fb8096216606c4f7fc2fce5d08cc0c82da55cec8619b66b523848190600090a3600654600280546001600160a01b0319166001600160a01b03909216919091179055565b6005546001600160a01b031633146107855760405162461bcd60e51b815260206004820152600c60248201527f216e6577476f7665726e6f7200000000000000000000000000000000000000006044820152606401610363565b6005546001546040516001600160a01b0392831692909116907fffd6fed33fe8ec1016718bdd5d04ae6fecd9aba0da6578807daaaa7fc3d1682690600090a3600554600180546001600160a01b0319166001600160a01b03909216919091179055565b60008054906101000a90046001600160a01b03166001600160a01b0316630c340a246040518163ffffffff1660e01b815260040160206040518083038186803b15801561083457600080fd5b505afa158015610848573d6000803e3d6000fd5b505050506040513d601f19601f8201168201806040525081019061086c9190610919565b6001600160a01b0316336001600160a01b03161461089d5760405163075fd2b160e01b815260040160405180910390fd5b565b6001600160a01b03811681146108b457600080fd5b50565b600080604083850312156108ca57600080fd5b82356108d58161089f565b9150602083013580151581146108ea57600080fd5b809150509250929050565b60006020828403121561090757600080fd5b81356109128161089f565b9392505050565b60006020828403121561092b57600080fd5b81516109128161089f56fea164736f6c6343000809000a",
  "devdoc": {
    "kind": "dev",
    "methods": {},
    "version": 1
  },
  "userdoc": {
    "kind": "user",
    "methods": {},
    "version": 1
  },
  "storageLayout": {
    "storage": [
      {
        "astId": 8464,
        "contract": "contracts/Authority.sol:Authority",
        "label": "authority",
        "offset": 0,
        "slot": "0",
        "type": "t_contract(IAuthority)8321"
      },
      {
        "astId": 6115,
        "contract": "contracts/Authority.sol:Authority",
        "label": "governor",
        "offset": 0,
        "slot": "1",
        "type": "t_address"
      },
      {
        "astId": 6118,
        "contract": "contracts/Authority.sol:Authority",
        "label": "guardian",
        "offset": 0,
        "slot": "2",
        "type": "t_address"
      },
      {
        "astId": 6121,
        "contract": "contracts/Authority.sol:Authority",
        "label": "policy",
        "offset": 0,
        "slot": "3",
        "type": "t_address"
      },
      {
        "astId": 6124,
        "contract": "contracts/Authority.sol:Authority",
        "label": "vault",
        "offset": 0,
        "slot": "4",
        "type": "t_address"
      },
      {
        "astId": 6126,
        "contract": "contracts/Authority.sol:Authority",
        "label": "newGovernor",
        "offset": 0,
        "slot": "5",
        "type": "t_address"
      },
      {
        "astId": 6128,
        "contract": "contracts/Authority.sol:Authority",
        "label": "newGuardian",
        "offset": 0,
        "slot": "6",
        "type": "t_address"
      },
      {
        "astId": 6130,
        "contract": "contracts/Authority.sol:Authority",
        "label": "newPolicy",
        "offset": 0,
        "slot": "7",
        "type": "t_address"
      },
      {
        "astId": 6132,
        "contract": "contracts/Authority.sol:Authority",
        "label": "newVault",
        "offset": 0,
        "slot": "8",
        "type": "t_address"
      }
    ],
    "types": {
      "t_address": {
        "encoding": "inplace",
        "label": "address",
        "numberOfBytes": "20"
      },
      "t_contract(IAuthority)8321": {
        "encoding": "inplace",
        "label": "contract IAuthority",
        "numberOfBytes": "20"
      }
    }
  }
}