{
  "address": "0x5FC8d32690cc91D4c39d9d3abcBD16989F875707",
  "abi": [
    {
      "inputs": [
        {
          "internalType": "address",
          "name": "_authority",
          "type": "address"
        }
      ],
      "stateMutability": "nonpayable",
      "type": "constructor"
    },
    {
      "inputs": [],
      "name": "UNAUTHORIZED",
      "type": "error"
    },
    {
      "anonymous": false,
      "inputs": [
        {
          "indexed": false,
          "internalType": "contract IAuthority",
          "name": "authority",
          "type": "address"
        }
      ],
      "name": "AuthorityUpdated",
      "type": "event"
    },
    {
      "anonymous": false,
      "inputs": [
        {
          "indexed": true,
          "internalType": "address",
          "name": "claimOwner",
          "type": "address"
        },
        {
          "indexed": false,
          "internalType": "enum Escrow.OfferStatus",
          "name": "toStatus",
          "type": "uint8"
        },
        {
          "indexed": false,
          "internalType": "uint256",
          "name": "offerId",
          "type": "uint256"
        }
      ],
      "name": "ClaimToken",
      "type": "event"
    },
    {
      "anonymous": false,
      "inputs": [
        {
          "indexed": true,
          "internalType": "address",
          "name": "executor",
          "type": "address"
        },
        {
          "indexed": false,
          "internalType": "uint256",
          "name": "offerId",
          "type": "uint256"
        }
      ],
      "name": "FinishOffer",
      "type": "event"
    },
    {
      "anonymous": false,
      "inputs": [
        {
          "indexed": true,
          "internalType": "address",
          "name": "creator",
          "type": "address"
        },
        {
          "indexed": true,
          "internalType": "address",
          "name": "executor",
          "type": "address"
        },
        {
          "indexed": false,
          "internalType": "uint256",
          "name": "offerId",
          "type": "uint256"
        }
      ],
      "name": "NewOffer",
      "type": "event"
    },
    {
      "anonymous": false,
      "inputs": [
        {
          "indexed": true,
          "internalType": "address",
          "name": "requester",
          "type": "address"
        },
        {
          "indexed": false,
          "internalType": "uint256",
          "name": "offerId",
          "type": "uint256"
        }
      ],
      "name": "OfferCancelled",
      "type": "event"
    },
    {
      "inputs": [],
      "name": "authority",
      "outputs": [
        {
          "internalType": "contract IAuthority",
          "name": "",
          "type": "address"
        }
      ],
      "stateMutability": "view",
      "type": "function"
    },
    {
      "inputs": [
        {
          "internalType": "uint256",
          "name": "offerId",
          "type": "uint256"
        }
      ],
      "name": "cancelOffer",
      "outputs": [
        {
          "internalType": "bool",
          "name": "",
          "type": "bool"
        }
      ],
      "stateMutability": "nonpayable",
      "type": "function"
    },
    {
      "inputs": [
        {
          "internalType": "uint256",
          "name": "offerId",
          "type": "uint256"
        }
      ],
      "name": "getOffer",
      "outputs": [
        {
          "internalType": "address",
          "name": "",
          "type": "address"
        },
        {
          "internalType": "address",
          "name": "",
          "type": "address"
        },
        {
          "internalType": "uint8",
          "name": "",
          "type": "uint8"
        },
        {
          "internalType": "string",
          "name": "",
          "type": "string"
        }
      ],
      "stateMutability": "view",
      "type": "function"
    },
    {
      "inputs": [
        {
          "internalType": "uint256",
          "name": "offerId",
          "type": "uint256"
        },
        {
          "internalType": "address",
          "name": "userWallet",
          "type": "address"
        }
      ],
      "name": "getOffer",
      "outputs": [
        {
          "internalType": "address[]",
          "name": "",
          "type": "address[]"
        },
        {
          "internalType": "bytes32[]",
          "name": "",
          "type": "bytes32[]"
        },
        {
          "internalType": "uint8[]",
          "name": "",
          "type": "uint8[]"
        }
      ],
      "stateMutability": "view",
      "type": "function"
    },
    {
      "inputs": [
        {
          "internalType": "address",
          "name": "u",
          "type": "address"
        }
      ],
      "name": "offerPerUser",
      "outputs": [
        {
          "internalType": "uint256[]",
          "name": "",
          "type": "uint256[]"
        }
      ],
      "stateMutability": "view",
      "type": "function"
    },
    {
      "inputs": [
        {
          "internalType": "address",
          "name": "",
          "type": "address"
        },
        {
          "internalType": "address",
          "name": "",
          "type": "address"
        },
        {
          "internalType": "uint256[]",
          "name": "",
          "type": "uint256[]"
        },
        {
          "internalType": "uint256[]",
          "name": "",
          "type": "uint256[]"
        },
        {
          "internalType": "bytes",
          "name": "",
          "type": "bytes"
        }
      ],
      "name": "onERC1155BatchReceived",
      "outputs": [
        {
          "internalType": "bytes4",
          "name": "",
          "type": "bytes4"
        }
      ],
      "stateMutability": "nonpayable",
      "type": "function"
    },
    {
      "inputs": [
        {
          "internalType": "address",
          "name": "",
          "type": "address"
        },
        {
          "internalType": "address",
          "name": "",
          "type": "address"
        },
        {
          "internalType": "uint256",
          "name": "",
          "type": "uint256"
        },
        {
          "internalType": "uint256",
          "name": "",
          "type": "uint256"
        },
        {
          "internalType": "bytes",
          "name": "",
          "type": "bytes"
        }
      ],
      "name": "onERC1155Received",
      "outputs": [
        {
          "internalType": "bytes4",
          "name": "",
          "type": "bytes4"
        }
      ],
      "stateMutability": "nonpayable",
      "type": "function"
    },
    {
      "inputs": [
        {
          "internalType": "address",
          "name": "",
          "type": "address"
        },
        {
          "internalType": "address",
          "name": "",
          "type": "address"
        },
        {
          "internalType": "uint256",
          "name": "",
          "type": "uint256"
        },
        {
          "internalType": "bytes",
          "name": "",
          "type": "bytes"
        }
      ],
      "name": "onERC721Received",
      "outputs": [
        {
          "internalType": "bytes4",
          "name": "",
          "type": "bytes4"
        }
      ],
      "stateMutability": "nonpayable",
      "type": "function"
    },
    {
      "inputs": [
        {
          "internalType": "contract IAuthority",
          "name": "_newAuthority",
          "type": "address"
        }
      ],
      "name": "setAuthority",
      "outputs": [],
      "stateMutability": "nonpayable",
      "type": "function"
    },
    {
      "inputs": [
        {
          "internalType": "address",
          "name": "_treasury",
          "type": "address"
        }
      ],
      "name": "setTreasury",
      "outputs": [],
      "stateMutability": "nonpayable",
      "type": "function"
    },
    {
      "inputs": [
        {
          "internalType": "address[]",
          "name": "creatorTokenAddress",
          "type": "address[]"
        },
        {
          "internalType": "uint256[]",
          "name": "creatorTokenId",
          "type": "uint256[]"
        },
        {
          "internalType": "uint256[]",
          "name": "creatorAmount",
          "type": "uint256[]"
        },
        {
          "internalType": "uint8[]",
          "name": "creatorTokenType",
          "type": "uint8[]"
        },
        {
          "internalType": "address",
          "name": "executerAddress",
          "type": "address"
        },
        {
          "internalType": "address[]",
          "name": "executorTokenAddress",
          "type": "address[]"
        },
        {
          "internalType": "uint256[]",
          "name": "executorTokenId",
          "type": "uint256[]"
        },
        {
          "internalType": "uint256[]",
          "name": "executorAmount",
          "type": "uint256[]"
        },
        {
          "internalType": "uint8[]",
          "name": "executorTokenType",
          "type": "uint8[]"
        }
      ],
      "name": "startOffer",
      "outputs": [
        {
          "internalType": "uint256",
          "name": "",
          "type": "uint256"
        }
      ],
      "stateMutability": "payable",
      "type": "function"
    },
    {
      "inputs": [
        {
          "internalType": "bytes4",
          "name": "interfaceId",
          "type": "bytes4"
        }
      ],
      "name": "supportsInterface",
      "outputs": [
        {
          "internalType": "bool",
          "name": "",
          "type": "bool"
        }
      ],
      "stateMutability": "view",
      "type": "function"
    },
    {
      "inputs": [],
      "name": "treasury",
      "outputs": [
        {
          "internalType": "contract ITreasury",
          "name": "",
          "type": "address"
        }
      ],
      "stateMutability": "view",
      "type": "function"
    },
    {
      "inputs": [
        {
          "internalType": "address",
          "name": "tokenAddress",
          "type": "address"
        },
        {
          "internalType": "uint256",
          "name": "tokenId",
          "type": "uint256"
        },
        {
          "internalType": "uint256",
          "name": "amount",
          "type": "uint256"
        },
        {
          "internalType": "uint8",
          "name": "tokenType",
          "type": "uint8"
        }
      ],
      "name": "verifyOfferIntegrity",
      "outputs": [
        {
          "internalType": "bool",
          "name": "",
          "type": "bool"
        }
      ],
      "stateMutability": "pure",
      "type": "function"
    }
  ],
  "transactionHash": "0xa8db834c3727dc32b34e36ecc1db0b60ea33543ce57551030653b492547488eb",
  "args": [
    "0xCf7Ed3AccA5a467e9e704C703E8D87F634fB0Fc9"
  ],
  "numDeployments": 1,
  "solcInputHash": "5f4f061b93a096e1a5dcc1377b772abc",
  "bytecode": "0x60806040523480156200001157600080fd5b5060405162002b3838038062002b38833981016040819052620000349162000158565b600080546001600160a01b0319166001600160a01b03831690811790915560405190815281907f2f658b440c35314f52658ea8a740e05b284cdc84dc9ae01e891f21b8933e7cad9060200160405180910390a1506001600160a01b0381166200009c57600080fd5b60006006819055600781905560088190556002819055546040805163fbfa77cf60e01b815290516001600160a01b039092169163fbfa77cf91600481810192602092909190829003018186803b158015620000f657600080fd5b505afa1580156200010b573d6000803e3d6000fd5b505050506040513d601f19601f8201168201806040525081019062000131919062000158565b600180546001600160a01b0319166001600160a01b0392909216919091179055506200018a565b6000602082840312156200016b57600080fd5b81516001600160a01b03811681146200018357600080fd5b9392505050565b61299e806200019a6000396000f3fe6080604052600436106100dd5760003560e01c80639a2bd5841161007f578063bf7e214f11610059578063bf7e214f146102ae578063ef706adf146102ce578063f0f44260146102ee578063f23a6e611461030e57600080fd5b80639a2bd58414610226578063b9520ce414610253578063bc197c811461028257600080fd5b80634579268a116100bb5780634579268a1461017b57806355353713146101ab57806361d027b3146101cc5780637a9e5e4b1461020457600080fd5b806301ffc9a7146100e2578063150b7a021461011757806330c722c51461015b575b600080fd5b3480156100ee57600080fd5b506101026100fd36600461207f565b61033a565b60405190151581526020015b60405180910390f35b34801561012357600080fd5b5061014261013236600461218f565b630a85bd0160e11b949350505050565b6040516001600160e01b0319909116815260200161010e565b34801561016757600080fd5b5061010261017636600461220c565b610371565b34801561018757600080fd5b5061019b610196366004612254565b610487565b60405161010e94939291906122ba565b6101be6101b936600461244e565b61056e565b60405190815260200161010e565b3480156101d857600080fd5b506001546101ec906001600160a01b031681565b6040516001600160a01b03909116815260200161010e565b34801561021057600080fd5b5061022461021f36600461259f565b611376565b005b34801561023257600080fd5b5061024661024136600461259f565b6113df565b60405161010e91906125f7565b34801561025f57600080fd5b5061027361026e36600461260a565b61144b565b60405161010e9392919061266d565b34801561028e57600080fd5b5061014261029d366004612704565b63bc197c8160e01b95945050505050565b3480156102ba57600080fd5b506000546101ec906001600160a01b031681565b3480156102da57600080fd5b506101026102e9366004612254565b611760565b3480156102fa57600080fd5b5061022461030936600461259f565b6118c7565b34801561031a57600080fd5b506101426103293660046127b2565b63f23a6e6160e01b95945050505050565b60006001600160e01b03198216630271189760e51b148061036b57506301ffc9a760e01b6001600160e01b03198316145b92915050565b60006001600160a01b0385166103d85760405162461bcd60e51b815260206004820152602160248201527f4552524f523a2043524541544f525f434f4e54524143545f4e4f545f56414c496044820152601160fa1b60648201526084015b60405180910390fd5b600460ff8316111561042c5760405162461bcd60e51b815260206004820152601b60248201527f4552524f523a204e4f545f56414c49445f4f464645525f54595045000000000060448201526064016103cf565b6000831161047c5760405162461bcd60e51b815260206004820152601b60248201527f4552524f523a20414d4f554e545f4d5553545f504f534954495645000000000060448201526064016103cf565b506001949350505050565b60008181526004602052604081208054600182015460068301548493849360609391926001600160a01b03918216929091169060ff1660038111156104ce576104ce61281b565b836004018080546104de90612831565b80601f016020809104026020016040519081016040528092919081815260200182805461050a90612831565b80156105575780601f1061052c57610100808354040283529160200191610557565b820191906000526020600020905b81548152906001019060200180831161053a57829003601f168201915b505050505090509450945094509450509193509193565b60006001600160a01b0386166105c65760405162461bcd60e51b815260206004820152601a60248201527f45584543555445525f414444524553535f4e4f545f56414c494400000000000060448201526064016103cf565b88518a511480156105d8575087518a51145b80156105e5575086518a51145b6106315760405162461bcd60e51b815260206004820152601760248201527f43524541544f525f5041524d535f4c454e5f4552524f5200000000000000000060448201526064016103cf565b83518551148015610643575082518551145b8015610650575081518551145b61069c5760405162461bcd60e51b815260206004820152601860248201527f45584543555445525f5041524d535f4c454e5f4552524f52000000000000000060448201526064016103cf565b600280549060006106ac83612882565b9091555050600280546000818152600460205260408082208085019390935582543373ffffffffffffffffffffffffffffffffffffffff19918216179093559254815291822060010180549091166001600160a01b0389161790555b8a51811015610bc7576107818b82815181106107265761072661289d565b60200260200101518b83815181106107405761074061289d565b60200260200101518b848151811061075a5761075a61289d565b60200260200101518b85815181106107745761077461289d565b6020026020010151610371565b5060018882815181106107965761079661289d565b602002602001015160ff1660048111156107b2576107b261281b565b60048111156107c3576107c361281b565b141561080c57610806338c83815181106107df576107df61289d565b60200260200101518b84815181106107f9576107f961289d565b602002602001015161195e565b50610930565b60038882815181106108205761082061289d565b602002602001015160ff16600481111561083c5761083c61281b565b600481111561084d5761084d61281b565b141561089057610806338c83815181106108695761086961289d565b60200260200101518c84815181106108835761088361289d565b6020026020010151611b18565b60028882815181106108a4576108a461289d565b602002602001015160ff1660048111156108c0576108c061281b565b60048111156108d1576108d161281b565b14156109305761092e338c83815181106108ed576108ed61289d565b60200260200101518b84815181106109075761090761289d565b60200260200101518d85815181106109215761092161289d565b6020026020010151611cf0565b505b6002546000908152600460209081526040808320338452600301909152902061095a8260016128b3565b815460018101835560009283526020909220909101558a518b90829081106109845761098461289d565b602090810291909101810151600254600090815260048352604080822033835260030190935291822090916001918201916109c09085906128b3565b815260200190815260200160002060000160006101000a8154816001600160a01b0302191690836001600160a01b03160217905550898181518110610a0757610a0761289d565b60209081029190910181015160025460009081526004835260408082203383526003019093529182209091600191820191610a439085906128b3565b815260200190815260200160002060020181905550888181518110610a6a57610a6a61289d565b60209081029190910181015160025460009081526004835260408082203383526003019093529182209091600191820191610aa69085906128b3565b815260200190815260200160002060030181905550878181518110610acd57610acd61289d565b602002602001015160ff166004811115610ae957610ae961281b565b6002546000908152600460209081526040808320338452600301909152812060019081019190610b1a9085906128b3565b815260200190815260200160002060040160006101000a81548160ff02191690836004811115610b4c57610b4c61281b565b02179055506002546000908152600460209081526040808320338452600301909152812060019190820190610b8184846128b3565b81526020810191909152604001600020600401805461ff001916610100836003811115610bb057610bb061281b565b021790555080610bbf81612882565b915050610708565b5060005b85518110156110bc57610c37868281518110610be957610be961289d565b6020026020010151868381518110610c0357610c0361289d565b6020026020010151868481518110610c1d57610c1d61289d565b60200260200101518685815181106107745761077461289d565b506001838281518110610c4c57610c4c61289d565b602002602001015160ff166004811115610c6857610c6861281b565b6004811115610c7957610c7961281b565b1415610cb557610caf87878381518110610c9557610c9561289d565b60200260200101518684815181106107f9576107f961289d565b50610dbf565b6003838281518110610cc957610cc961289d565b602002602001015160ff166004811115610ce557610ce561281b565b6004811115610cf657610cf661281b565b1415610d2c57610caf87878381518110610d1257610d1261289d565b60200260200101518784815181106108835761088361289d565b6002838281518110610d4057610d4061289d565b602002602001015160ff166004811115610d5c57610d5c61281b565b6004811115610d6d57610d6d61281b565b1415610dbf57610dbd87878381518110610d8957610d8961289d565b6020026020010151868481518110610da357610da361289d565b60200260200101518885815181106109215761092161289d565b505b60025460009081526004602090815260408083206001600160a01b038b1684526003019091529020610df28260016128b3565b815460018101835560009283526020909220909101558551869082908110610e1c57610e1c61289d565b60200260200101516004600060025481526020019081526020016000206003016000896001600160a01b03166001600160a01b031681526020019081526020016000206001016000836001610e7191906128b3565b815260200190815260200160002060000160006101000a8154816001600160a01b0302191690836001600160a01b03160217905550848181518110610eb857610eb861289d565b60200260200101516004600060025481526020019081526020016000206003016000896001600160a01b03166001600160a01b031681526020019081526020016000206001016000836001610f0d91906128b3565b815260200190815260200160002060020181905550838181518110610f3457610f3461289d565b60200260200101516004600060025481526020019081526020016000206003016000896001600160a01b03166001600160a01b031681526020019081526020016000206001016000836001610f8991906128b3565b815260200190815260200160002060030181905550828181518110610fb057610fb061289d565b602002602001015160ff166004811115610fcc57610fcc61281b565b60025460009081526004602090815260408083206001600160a01b038c1684526003019091528120600190810191906110069085906128b3565b815260200190815260200160002060040160006101000a81548160ff021916908360048111156110385761103861281b565b021790555060025460009081526004602090815260408083206001600160a01b038b16845260030190915281206001919082019061107684846128b3565b81526020810191909152604001600020600401805461ff0019166101008360038111156110a5576110a561281b565b0217905550806110b481612882565b915050610bcb565b50600280546000908152600460209081526040808320600601805460ff1916600190811790915533845260058352818420855481548084018355918652848620909101556001600160a01b038b16845290832093548454918201855593835290822001919091555b8a5181101561123a5761116c6040518060400160405280600e81526020017f457363726f77206164647265737300000000000000000000000000000000000081525030611f49565b60015489516001600160a01b039091169063b1550bfd9034908c90859081106111975761119761289d565b60200260200101518e85815181106111b1576111b161289d565b60200260200101518c86815181106111cb576111cb61289d565b60200260200101518f8f6040518763ffffffff1660e01b81526004016111f59594939291906128cb565b6000604051808303818588803b15801561120e57600080fd5b505af1158015611222573d6000803e3d6000fd5b5050505050808061123290612882565b915050611124565b5060005b85518110156113155760015484516001600160a01b039091169063b1550bfd9034908790859081106112725761127261289d565b602002602001015189858151811061128c5761128c61289d565b60200260200101518786815181106112a6576112a661289d565b60200260200101518a8a6040518763ffffffff1660e01b81526004016112d09594939291906128cb565b6000604051808303818588803b1580156112e957600080fd5b505af11580156112fd573d6000803e3d6000fd5b5050505050808061130d90612882565b91505061123e565b50856001600160a01b0316336001600160a01b03167f3a70875340d4e51f5512fc83d1c1a2eca9e850635d587e6988614dca764fe22c60025460405161135d91815260200190565b60405180910390a3506002549998505050505050505050565b61137e611fa7565b6000805473ffffffffffffffffffffffffffffffffffffffff19166001600160a01b0383169081179091556040519081527f2f658b440c35314f52658ea8a740e05b284cdc84dc9ae01e891f21b8933e7cad9060200160405180910390a150565b6001600160a01b03811660009081526005602090815260409182902080548351818402810184019094528084526060939283018282801561143f57602002820191906000526020600020905b81548152602001906001019080831161142b575b50505050509050919050565b60008281526004602090815260408083206001600160a01b038516845260038101835281842080548351818602810186019094528084526060958695869591939192908301828280156114bd57602002820191906000526020600020905b8154815260200190600101908083116114a9575b505050505090506000815167ffffffffffffffff8111156114e0576114e06120d8565b604051908082528060200260200182016040528015611509578160200160208202803683370190505b5090506000825167ffffffffffffffff811115611528576115286120d8565b604051908082528060200260200182016040528015611551578160200160208202803683370190505b5090506000835167ffffffffffffffff811115611570576115706120d8565b604051908082528060200260200182016040528015611599578160200160208202803683370190505b50905060005b845181101561174f5760008660030160008c6001600160a01b03166001600160a01b0316815260200190815260200160002060010160008784815181106115e8576115e861289d565b6020908102919091018101518252818101929092526040908101600020815160c08101835281546001600160a01b0316815260018201549381019390935260028101549183019190915260038101546060830152600480820154608084019160ff9091169081111561165c5761165c61281b565b600481111561166d5761166d61281b565b81526020016004820160019054906101000a900460ff1660038111156116955761169561281b565b60038111156116a6576116a661281b565b815250509050338583815181106116bf576116bf61289d565b60200260200101906001600160a01b031690816001600160a01b03168152505080602001518483815181106116f6576116f661289d565b602002602001018181525050806080015160048111156117185761171861281b565b83838151811061172a5761172a61289d565b60ff90921660209283029190910190910152508061174781612882565b91505061159f565b509196509450925050509250925092565b60008181526004602052604081206001600682015460ff1660038111156117895761178961281b565b146117d65760405162461bcd60e51b815260206004820181905260248201527f4552524f523a204f464645525f5354415455532049534e54204352454154454460448201526064016103cf565b60018101546001600160a01b03163314806117fa575080546001600160a01b031633145b61186c5760405162461bcd60e51b815260206004820152602860248201527f4552524f523a2045584543555445522049534e542043524541544f52204f522060448201527f455845435554455200000000000000000000000000000000000000000000000060648201526084016103cf565b600083815260046020908152604091829020600601805460ff19166003179055905184815233917f899cab278284ae4a91172caa0943607a0bcb19766254c3ebe1139be00650b102910160405180910390a250600192915050565b6118cf611fa7565b6001600160a01b03811661192f5760405162461bcd60e51b815260206004820152602160248201527f4552524f523a2054524541535552595f414444524553535f4e4f545f56414c496044820152601160fa1b60648201526084016103cf565b6001805473ffffffffffffffffffffffffffffffffffffffff19166001600160a01b0392909216919091179055565b6040516370a0823160e01b81526001600160a01b038481166004830152600091908416906370a0823190620186a09060240160206040518083038187803b1580156119a857600080fd5b5086fa1580156119bc573d6000803e3d6000fd5b50505050506040513d601f19601f820116820180604052508101906119e1919061290e565b821115611a3a5760405162461bcd60e51b815260206004820152602160248201527f4552524f523a204552525f4e4f545f454e4f5547485f46554e44535f455243326044820152600360fc1b60648201526084016103cf565b604051636eb1769f60e11b81526001600160a01b03858116600483015230602483015284169063dd62ed3e90620186a09060440160206040518083038187803b158015611a8657600080fd5b5086fa158015611a9a573d6000803e3d6000fd5b50505050506040513d601f19601f82011682018060405250810190611abf919061290e565b821115611b0e5760405162461bcd60e51b815260206004820181905260248201527f4552524f523a204552525f4e4f545f414c4c4f575f5350454e445f46554e445360448201526064016103cf565b5060019392505050565b6040516331a9108f60e11b8152600481018290526000906001600160a01b03841690636352211e90620186a09060240160206040518083038187803b158015611b6057600080fd5b5086fa158015611b74573d6000803e3d6000fd5b50505050506040513d601f19601f82011682018060405250810190611b999190612927565b6001600160a01b0316846001600160a01b031614611bf95760405162461bcd60e51b815260206004820152601c60248201527f4552524f523a204552525f4e4f545f4f574e5f49445f4552433732310000000060448201526064016103cf565b60405163e985e9c560e01b81526001600160a01b03858116600483015230602483015284169063e985e9c590620186a09060440160206040518083038187803b158015611c4557600080fd5b5086fa158015611c59573d6000803e3d6000fd5b50505050506040513d601f19601f82011682018060405250810190611c7e9190612944565b611b0e5760405162461bcd60e51b815260206004820152602c60248201527f4552524f523a204552525f4e4f545f414c4c4f575f544f5f5452414e5345525f60448201527f4954454e535f455243373231000000000000000000000000000000000000000060648201526084016103cf565b6000808211611d675760405162461bcd60e51b815260206004820152602d60248201527f4552524f523a205354414b455f455243313135355f49445f53484f554c445f4760448201527f5245415445525f5448454e5f300000000000000000000000000000000000000060648201526084016103cf565b600083118015611dfa5750604051627eeac760e11b81526001600160a01b0386811660048301526024820184905285169062fdd58e90620186a09060440160206040518083038187803b158015611dbd57600080fd5b5086fa158015611dd1573d6000803e3d6000fd5b50505050506040513d601f19601f82011682018060405250810190611df6919061290e565b8311155b611e525760405162461bcd60e51b815260206004820152602360248201527f4552524f523a204552525f4e4f545f454e4f5547485f46554e44535f4552433160448201526231353560e81b60648201526084016103cf565b60405163e985e9c560e01b81526001600160a01b03868116600483015230602483015285169063e985e9c590620186a09060440160206040518083038187803b158015611e9e57600080fd5b5086fa158015611eb2573d6000803e3d6000fd5b50505050506040513d601f19601f82011682018060405250810190611ed79190612944565b61047c5760405162461bcd60e51b815260206004820152602d60248201527f4552524f523a204552525f4e4f545f414c4c4f575f544f5f5452414e5345525f60448201527f4954454e535f455243313135350000000000000000000000000000000000000060648201526084016103cf565b611fa38282604051602401611f5f929190612966565b60408051601f198184030181529190526020810180517bffffffffffffffffffffffffffffffffffffffffffffffffffffffff1663319af33360e01b17905261205e565b5050565b60008054906101000a90046001600160a01b03166001600160a01b0316630c340a246040518163ffffffff1660e01b815260040160206040518083038186803b158015611ff357600080fd5b505afa158015612007573d6000803e3d6000fd5b505050506040513d601f19601f8201168201806040525081019061202b9190612927565b6001600160a01b0316336001600160a01b03161461205c5760405163075fd2b160e01b815260040160405180910390fd5b565b80516a636f6e736f6c652e6c6f67602083016000808483855afa5050505050565b60006020828403121561209157600080fd5b81356001600160e01b0319811681146120a957600080fd5b9392505050565b6001600160a01b03811681146120c557600080fd5b50565b80356120d3816120b0565b919050565b634e487b7160e01b600052604160045260246000fd5b604051601f8201601f1916810167ffffffffffffffff81118282101715612117576121176120d8565b604052919050565b600082601f83011261213057600080fd5b813567ffffffffffffffff81111561214a5761214a6120d8565b61215d601f8201601f19166020016120ee565b81815284602083860101111561217257600080fd5b816020850160208301376000918101602001919091529392505050565b600080600080608085870312156121a557600080fd5b84356121b0816120b0565b935060208501356121c0816120b0565b925060408501359150606085013567ffffffffffffffff8111156121e357600080fd5b6121ef8782880161211f565b91505092959194509250565b803560ff811681146120d357600080fd5b6000806000806080858703121561222257600080fd5b843561222d816120b0565b93506020850135925060408501359150612249606086016121fb565b905092959194509250565b60006020828403121561226657600080fd5b5035919050565b6000815180845260005b8181101561229357602081850181015186830182015201612277565b818111156122a5576000602083870101525b50601f01601f19169290920160200192915050565b60006001600160a01b03808716835280861660208401525060ff84166040830152608060608301526122ef608083018461226d565b9695505050505050565b600067ffffffffffffffff821115612313576123136120d8565b5060051b60200190565b600082601f83011261232e57600080fd5b8135602061234361233e836122f9565b6120ee565b82815260059290921b8401810191818101908684111561236257600080fd5b8286015b84811015612386578035612379816120b0565b8352918301918301612366565b509695505050505050565b600082601f8301126123a257600080fd5b813560206123b261233e836122f9565b82815260059290921b840181019181810190868411156123d157600080fd5b8286015b8481101561238657803583529183019183016123d5565b600082601f8301126123fd57600080fd5b8135602061240d61233e836122f9565b82815260059290921b8401810191818101908684111561242c57600080fd5b8286015b8481101561238657612441816121fb565b8352918301918301612430565b60008060008060008060008060006101208a8c03121561246d57600080fd5b893567ffffffffffffffff8082111561248557600080fd5b6124918d838e0161231d565b9a5060208c01359150808211156124a757600080fd5b6124b38d838e01612391565b995060408c01359150808211156124c957600080fd5b6124d58d838e01612391565b985060608c01359150808211156124eb57600080fd5b6124f78d838e016123ec565b975061250560808d016120c8565b965060a08c013591508082111561251b57600080fd5b6125278d838e0161231d565b955060c08c013591508082111561253d57600080fd5b6125498d838e01612391565b945060e08c013591508082111561255f57600080fd5b61256b8d838e01612391565b93506101008c013591508082111561258257600080fd5b5061258f8c828d016123ec565b9150509295985092959850929598565b6000602082840312156125b157600080fd5b81356120a9816120b0565b600081518084526020808501945080840160005b838110156125ec578151875295820195908201906001016125d0565b509495945050505050565b6020815260006120a960208301846125bc565b6000806040838503121561261d57600080fd5b82359150602083013561262f816120b0565b809150509250929050565b600081518084526020808501945080840160005b838110156125ec57815160ff168752958201959082019060010161264e565b606080825284519082018190526000906020906080840190828801845b828110156126af5781516001600160a01b03168452928401929084019060010161268a565b5050508381038285015285518082528683019183019060005b818110156126e4578351835292840192918401916001016126c8565b505084810360408601526126f8818761263a565b98975050505050505050565b600080600080600060a0868803121561271c57600080fd5b8535612727816120b0565b94506020860135612737816120b0565b9350604086013567ffffffffffffffff8082111561275457600080fd5b61276089838a01612391565b9450606088013591508082111561277657600080fd5b61278289838a01612391565b9350608088013591508082111561279857600080fd5b506127a58882890161211f565b9150509295509295909350565b600080600080600060a086880312156127ca57600080fd5b85356127d5816120b0565b945060208601356127e5816120b0565b93506040860135925060608601359150608086013567ffffffffffffffff81111561280f57600080fd5b6127a58882890161211f565b634e487b7160e01b600052602160045260246000fd5b600181811c9082168061284557607f821691505b6020821081141561286657634e487b7160e01b600052602260045260246000fd5b50919050565b634e487b7160e01b600052601160045260246000fd5b60006000198214156128965761289661286c565b5060010190565b634e487b7160e01b600052603260045260246000fd5b600082198211156128c6576128c661286c565b500190565b8581526001600160a01b038516602082015260ff8416604082015260a0606082015260006128fc60a08301856125bc565b82810360808401526126f881856125bc565b60006020828403121561292057600080fd5b5051919050565b60006020828403121561293957600080fd5b81516120a9816120b0565b60006020828403121561295657600080fd5b815180151581146120a957600080fd5b604081526000612979604083018561226d565b90506001600160a01b0383166020830152939250505056fea164736f6c6343000809000a",
  "devdoc": {
    "kind": "dev",
    "methods": {
      "onERC721Received(address,address,uint256,bytes)": {
        "details": "See {IERC721Receiver-onERC721Received}. Always returns `IERC721Receiver.onERC721Received.selector`."
      },
      "supportsInterface(bytes4)": {
        "details": "See {IERC165-supportsInterface}."
      }
    },
    "version": 1
  },
  "userdoc": {
    "kind": "user",
    "methods": {},
    "version": 1
  },
  "storageLayout": {
    "storage": [
      {
        "astId": 8464,
        "contract": "contracts/Escrow.sol:Escrow",
        "label": "authority",
        "offset": 0,
        "slot": "0",
        "type": "t_contract(IAuthority)8321"
      },
      {
        "astId": 6444,
        "contract": "contracts/Escrow.sol:Escrow",
        "label": "treasury",
        "offset": 0,
        "slot": "1",
        "type": "t_contract(ITreasury)8403"
      },
      {
        "astId": 6446,
        "contract": "contracts/Escrow.sol:Escrow",
        "label": "_offerId",
        "offset": 0,
        "slot": "2",
        "type": "t_uint256"
      },
      {
        "astId": 6448,
        "contract": "contracts/Escrow.sol:Escrow",
        "label": "_symbol",
        "offset": 0,
        "slot": "3",
        "type": "t_string_storage"
      },
      {
        "astId": 6453,
        "contract": "contracts/Escrow.sol:Escrow",
        "label": "_transactions",
        "offset": 0,
        "slot": "4",
        "type": "t_mapping(t_uint256,t_struct(Offer)6514_storage)"
      },
      {
        "astId": 6458,
        "contract": "contracts/Escrow.sol:Escrow",
        "label": "_openOffers",
        "offset": 0,
        "slot": "5",
        "type": "t_mapping(t_address,t_array(t_uint256)dyn_storage)"
      },
      {
        "astId": 6460,
        "contract": "contracts/Escrow.sol:Escrow",
        "label": "_openOfferAcc",
        "offset": 0,
        "slot": "6",
        "type": "t_uint256"
      },
      {
        "astId": 6462,
        "contract": "contracts/Escrow.sol:Escrow",
        "label": "_totalOfferCompletedAcc",
        "offset": 0,
        "slot": "7",
        "type": "t_uint256"
      },
      {
        "astId": 6464,
        "contract": "contracts/Escrow.sol:Escrow",
        "label": "_totalOfferClaimAcc",
        "offset": 0,
        "slot": "8",
        "type": "t_uint256"
      }
    ],
    "types": {
      "t_address": {
        "encoding": "inplace",
        "label": "address",
        "numberOfBytes": "20"
      },
      "t_array(t_uint256)dyn_storage": {
        "base": "t_uint256",
        "encoding": "dynamic_array",
        "label": "uint256[]",
        "numberOfBytes": "32"
      },
      "t_bytes32": {
        "encoding": "inplace",
        "label": "bytes32",
        "numberOfBytes": "32"
      },
      "t_contract(IAuthority)8321": {
        "encoding": "inplace",
        "label": "contract IAuthority",
        "numberOfBytes": "20"
      },
      "t_contract(ITreasury)8403": {
        "encoding": "inplace",
        "label": "contract ITreasury",
        "numberOfBytes": "20"
      },
      "t_enum(OfferStatus)6469": {
        "encoding": "inplace",
        "label": "enum Escrow.OfferStatus",
        "numberOfBytes": "1"
      },
      "t_enum(OfferType)6480": {
        "encoding": "inplace",
        "label": "enum Escrow.OfferType",
        "numberOfBytes": "1"
      },
      "t_enum(UserStatus)6474": {
        "encoding": "inplace",
        "label": "enum Escrow.UserStatus",
        "numberOfBytes": "1"
      },
      "t_mapping(t_address,t_array(t_uint256)dyn_storage)": {
        "encoding": "mapping",
        "key": "t_address",
        "label": "mapping(address => uint256[])",
        "numberOfBytes": "32",
        "value": "t_array(t_uint256)dyn_storage"
      },
      "t_mapping(t_address,t_struct(OfferUser)6523_storage)": {
        "encoding": "mapping",
        "key": "t_address",
        "label": "mapping(address => struct Escrow.OfferUser)",
        "numberOfBytes": "32",
        "value": "t_struct(OfferUser)6523_storage"
      },
      "t_mapping(t_uint256,t_struct(Offer)6514_storage)": {
        "encoding": "mapping",
        "key": "t_uint256",
        "label": "mapping(uint256 => struct Escrow.Offer)",
        "numberOfBytes": "32",
        "value": "t_struct(Offer)6514_storage"
      },
      "t_mapping(t_uint256,t_struct(OfferCounterpart)6495_storage)": {
        "encoding": "mapping",
        "key": "t_uint256",
        "label": "mapping(uint256 => struct Escrow.OfferCounterpart)",
        "numberOfBytes": "32",
        "value": "t_struct(OfferCounterpart)6495_storage"
      },
      "t_string_storage": {
        "encoding": "bytes",
        "label": "string",
        "numberOfBytes": "32"
      },
      "t_struct(Offer)6514_storage": {
        "encoding": "inplace",
        "label": "struct Escrow.Offer",
        "members": [
          {
            "astId": 6497,
            "contract": "contracts/Escrow.sol:Escrow",
            "label": "creator",
            "offset": 0,
            "slot": "0",
            "type": "t_address"
          },
          {
            "astId": 6499,
            "contract": "contracts/Escrow.sol:Escrow",
            "label": "executor",
            "offset": 0,
            "slot": "1",
            "type": "t_address"
          },
          {
            "astId": 6501,
            "contract": "contracts/Escrow.sol:Escrow",
            "label": "id",
            "offset": 0,
            "slot": "2",
            "type": "t_uint256"
          },
          {
            "astId": 6506,
            "contract": "contracts/Escrow.sol:Escrow",
            "label": "_offerors",
            "offset": 0,
            "slot": "3",
            "type": "t_mapping(t_address,t_struct(OfferUser)6523_storage)"
          },
          {
            "astId": 6508,
            "contract": "contracts/Escrow.sol:Escrow",
            "label": "file",
            "offset": 0,
            "slot": "4",
            "type": "t_string_storage"
          },
          {
            "astId": 6510,
            "contract": "contracts/Escrow.sol:Escrow",
            "label": "description",
            "offset": 0,
            "slot": "5",
            "type": "t_string_storage"
          },
          {
            "astId": 6513,
            "contract": "contracts/Escrow.sol:Escrow",
            "label": "offerStatus",
            "offset": 0,
            "slot": "6",
            "type": "t_enum(OfferStatus)6469"
          }
        ],
        "numberOfBytes": "224"
      },
      "t_struct(OfferCounterpart)6495_storage": {
        "encoding": "inplace",
        "label": "struct Escrow.OfferCounterpart",
        "members": [
          {
            "astId": 6482,
            "contract": "contracts/Escrow.sol:Escrow",
            "label": "contractAddr",
            "offset": 0,
            "slot": "0",
            "type": "t_address"
          },
          {
            "astId": 6484,
            "contract": "contracts/Escrow.sol:Escrow",
            "label": "proof",
            "offset": 0,
            "slot": "1",
            "type": "t_bytes32"
          },
          {
            "astId": 6486,
            "contract": "contracts/Escrow.sol:Escrow",
            "label": "idAsset",
            "offset": 0,
            "slot": "2",
            "type": "t_uint256"
          },
          {
            "astId": 6488,
            "contract": "contracts/Escrow.sol:Escrow",
            "label": "amount",
            "offset": 0,
            "slot": "3",
            "type": "t_uint256"
          },
          {
            "astId": 6491,
            "contract": "contracts/Escrow.sol:Escrow",
            "label": "offerorType",
            "offset": 0,
            "slot": "4",
            "type": "t_enum(OfferType)6480"
          },
          {
            "astId": 6494,
            "contract": "contracts/Escrow.sol:Escrow",
            "label": "offerorStatus",
            "offset": 1,
            "slot": "4",
            "type": "t_enum(UserStatus)6474"
          }
        ],
        "numberOfBytes": "160"
      },
      "t_struct(OfferUser)6523_storage": {
        "encoding": "inplace",
        "label": "struct Escrow.OfferUser",
        "members": [
          {
            "astId": 6517,
            "contract": "contracts/Escrow.sol:Escrow",
            "label": "tokenAddressIdx",
            "offset": 0,
            "slot": "0",
            "type": "t_array(t_uint256)dyn_storage"
          },
          {
            "astId": 6522,
            "contract": "contracts/Escrow.sol:Escrow",
            "label": "_counterpart",
            "offset": 0,
            "slot": "1",
            "type": "t_mapping(t_uint256,t_struct(OfferCounterpart)6495_storage)"
          }
        ],
        "numberOfBytes": "64"
      },
      "t_uint256": {
        "encoding": "inplace",
        "label": "uint256",
        "numberOfBytes": "32"
      }
    }
  }
}