{
  "address": "0x9fE46736679d2D9a65F0992F2272dE9f3c7fa6e0",
  "abi": [
    {
      "inputs": [
        {
          "internalType": "address",
          "name": "_authority",
          "type": "address"
        }
      ],
      "stateMutability": "nonpayable",
      "type": "constructor"
    },
    {
      "inputs": [],
      "name": "UNAUTHORIZED",
      "type": "error"
    },
    {
      "anonymous": false,
      "inputs": [
        {
          "indexed": false,
          "internalType": "contract IAuthority",
          "name": "authority",
          "type": "address"
        }
      ],
      "name": "AuthorityUpdated",
      "type": "event"
    },
    {
      "anonymous": false,
      "inputs": [
        {
          "indexed": true,
          "internalType": "address",
          "name": "claimOwner",
          "type": "address"
        },
        {
          "indexed": false,
          "internalType": "enum Escrow.OfferStatus",
          "name": "toStatus",
          "type": "uint8"
        },
        {
          "indexed": false,
          "internalType": "uint256",
          "name": "offerId",
          "type": "uint256"
        }
      ],
      "name": "ClaimToken",
      "type": "event"
    },
    {
      "anonymous": false,
      "inputs": [
        {
          "indexed": true,
          "internalType": "address",
          "name": "executor",
          "type": "address"
        },
        {
          "indexed": false,
          "internalType": "uint256",
          "name": "offerId",
          "type": "uint256"
        }
      ],
      "name": "FinishOffer",
      "type": "event"
    },
    {
      "anonymous": false,
      "inputs": [
        {
          "indexed": true,
          "internalType": "address",
          "name": "creator",
          "type": "address"
        },
        {
          "indexed": true,
          "internalType": "address",
          "name": "executor",
          "type": "address"
        },
        {
          "indexed": false,
          "internalType": "uint256",
          "name": "offerId",
          "type": "uint256"
        }
      ],
      "name": "NewOffer",
      "type": "event"
    },
    {
      "inputs": [],
      "name": "authority",
      "outputs": [
        {
          "internalType": "contract IAuthority",
          "name": "",
          "type": "address"
        }
      ],
      "stateMutability": "view",
      "type": "function"
    },
    {
      "inputs": [
        {
          "internalType": "uint256",
          "name": "offerId",
          "type": "uint256"
        }
      ],
      "name": "cancelOffer",
      "outputs": [
        {
          "internalType": "bool",
          "name": "",
          "type": "bool"
        }
      ],
      "stateMutability": "nonpayable",
      "type": "function"
    },
    {
      "inputs": [
        {
          "internalType": "uint256",
          "name": "offerId",
          "type": "uint256"
        }
      ],
      "name": "getOffer",
      "outputs": [
        {
          "internalType": "address",
          "name": "",
          "type": "address"
        },
        {
          "internalType": "address",
          "name": "",
          "type": "address"
        },
        {
          "internalType": "uint8",
          "name": "",
          "type": "uint8"
        },
        {
          "internalType": "string",
          "name": "",
          "type": "string"
        }
      ],
      "stateMutability": "view",
      "type": "function"
    },
    {
      "inputs": [
        {
          "internalType": "uint256",
          "name": "offerId",
          "type": "uint256"
        },
        {
          "internalType": "address",
          "name": "userWallet",
          "type": "address"
        }
      ],
      "name": "getOffer",
      "outputs": [
        {
          "internalType": "address[]",
          "name": "",
          "type": "address[]"
        },
        {
          "internalType": "bytes32[]",
          "name": "",
          "type": "bytes32[]"
        },
        {
          "internalType": "uint8[]",
          "name": "",
          "type": "uint8[]"
        }
      ],
      "stateMutability": "view",
      "type": "function"
    },
    {
      "inputs": [
        {
          "internalType": "address",
          "name": "u",
          "type": "address"
        }
      ],
      "name": "offerPerUser",
      "outputs": [
        {
          "internalType": "uint256[]",
          "name": "",
          "type": "uint256[]"
        }
      ],
      "stateMutability": "view",
      "type": "function"
    },
    {
      "inputs": [
        {
          "internalType": "address",
          "name": "",
          "type": "address"
        },
        {
          "internalType": "address",
          "name": "",
          "type": "address"
        },
        {
          "internalType": "uint256[]",
          "name": "",
          "type": "uint256[]"
        },
        {
          "internalType": "uint256[]",
          "name": "",
          "type": "uint256[]"
        },
        {
          "internalType": "bytes",
          "name": "",
          "type": "bytes"
        }
      ],
      "name": "onERC1155BatchReceived",
      "outputs": [
        {
          "internalType": "bytes4",
          "name": "",
          "type": "bytes4"
        }
      ],
      "stateMutability": "nonpayable",
      "type": "function"
    },
    {
      "inputs": [
        {
          "internalType": "address",
          "name": "",
          "type": "address"
        },
        {
          "internalType": "address",
          "name": "",
          "type": "address"
        },
        {
          "internalType": "uint256",
          "name": "",
          "type": "uint256"
        },
        {
          "internalType": "uint256",
          "name": "",
          "type": "uint256"
        },
        {
          "internalType": "bytes",
          "name": "",
          "type": "bytes"
        }
      ],
      "name": "onERC1155Received",
      "outputs": [
        {
          "internalType": "bytes4",
          "name": "",
          "type": "bytes4"
        }
      ],
      "stateMutability": "nonpayable",
      "type": "function"
    },
    {
      "inputs": [
        {
          "internalType": "address",
          "name": "",
          "type": "address"
        },
        {
          "internalType": "address",
          "name": "",
          "type": "address"
        },
        {
          "internalType": "uint256",
          "name": "",
          "type": "uint256"
        },
        {
          "internalType": "bytes",
          "name": "",
          "type": "bytes"
        }
      ],
      "name": "onERC721Received",
      "outputs": [
        {
          "internalType": "bytes4",
          "name": "",
          "type": "bytes4"
        }
      ],
      "stateMutability": "nonpayable",
      "type": "function"
    },
    {
      "inputs": [
        {
          "internalType": "contract IAuthority",
          "name": "_newAuthority",
          "type": "address"
        }
      ],
      "name": "setAuthority",
      "outputs": [],
      "stateMutability": "nonpayable",
      "type": "function"
    },
    {
      "inputs": [
        {
          "internalType": "address[]",
          "name": "creatorTokenAddress",
          "type": "address[]"
        },
        {
          "internalType": "uint256[]",
          "name": "creatorTokenId",
          "type": "uint256[]"
        },
        {
          "internalType": "uint256[]",
          "name": "creatorAmount",
          "type": "uint256[]"
        },
        {
          "internalType": "uint8[]",
          "name": "creatorTokenType",
          "type": "uint8[]"
        },
        {
          "internalType": "address",
          "name": "executerAddress",
          "type": "address"
        },
        {
          "internalType": "address[]",
          "name": "executorTokenAddress",
          "type": "address[]"
        },
        {
          "internalType": "uint256[]",
          "name": "executorTokenId",
          "type": "uint256[]"
        },
        {
          "internalType": "uint256[]",
          "name": "executorAmount",
          "type": "uint256[]"
        },
        {
          "internalType": "uint8[]",
          "name": "executorTokenType",
          "type": "uint8[]"
        }
      ],
      "name": "startOffer",
      "outputs": [
        {
          "internalType": "uint256",
          "name": "",
          "type": "uint256"
        }
      ],
      "stateMutability": "nonpayable",
      "type": "function"
    },
    {
      "inputs": [
        {
          "internalType": "bytes4",
          "name": "interfaceId",
          "type": "bytes4"
        }
      ],
      "name": "supportsInterface",
      "outputs": [
        {
          "internalType": "bool",
          "name": "",
          "type": "bool"
        }
      ],
      "stateMutability": "view",
      "type": "function"
    },
    {
      "inputs": [
        {
          "internalType": "address",
          "name": "tokenAddress",
          "type": "address"
        },
        {
          "internalType": "uint256",
          "name": "tokenId",
          "type": "uint256"
        },
        {
          "internalType": "uint256",
          "name": "amount",
          "type": "uint256"
        },
        {
          "internalType": "uint8",
          "name": "tokenType",
          "type": "uint8"
        }
      ],
      "name": "verifyOfferIntegrity",
      "outputs": [
        {
          "internalType": "bool",
          "name": "",
          "type": "bool"
        }
      ],
      "stateMutability": "pure",
      "type": "function"
    }
  ],
  "transactionHash": "0xe899925cd41fa7c67d6a6f8fea4c4b8d3e6c105daee2500b1793801146096f50",
  "args": [
    "0xe7f1725E7734CE288F8367e1Bb143E90bb3F0512"
  ],
  "numDeployments": 1,
  "solcInputHash": "3801823db14949aeae2a10aa0f842d1a",
  "bytecode": "0x60806040523480156200001157600080fd5b5060405162002679380380620026798339810160408190526200003491620000b7565b600080546001600160a01b0319166001600160a01b03831690811790915560405190815281907f2f658b440c35314f52658ea8a740e05b284cdc84dc9ae01e891f21b8933e7cad9060200160405180910390a1506001600160a01b0381166200009c57600080fd5b506000600581905560068190556007819055600155620000e9565b600060208284031215620000ca57600080fd5b81516001600160a01b0381168114620000e257600080fd5b9392505050565b61258080620000f96000396000f3fe608060405234801561001057600080fd5b50600436106100d45760003560e01c80639a2bd58411610081578063bf7e214f1161005b578063bf7e214f14610205578063ef706adf14610230578063f23a6e611461024357600080fd5b80639a2bd584146101a4578063b9520ce4146101c4578063bc197c81146101e657600080fd5b80634579268a116100b25780634579268a1461014b578063553537131461016e5780637a9e5e4b1461018f57600080fd5b806301ffc9a7146100d9578063150b7a021461010157806330c722c514610138575b600080fd5b6100ec6100e7366004611cde565b610262565b60405190151581526020015b60405180910390f35b61011f61010f366004611dee565b630a85bd0160e11b949350505050565b6040516001600160e01b031990911681526020016100f8565b6100ec610146366004611e6b565b610299565b61015e610159366004611eb3565b6103ff565b6040516100f89493929190611ecc565b61018161017c36600461209d565b6104e8565b6040519081526020016100f8565b6101a261019d3660046121ee565b61111f565b005b6101b76101b23660046121ee565b611188565b6040516100f8919061220b565b6101d76101d236600461224f565b6111f4565b6040516100f8939291906122bd565b61011f6101f4366004612354565b63bc197c8160e01b95945050505050565b600054610218906001600160a01b031681565b6040516001600160a01b0390911681526020016100f8565b6100ec61023e366004611eb3565b61150a565b61011f610251366004612402565b63f23a6e6160e01b95945050505050565b60006001600160e01b03198216630271189760e51b148061029357506301ffc9a760e01b6001600160e01b03198316145b92915050565b60006001600160a01b0385166103005760405162461bcd60e51b815260206004820152602160248201527f4552524f523a2043524541544f525f434f4e54524143545f4e4f545f56414c496044820152601160fa1b60648201526084015b60405180910390fd5b600460ff831611156103545760405162461bcd60e51b815260206004820152601b60248201527f4552524f523a204e4f545f56414c49445f4f464645525f54595045000000000060448201526064016102f7565b600084116103a45760405162461bcd60e51b815260206004820152601c60248201527f4552524f523a20544f4b454e49445f4d5553545f504f5349544956450000000060448201526064016102f7565b600083116103f45760405162461bcd60e51b815260206004820152601b60248201527f4552524f523a20414d4f554e545f4d5553545f504f534954495645000000000060448201526064016102f7565b506001949350505050565b600081815260036020819052604082208054600182015460068301548594859460609490936001600160a01b039182169391169160ff909116908111156104485761044861246b565b8360040180805461045890612481565b80601f016020809104026020016040519081016040528092919081815260200182805461048490612481565b80156104d15780601f106104a6576101008083540402835291602001916104d1565b820191906000526020600020905b8154815290600101906020018083116104b457829003601f168201915b505050505090509450945094509450509193509193565b60006001600160a01b0386166105405760405162461bcd60e51b815260206004820152601a60248201527f45584543555445525f414444524553535f4e4f545f56414c494400000000000060448201526064016102f7565b88518a51148015610552575087518a51145b801561055f575086518a51145b6105ab5760405162461bcd60e51b815260206004820152601760248201527f43524541544f525f5041524d535f4c454e5f4552524f5200000000000000000060448201526064016102f7565b835185511480156105bd575082518551145b80156105ca575081518551145b6106165760405162461bcd60e51b815260206004820152601860248201527f45584543555445525f5041524d535f4c454e5f4552524f52000000000000000060448201526064016102f7565b60018054906000610626836124d2565b909155505060018054600081815260036020526040808220600281019390935582543373ffffffffffffffffffffffffffffffffffffffff199182161790935583548252812090920180549091166001600160a01b0389161790555b8a51811015610b85576106fb8b82815181106106a0576106a06124ed565b60200260200101518b83815181106106ba576106ba6124ed565b60200260200101518b84815181106106d4576106d46124ed565b60200260200101518b85815181106106ee576106ee6124ed565b6020026020010151610299565b506001888281518110610710576107106124ed565b602002602001015160ff16600481111561072c5761072c61246b565b600481111561073d5761073d61246b565b141561078657610780338c8381518110610759576107596124ed565b60200260200101518b8481518110610773576107736124ed565b602002602001015161163c565b506108aa565b600388828151811061079a5761079a6124ed565b602002602001015160ff1660048111156107b6576107b661246b565b60048111156107c7576107c761246b565b141561080a57610780338c83815181106107e3576107e36124ed565b60200260200101518c84815181106107fd576107fd6124ed565b60200260200101516117f6565b600288828151811061081e5761081e6124ed565b602002602001015160ff16600481111561083a5761083a61246b565b600481111561084b5761084b61246b565b14156108aa576108a8338c8381518110610867576108676124ed565b60200260200101518b8481518110610881576108816124ed565b60200260200101518d858151811061089b5761089b6124ed565b60200260200101516119ce565b505b60018054600090815260036020818152604080842033855290920190529020906108d5908390612503565b815460018101835560009283526020909220909101558a518b90829081106108ff576108ff6124ed565b60200260200101516003600060015481526020019081526020016000206003016000336001600160a01b03166001600160a01b0316815260200190815260200160002060010160008360016109549190612503565b815260200190815260200160002060000160006101000a8154816001600160a01b0302191690836001600160a01b0316021790555089818151811061099b5761099b6124ed565b60200260200101516003600060015481526020019081526020016000206003016000336001600160a01b03166001600160a01b0316815260200190815260200160002060010160008360016109f09190612503565b815260200190815260200160002060020181905550888181518110610a1757610a176124ed565b60200260200101516003600060015481526020019081526020016000206003016000336001600160a01b03166001600160a01b031681526020019081526020016000206001016000836001610a6c9190612503565b815260200190815260200160002060030181905550878181518110610a9357610a936124ed565b602002602001015160ff166004811115610aaf57610aaf61246b565b60018054600090815260036020818152604080842033855290920190528120820191610adc908590612503565b815260200190815260200160002060040160006101000a81548160ff02191690836004811115610b0e57610b0e61246b565b021790555060018054600090815260036020818152604080842033855290920190528120820190610b3f8484612503565b81526020810191909152604001600020600401805461ff001916610100836003811115610b6e57610b6e61246b565b021790555080610b7d816124d2565b915050610682565b5060005b855181101561107357610bf5868281518110610ba757610ba76124ed565b6020026020010151868381518110610bc157610bc16124ed565b6020026020010151868481518110610bdb57610bdb6124ed565b60200260200101518685815181106106ee576106ee6124ed565b506001838281518110610c0a57610c0a6124ed565b602002602001015160ff166004811115610c2657610c2661246b565b6004811115610c3757610c3761246b565b1415610c7357610c6d87878381518110610c5357610c536124ed565b6020026020010151868481518110610773576107736124ed565b50610d7d565b6003838281518110610c8757610c876124ed565b602002602001015160ff166004811115610ca357610ca361246b565b6004811115610cb457610cb461246b565b1415610cea57610c6d87878381518110610cd057610cd06124ed565b60200260200101518784815181106107fd576107fd6124ed565b6002838281518110610cfe57610cfe6124ed565b602002602001015160ff166004811115610d1a57610d1a61246b565b6004811115610d2b57610d2b61246b565b1415610d7d57610d7b87878381518110610d4757610d476124ed565b6020026020010151868481518110610d6157610d616124ed565b602002602001015188858151811061089b5761089b6124ed565b505b6001805460009081526003602081815260408084206001600160a01b038d1685529092019052902090610db1908390612503565b815460018101835560009283526020909220909101558551869082908110610ddb57610ddb6124ed565b60200260200101516003600060015481526020019081526020016000206003016000896001600160a01b03166001600160a01b031681526020019081526020016000206001016000836001610e309190612503565b815260200190815260200160002060000160006101000a8154816001600160a01b0302191690836001600160a01b03160217905550848181518110610e7757610e776124ed565b60200260200101516003600060015481526020019081526020016000206003016000896001600160a01b03166001600160a01b031681526020019081526020016000206001016000836001610ecc9190612503565b815260200190815260200160002060020181905550838181518110610ef357610ef36124ed565b60200260200101516003600060015481526020019081526020016000206003016000896001600160a01b03166001600160a01b031681526020019081526020016000206001016000836001610f489190612503565b815260200190815260200160002060030181905550828181518110610f6f57610f6f6124ed565b602002602001015160ff166004811115610f8b57610f8b61246b565b6001805460009081526003602081815260408084206001600160a01b038e16855290920190528120820191610fc1908590612503565b815260200190815260200160002060040160006101000a81548160ff02191690836004811115610ff357610ff361246b565b02179055506001805460009081526003602081815260408084206001600160a01b038d1685529092019052812082019061102d8484612503565b81526020810191909152604001600020600401805461ff00191661010083600381111561105c5761105c61246b565b02179055508061106b816124d2565b915050610b89565b50600180546000908152600360209081526040808320600601805460ff1916851790553380845260048352818420855481548088018355918652848620909101556001600160a01b038b16808552828520865481548089018355918752958590200194909455935490519081529192917f3a70875340d4e51f5512fc83d1c1a2eca9e850635d587e6988614dca764fe22c910160405180910390a3506001549998505050505050505050565b611127611c27565b6000805473ffffffffffffffffffffffffffffffffffffffff19166001600160a01b0383169081179091556040519081527f2f658b440c35314f52658ea8a740e05b284cdc84dc9ae01e891f21b8933e7cad9060200160405180910390a150565b6001600160a01b0381166000908152600460209081526040918290208054835181840281018401909452808452606093928301828280156111e857602002820191906000526020600020905b8154815260200190600101908083116111d4575b50505050509050919050565b60008281526003602081815260408084206001600160a01b038616855292830182528084208054825181850281018501909352808352606095869586959094919391929083018282801561126757602002820191906000526020600020905b815481526020019060010190808311611253575b505050505090506000815167ffffffffffffffff81111561128a5761128a611d37565b6040519080825280602002602001820160405280156112b3578160200160208202803683370190505b5090506000825167ffffffffffffffff8111156112d2576112d2611d37565b6040519080825280602002602001820160405280156112fb578160200160208202803683370190505b5090506000835167ffffffffffffffff81111561131a5761131a611d37565b604051908082528060200260200182016040528015611343578160200160208202803683370190505b50905060005b84518110156114f95760008660030160008c6001600160a01b03166001600160a01b031681526020019081526020016000206001016000878481518110611392576113926124ed565b6020908102919091018101518252818101929092526040908101600020815160c08101835281546001600160a01b0316815260018201549381019390935260028101549183019190915260038101546060830152600480820154608084019160ff909116908111156114065761140661246b565b60048111156114175761141761246b565b81526020016004820160019054906101000a900460ff16600381111561143f5761143f61246b565b60038111156114505761145061246b565b81525050905033858381518110611469576114696124ed565b60200260200101906001600160a01b031690816001600160a01b03168152505080602001518483815181106114a0576114a06124ed565b602002602001018181525050806080015160048111156114c2576114c261246b565b8383815181106114d4576114d46124ed565b60ff9092166020928302919091019091015250806114f1816124d2565b915050611349565b509196509450925050509250925092565b60008181526003602052604081206001600682015460ff1660038111156115335761153361246b565b146115805760405162461bcd60e51b815260206004820181905260248201527f4552524f523a204f464645525f5354415455532049534e54204352454154454460448201526064016102f7565b60018101546001600160a01b03163314806115a4575080546001600160a01b031633145b6116165760405162461bcd60e51b815260206004820152602860248201527f4552524f523a2045584543555445522049534e542043524541544f52204f522060448201527f455845435554455200000000000000000000000000000000000000000000000060648201526084016102f7565b50506000908152600360208190526040909120600601805460ff19169091179055600190565b6040516370a0823160e01b81526001600160a01b038481166004830152600091908416906370a0823190620186a09060240160206040518083038187803b15801561168657600080fd5b5086fa15801561169a573d6000803e3d6000fd5b50505050506040513d601f19601f820116820180604052508101906116bf919061251b565b8211156117185760405162461bcd60e51b815260206004820152602160248201527f4552524f523a204552525f4e4f545f454e4f5547485f46554e44535f455243326044820152600360fc1b60648201526084016102f7565b604051636eb1769f60e11b81526001600160a01b03858116600483015230602483015284169063dd62ed3e90620186a09060440160206040518083038187803b15801561176457600080fd5b5086fa158015611778573d6000803e3d6000fd5b50505050506040513d601f19601f8201168201806040525081019061179d919061251b565b8211156117ec5760405162461bcd60e51b815260206004820181905260248201527f4552524f523a204552525f4e4f545f414c4c4f575f5350454e445f46554e445360448201526064016102f7565b5060019392505050565b6040516331a9108f60e11b8152600481018290526000906001600160a01b03841690636352211e90620186a09060240160206040518083038187803b15801561183e57600080fd5b5086fa158015611852573d6000803e3d6000fd5b50505050506040513d601f19601f820116820180604052508101906118779190612534565b6001600160a01b0316846001600160a01b0316146118d75760405162461bcd60e51b815260206004820152601c60248201527f4552524f523a204552525f4e4f545f4f574e5f49445f4552433732310000000060448201526064016102f7565b60405163e985e9c560e01b81526001600160a01b03858116600483015230602483015284169063e985e9c590620186a09060440160206040518083038187803b15801561192357600080fd5b5086fa158015611937573d6000803e3d6000fd5b50505050506040513d601f19601f8201168201806040525081019061195c9190612551565b6117ec5760405162461bcd60e51b815260206004820152602c60248201527f4552524f523a204552525f4e4f545f414c4c4f575f544f5f5452414e5345525f60448201527f4954454e535f455243373231000000000000000000000000000000000000000060648201526084016102f7565b6000808211611a455760405162461bcd60e51b815260206004820152602d60248201527f4552524f523a205354414b455f455243313135355f49445f53484f554c445f4760448201527f5245415445525f5448454e5f300000000000000000000000000000000000000060648201526084016102f7565b600083118015611ad85750604051627eeac760e11b81526001600160a01b0386811660048301526024820184905285169062fdd58e90620186a09060440160206040518083038187803b158015611a9b57600080fd5b5086fa158015611aaf573d6000803e3d6000fd5b50505050506040513d601f19601f82011682018060405250810190611ad4919061251b565b8311155b611b305760405162461bcd60e51b815260206004820152602360248201527f4552524f523a204552525f4e4f545f454e4f5547485f46554e44535f4552433160448201526231353560e81b60648201526084016102f7565b60405163e985e9c560e01b81526001600160a01b03868116600483015230602483015285169063e985e9c590620186a09060440160206040518083038187803b158015611b7c57600080fd5b5086fa158015611b90573d6000803e3d6000fd5b50505050506040513d601f19601f82011682018060405250810190611bb59190612551565b6103f45760405162461bcd60e51b815260206004820152602d60248201527f4552524f523a204552525f4e4f545f414c4c4f575f544f5f5452414e5345525f60448201527f4954454e535f455243313135350000000000000000000000000000000000000060648201526084016102f7565b60008054906101000a90046001600160a01b03166001600160a01b0316630c340a246040518163ffffffff1660e01b815260040160206040518083038186803b158015611c7357600080fd5b505afa158015611c87573d6000803e3d6000fd5b505050506040513d601f19601f82011682018060405250810190611cab9190612534565b6001600160a01b0316336001600160a01b031614611cdc5760405163075fd2b160e01b815260040160405180910390fd5b565b600060208284031215611cf057600080fd5b81356001600160e01b031981168114611d0857600080fd5b9392505050565b6001600160a01b0381168114611d2457600080fd5b50565b8035611d3281611d0f565b919050565b634e487b7160e01b600052604160045260246000fd5b604051601f8201601f1916810167ffffffffffffffff81118282101715611d7657611d76611d37565b604052919050565b600082601f830112611d8f57600080fd5b813567ffffffffffffffff811115611da957611da9611d37565b611dbc601f8201601f1916602001611d4d565b818152846020838601011115611dd157600080fd5b816020850160208301376000918101602001919091529392505050565b60008060008060808587031215611e0457600080fd5b8435611e0f81611d0f565b93506020850135611e1f81611d0f565b925060408501359150606085013567ffffffffffffffff811115611e4257600080fd5b611e4e87828801611d7e565b91505092959194509250565b803560ff81168114611d3257600080fd5b60008060008060808587031215611e8157600080fd5b8435611e8c81611d0f565b93506020850135925060408501359150611ea860608601611e5a565b905092959194509250565b600060208284031215611ec557600080fd5b5035919050565b60006001600160a01b03808716835260208187168185015260ff86166040850152608060608501528451915081608085015260005b82811015611f1d5785810182015185820160a001528101611f01565b82811115611f2f57600060a084870101525b5050601f01601f19169190910160a00195945050505050565b600067ffffffffffffffff821115611f6257611f62611d37565b5060051b60200190565b600082601f830112611f7d57600080fd5b81356020611f92611f8d83611f48565b611d4d565b82815260059290921b84018101918181019086841115611fb157600080fd5b8286015b84811015611fd5578035611fc881611d0f565b8352918301918301611fb5565b509695505050505050565b600082601f830112611ff157600080fd5b81356020612001611f8d83611f48565b82815260059290921b8401810191818101908684111561202057600080fd5b8286015b84811015611fd55780358352918301918301612024565b600082601f83011261204c57600080fd5b8135602061205c611f8d83611f48565b82815260059290921b8401810191818101908684111561207b57600080fd5b8286015b84811015611fd55761209081611e5a565b835291830191830161207f565b60008060008060008060008060006101208a8c0312156120bc57600080fd5b893567ffffffffffffffff808211156120d457600080fd5b6120e08d838e01611f6c565b9a5060208c01359150808211156120f657600080fd5b6121028d838e01611fe0565b995060408c013591508082111561211857600080fd5b6121248d838e01611fe0565b985060608c013591508082111561213a57600080fd5b6121468d838e0161203b565b975061215460808d01611d27565b965060a08c013591508082111561216a57600080fd5b6121768d838e01611f6c565b955060c08c013591508082111561218c57600080fd5b6121988d838e01611fe0565b945060e08c01359150808211156121ae57600080fd5b6121ba8d838e01611fe0565b93506101008c01359150808211156121d157600080fd5b506121de8c828d0161203b565b9150509295985092959850929598565b60006020828403121561220057600080fd5b8135611d0881611d0f565b6020808252825182820181905260009190848201906040850190845b8181101561224357835183529284019291840191600101612227565b50909695505050505050565b6000806040838503121561226257600080fd5b82359150602083013561227481611d0f565b809150509250929050565b600081518084526020808501945080840160005b838110156122b257815160ff1687529582019590820190600101612293565b509495945050505050565b606080825284519082018190526000906020906080840190828801845b828110156122ff5781516001600160a01b0316845292840192908401906001016122da565b5050508381038285015285518082528683019183019060005b8181101561233457835183529284019291840191600101612318565b50508481036040860152612348818761227f565b98975050505050505050565b600080600080600060a0868803121561236c57600080fd5b853561237781611d0f565b9450602086013561238781611d0f565b9350604086013567ffffffffffffffff808211156123a457600080fd5b6123b089838a01611fe0565b945060608801359150808211156123c657600080fd5b6123d289838a01611fe0565b935060808801359150808211156123e857600080fd5b506123f588828901611d7e565b9150509295509295909350565b600080600080600060a0868803121561241a57600080fd5b853561242581611d0f565b9450602086013561243581611d0f565b93506040860135925060608601359150608086013567ffffffffffffffff81111561245f57600080fd5b6123f588828901611d7e565b634e487b7160e01b600052602160045260246000fd5b600181811c9082168061249557607f821691505b602082108114156124b657634e487b7160e01b600052602260045260246000fd5b50919050565b634e487b7160e01b600052601160045260246000fd5b60006000198214156124e6576124e66124bc565b5060010190565b634e487b7160e01b600052603260045260246000fd5b60008219821115612516576125166124bc565b500190565b60006020828403121561252d57600080fd5b5051919050565b60006020828403121561254657600080fd5b8151611d0881611d0f565b60006020828403121561256357600080fd5b81518015158114611d0857600080fdfea164736f6c6343000809000a",
  "devdoc": {
    "kind": "dev",
    "methods": {
      "onERC721Received(address,address,uint256,bytes)": {
        "details": "See {IERC721Receiver-onERC721Received}. Always returns `IERC721Receiver.onERC721Received.selector`."
      },
      "supportsInterface(bytes4)": {
        "details": "See {IERC165-supportsInterface}."
      }
    },
    "version": 1
  },
  "userdoc": {
    "kind": "user",
    "methods": {},
    "version": 1
  },
  "storageLayout": {
    "storage": [
      {
        "astId": 5454,
        "contract": "contracts/Escrow.sol:Escrow",
        "label": "authority",
        "offset": 0,
        "slot": "0",
        "type": "t_contract(IAuthority)5421"
      },
      {
        "astId": 4188,
        "contract": "contracts/Escrow.sol:Escrow",
        "label": "_offerId",
        "offset": 0,
        "slot": "1",
        "type": "t_uint256"
      },
      {
        "astId": 4190,
        "contract": "contracts/Escrow.sol:Escrow",
        "label": "_symbol",
        "offset": 0,
        "slot": "2",
        "type": "t_string_storage"
      },
      {
        "astId": 4195,
        "contract": "contracts/Escrow.sol:Escrow",
        "label": "_transactions",
        "offset": 0,
        "slot": "3",
        "type": "t_mapping(t_uint256,t_struct(Offer)4256_storage)"
      },
      {
        "astId": 4200,
        "contract": "contracts/Escrow.sol:Escrow",
        "label": "_openOffers",
        "offset": 0,
        "slot": "4",
        "type": "t_mapping(t_address,t_array(t_uint256)dyn_storage)"
      },
      {
        "astId": 4202,
        "contract": "contracts/Escrow.sol:Escrow",
        "label": "_openOfferAcc",
        "offset": 0,
        "slot": "5",
        "type": "t_uint256"
      },
      {
        "astId": 4204,
        "contract": "contracts/Escrow.sol:Escrow",
        "label": "_totalOfferCompletedAcc",
        "offset": 0,
        "slot": "6",
        "type": "t_uint256"
      },
      {
        "astId": 4206,
        "contract": "contracts/Escrow.sol:Escrow",
        "label": "_totalOfferClaimAcc",
        "offset": 0,
        "slot": "7",
        "type": "t_uint256"
      }
    ],
    "types": {
      "t_address": {
        "encoding": "inplace",
        "label": "address",
        "numberOfBytes": "20"
      },
      "t_array(t_uint256)dyn_storage": {
        "base": "t_uint256",
        "encoding": "dynamic_array",
        "label": "uint256[]",
        "numberOfBytes": "32"
      },
      "t_bytes32": {
        "encoding": "inplace",
        "label": "bytes32",
        "numberOfBytes": "32"
      },
      "t_contract(IAuthority)5421": {
        "encoding": "inplace",
        "label": "contract IAuthority",
        "numberOfBytes": "20"
      },
      "t_enum(OfferStatus)4211": {
        "encoding": "inplace",
        "label": "enum Escrow.OfferStatus",
        "numberOfBytes": "1"
      },
      "t_enum(OfferType)4222": {
        "encoding": "inplace",
        "label": "enum Escrow.OfferType",
        "numberOfBytes": "1"
      },
      "t_enum(UserStatus)4216": {
        "encoding": "inplace",
        "label": "enum Escrow.UserStatus",
        "numberOfBytes": "1"
      },
      "t_mapping(t_address,t_array(t_uint256)dyn_storage)": {
        "encoding": "mapping",
        "key": "t_address",
        "label": "mapping(address => uint256[])",
        "numberOfBytes": "32",
        "value": "t_array(t_uint256)dyn_storage"
      },
      "t_mapping(t_address,t_struct(OfferUser)4265_storage)": {
        "encoding": "mapping",
        "key": "t_address",
        "label": "mapping(address => struct Escrow.OfferUser)",
        "numberOfBytes": "32",
        "value": "t_struct(OfferUser)4265_storage"
      },
      "t_mapping(t_uint256,t_struct(Offer)4256_storage)": {
        "encoding": "mapping",
        "key": "t_uint256",
        "label": "mapping(uint256 => struct Escrow.Offer)",
        "numberOfBytes": "32",
        "value": "t_struct(Offer)4256_storage"
      },
      "t_mapping(t_uint256,t_struct(OfferCounterpart)4237_storage)": {
        "encoding": "mapping",
        "key": "t_uint256",
        "label": "mapping(uint256 => struct Escrow.OfferCounterpart)",
        "numberOfBytes": "32",
        "value": "t_struct(OfferCounterpart)4237_storage"
      },
      "t_string_storage": {
        "encoding": "bytes",
        "label": "string",
        "numberOfBytes": "32"
      },
      "t_struct(Offer)4256_storage": {
        "encoding": "inplace",
        "label": "struct Escrow.Offer",
        "members": [
          {
            "astId": 4239,
            "contract": "contracts/Escrow.sol:Escrow",
            "label": "creator",
            "offset": 0,
            "slot": "0",
            "type": "t_address"
          },
          {
            "astId": 4241,
            "contract": "contracts/Escrow.sol:Escrow",
            "label": "executor",
            "offset": 0,
            "slot": "1",
            "type": "t_address"
          },
          {
            "astId": 4243,
            "contract": "contracts/Escrow.sol:Escrow",
            "label": "id",
            "offset": 0,
            "slot": "2",
            "type": "t_uint256"
          },
          {
            "astId": 4248,
            "contract": "contracts/Escrow.sol:Escrow",
            "label": "_offerors",
            "offset": 0,
            "slot": "3",
            "type": "t_mapping(t_address,t_struct(OfferUser)4265_storage)"
          },
          {
            "astId": 4250,
            "contract": "contracts/Escrow.sol:Escrow",
            "label": "file",
            "offset": 0,
            "slot": "4",
            "type": "t_string_storage"
          },
          {
            "astId": 4252,
            "contract": "contracts/Escrow.sol:Escrow",
            "label": "description",
            "offset": 0,
            "slot": "5",
            "type": "t_string_storage"
          },
          {
            "astId": 4255,
            "contract": "contracts/Escrow.sol:Escrow",
            "label": "offerStatus",
            "offset": 0,
            "slot": "6",
            "type": "t_enum(OfferStatus)4211"
          }
        ],
        "numberOfBytes": "224"
      },
      "t_struct(OfferCounterpart)4237_storage": {
        "encoding": "inplace",
        "label": "struct Escrow.OfferCounterpart",
        "members": [
          {
            "astId": 4224,
            "contract": "contracts/Escrow.sol:Escrow",
            "label": "contractAddr",
            "offset": 0,
            "slot": "0",
            "type": "t_address"
          },
          {
            "astId": 4226,
            "contract": "contracts/Escrow.sol:Escrow",
            "label": "proof",
            "offset": 0,
            "slot": "1",
            "type": "t_bytes32"
          },
          {
            "astId": 4228,
            "contract": "contracts/Escrow.sol:Escrow",
            "label": "idAsset",
            "offset": 0,
            "slot": "2",
            "type": "t_uint256"
          },
          {
            "astId": 4230,
            "contract": "contracts/Escrow.sol:Escrow",
            "label": "amount",
            "offset": 0,
            "slot": "3",
            "type": "t_uint256"
          },
          {
            "astId": 4233,
            "contract": "contracts/Escrow.sol:Escrow",
            "label": "offerorType",
            "offset": 0,
            "slot": "4",
            "type": "t_enum(OfferType)4222"
          },
          {
            "astId": 4236,
            "contract": "contracts/Escrow.sol:Escrow",
            "label": "offerorStatus",
            "offset": 1,
            "slot": "4",
            "type": "t_enum(UserStatus)4216"
          }
        ],
        "numberOfBytes": "160"
      },
      "t_struct(OfferUser)4265_storage": {
        "encoding": "inplace",
        "label": "struct Escrow.OfferUser",
        "members": [
          {
            "astId": 4259,
            "contract": "contracts/Escrow.sol:Escrow",
            "label": "tokenAddressIdx",
            "offset": 0,
            "slot": "0",
            "type": "t_array(t_uint256)dyn_storage"
          },
          {
            "astId": 4264,
            "contract": "contracts/Escrow.sol:Escrow",
            "label": "_counterpart",
            "offset": 0,
            "slot": "1",
            "type": "t_mapping(t_uint256,t_struct(OfferCounterpart)4237_storage)"
          }
        ],
        "numberOfBytes": "64"
      },
      "t_uint256": {
        "encoding": "inplace",
        "label": "uint256",
        "numberOfBytes": "32"
      }
    }
  }
}