{
  "address": "0xDc64a140Aa3E981100a9becA4E685f962f0cF6C9",
  "abi": [
    {
      "inputs": [
        {
          "internalType": "address",
          "name": "_authority",
          "type": "address"
        }
      ],
      "stateMutability": "nonpayable",
      "type": "constructor"
    },
    {
      "inputs": [],
      "name": "UNAUTHORIZED",
      "type": "error"
    },
    {
      "anonymous": false,
      "inputs": [
        {
          "indexed": false,
          "internalType": "contract IAuthority",
          "name": "authority",
          "type": "address"
        }
      ],
      "name": "AuthorityUpdated",
      "type": "event"
    },
    {
      "anonymous": false,
      "inputs": [
        {
          "indexed": true,
          "internalType": "address",
          "name": "token",
          "type": "address"
        },
        {
          "indexed": false,
          "internalType": "uint256",
          "name": "amount",
          "type": "uint256"
        }
      ],
      "name": "Deposit",
      "type": "event"
    },
    {
      "anonymous": false,
      "inputs": [
        {
          "indexed": true,
          "internalType": "address",
          "name": "token",
          "type": "address"
        },
        {
          "indexed": true,
          "internalType": "uint256[]",
          "name": "tokenIds",
          "type": "uint256[]"
        },
        {
          "indexed": false,
          "internalType": "uint256[]",
          "name": "amount",
          "type": "uint256[]"
        }
      ],
      "name": "DepositERC1155",
      "type": "event"
    },
    {
      "anonymous": false,
      "inputs": [
        {
          "indexed": true,
          "internalType": "address",
          "name": "token",
          "type": "address"
        },
        {
          "indexed": false,
          "internalType": "uint256",
          "name": "amount",
          "type": "uint256"
        }
      ],
      "name": "DepositERC20",
      "type": "event"
    },
    {
      "anonymous": false,
      "inputs": [
        {
          "indexed": true,
          "internalType": "address",
          "name": "token",
          "type": "address"
        },
        {
          "indexed": true,
          "internalType": "uint256",
          "name": "tokenId",
          "type": "uint256"
        }
      ],
      "name": "DepositERC721",
      "type": "event"
    },
    {
      "anonymous": false,
      "inputs": [
        {
          "indexed": false,
          "internalType": "uint256",
          "name": "amount",
          "type": "uint256"
        }
      ],
      "name": "DepositEther",
      "type": "event"
    },
    {
      "anonymous": false,
      "inputs": [
        {
          "indexed": true,
          "internalType": "address",
          "name": "token",
          "type": "address"
        },
        {
          "indexed": false,
          "internalType": "uint256",
          "name": "amount",
          "type": "uint256"
        }
      ],
      "name": "Withdraw",
      "type": "event"
    },
    {
      "anonymous": false,
      "inputs": [
        {
          "indexed": true,
          "internalType": "address",
          "name": "token",
          "type": "address"
        },
        {
          "indexed": true,
          "internalType": "uint256[]",
          "name": "tokenIds",
          "type": "uint256[]"
        },
        {
          "indexed": false,
          "internalType": "uint256[]",
          "name": "amount",
          "type": "uint256[]"
        }
      ],
      "name": "WithdrawERC1155",
      "type": "event"
    },
    {
      "anonymous": false,
      "inputs": [
        {
          "indexed": true,
          "internalType": "address",
          "name": "token",
          "type": "address"
        },
        {
          "indexed": false,
          "internalType": "uint256",
          "name": "amount",
          "type": "uint256"
        }
      ],
      "name": "WithdrawERC20",
      "type": "event"
    },
    {
      "anonymous": false,
      "inputs": [
        {
          "indexed": true,
          "internalType": "address",
          "name": "token",
          "type": "address"
        },
        {
          "indexed": true,
          "internalType": "uint256",
          "name": "tokenId",
          "type": "uint256"
        }
      ],
      "name": "WithdrawERC721",
      "type": "event"
    },
    {
      "anonymous": false,
      "inputs": [
        {
          "indexed": false,
          "internalType": "uint256",
          "name": "amount",
          "type": "uint256"
        }
      ],
      "name": "WithdrawalEther",
      "type": "event"
    },
    {
      "inputs": [],
      "name": "authority",
      "outputs": [
        {
          "internalType": "contract IAuthority",
          "name": "",
          "type": "address"
        }
      ],
      "stateMutability": "view",
      "type": "function"
    },
    {
      "inputs": [
        {
          "internalType": "uint256",
          "name": "_amount",
          "type": "uint256"
        },
        {
          "internalType": "address",
          "name": "_token",
          "type": "address"
        },
        {
          "internalType": "uint8",
          "name": "_tokenType",
          "type": "uint8"
        },
        {
          "internalType": "uint256[]",
          "name": "_tokenIds",
          "type": "uint256[]"
        },
        {
          "internalType": "uint256[]",
          "name": "_amounts",
          "type": "uint256[]"
        }
      ],
      "name": "deposit",
      "outputs": [],
      "stateMutability": "payable",
      "type": "function"
    },
    {
      "inputs": [
        {
          "internalType": "address",
          "name": "_token",
          "type": "address"
        },
        {
          "internalType": "uint8",
          "name": "_tokenType",
          "type": "uint8"
        },
        {
          "internalType": "uint256",
          "name": "_tokenId",
          "type": "uint256"
        }
      ],
      "name": "getTokenBalance",
      "outputs": [
        {
          "internalType": "uint256",
          "name": "",
          "type": "uint256"
        }
      ],
      "stateMutability": "view",
      "type": "function"
    },
    {
      "inputs": [
        {
          "internalType": "address",
          "name": "",
          "type": "address"
        },
        {
          "internalType": "address",
          "name": "",
          "type": "address"
        },
        {
          "internalType": "uint256[]",
          "name": "",
          "type": "uint256[]"
        },
        {
          "internalType": "uint256[]",
          "name": "",
          "type": "uint256[]"
        },
        {
          "internalType": "bytes",
          "name": "",
          "type": "bytes"
        }
      ],
      "name": "onERC1155BatchReceived",
      "outputs": [
        {
          "internalType": "bytes4",
          "name": "",
          "type": "bytes4"
        }
      ],
      "stateMutability": "nonpayable",
      "type": "function"
    },
    {
      "inputs": [
        {
          "internalType": "address",
          "name": "",
          "type": "address"
        },
        {
          "internalType": "address",
          "name": "",
          "type": "address"
        },
        {
          "internalType": "uint256",
          "name": "",
          "type": "uint256"
        },
        {
          "internalType": "uint256",
          "name": "",
          "type": "uint256"
        },
        {
          "internalType": "bytes",
          "name": "",
          "type": "bytes"
        }
      ],
      "name": "onERC1155Received",
      "outputs": [
        {
          "internalType": "bytes4",
          "name": "",
          "type": "bytes4"
        }
      ],
      "stateMutability": "nonpayable",
      "type": "function"
    },
    {
      "inputs": [
        {
          "internalType": "address",
          "name": "",
          "type": "address"
        },
        {
          "internalType": "address",
          "name": "",
          "type": "address"
        },
        {
          "internalType": "uint256",
          "name": "",
          "type": "uint256"
        },
        {
          "internalType": "bytes",
          "name": "",
          "type": "bytes"
        }
      ],
      "name": "onERC721Received",
      "outputs": [
        {
          "internalType": "bytes4",
          "name": "",
          "type": "bytes4"
        }
      ],
      "stateMutability": "nonpayable",
      "type": "function"
    },
    {
      "inputs": [
        {
          "internalType": "enum Treasury.STATUS",
          "name": "",
          "type": "uint8"
        },
        {
          "internalType": "address",
          "name": "",
          "type": "address"
        }
      ],
      "name": "permissions",
      "outputs": [
        {
          "internalType": "bool",
          "name": "",
          "type": "bool"
        }
      ],
      "stateMutability": "view",
      "type": "function"
    },
    {
      "inputs": [
        {
          "internalType": "contract IAuthority",
          "name": "_newAuthority",
          "type": "address"
        }
      ],
      "name": "setAuthority",
      "outputs": [],
      "stateMutability": "nonpayable",
      "type": "function"
    },
    {
      "inputs": [
        {
          "internalType": "enum Treasury.STATUS",
          "name": "_status",
          "type": "uint8"
        },
        {
          "internalType": "address",
          "name": "_address",
          "type": "address"
        },
        {
          "internalType": "bool",
          "name": "_permission",
          "type": "bool"
        }
      ],
      "name": "setPermission",
      "outputs": [],
      "stateMutability": "nonpayable",
      "type": "function"
    },
    {
      "inputs": [
        {
          "internalType": "bytes4",
          "name": "interfaceId",
          "type": "bytes4"
        }
      ],
      "name": "supportsInterface",
      "outputs": [
        {
          "internalType": "bool",
          "name": "",
          "type": "bool"
        }
      ],
      "stateMutability": "view",
      "type": "function"
    },
    {
      "inputs": [
        {
          "internalType": "uint256",
          "name": "_amount",
          "type": "uint256"
        },
        {
          "internalType": "address",
          "name": "_token",
          "type": "address"
        },
        {
          "internalType": "uint8",
          "name": "_tokenType",
          "type": "uint8"
        },
        {
          "internalType": "uint256[]",
          "name": "_tokenIds",
          "type": "uint256[]"
        },
        {
          "internalType": "uint256[]",
          "name": "_amounts",
          "type": "uint256[]"
        }
      ],
      "name": "withdraw",
      "outputs": [],
      "stateMutability": "nonpayable",
      "type": "function"
    },
    {
      "stateMutability": "payable",
      "type": "receive"
    }
  ],
  "transactionHash": "0xc6eb4133669ceafa59c378dbc8433b61dd2c62bb48fd216a6c7f2ef0b89eed35",
  "args": [
    "0xCf7Ed3AccA5a467e9e704C703E8D87F634fB0Fc9"
  ],
  "numDeployments": 1,
  "solcInputHash": "5f4f061b93a096e1a5dcc1377b772abc",
  "bytecode": "0x60c0604052601660808190527f54726561737572793a206e6f7420617070726f7665640000000000000000000060a090815262000040916001919062000113565b506040805180820190915260178082527f54726561737572793a20696e76616c696420746f6b656e0000000000000000006020909201918252620000879160029162000113565b503480156200009557600080fd5b50604051620018d8380380620018d8833981016040819052620000b891620001b9565b600080546001600160a01b0319166001600160a01b03831690811790915560405190815281907f2f658b440c35314f52658ea8a740e05b284cdc84dc9ae01e891f21b8933e7cad9060200160405180910390a1505062000228565b8280546200012190620001eb565b90600052602060002090601f01602090048101928262000145576000855562000190565b82601f106200016057805160ff191683800117855562000190565b8280016001018555821562000190579182015b828111156200019057825182559160200191906001019062000173565b506200019e929150620001a2565b5090565b5b808211156200019e5760008155600101620001a3565b600060208284031215620001cc57600080fd5b81516001600160a01b0381168114620001e457600080fd5b9392505050565b600181811c908216806200020057607f821691505b602082108114156200022257634e487b7160e01b600052602260045260246000fd5b50919050565b6116a080620002386000396000f3fe6080604052600436106100c05760003560e01c806379c728a511610074578063bc197c811161004e578063bc197c8114610256578063bf7e214f14610282578063f23a6e61146102ba57600080fd5b806379c728a5146101f55780637a9e5e4b14610223578063b1550bfd1461024357600080fd5b8063330dd345116100a5578063330dd34514610178578063534b6d84146101b357806371a330f2146101d557600080fd5b806301ffc9a7146100ff578063150b7a021461013457600080fd5b366100fa576040513481527fd5269418e5a2b45e710169d2c4b95243f38cee4ca6044cb91d8636dc4d01dd8a9060200160405180910390a1005b600080fd5b34801561010b57600080fd5b5061011f61011a366004610f65565b6102e6565b60405190151581526020015b60405180910390f35b34801561014057600080fd5b5061015f61014f36600461105e565b630a85bd0160e11b949350505050565b6040516001600160e01b0319909116815260200161012b565b34801561018457600080fd5b5061011f6101933660046110de565b600360209081526000928352604080842090915290825290205460ff1681565b3480156101bf57600080fd5b506101d36101ce3660046111a6565b61031d565b005b3480156101e157600080fd5b506101d36101f0366004611245565b61072c565b34801561020157600080fd5b5061021561021036600461128e565b61079a565b60405190815260200161012b565b34801561022f57600080fd5b506101d361023e3660046112cc565b61093a565b6101d36102513660046111a6565b6109ae565b34801561026257600080fd5b5061015f6102713660046112e9565b63bc197c8160e01b95945050505050565b34801561028e57600080fd5b506000546102a2906001600160a01b031681565b6040516001600160a01b03909116815260200161012b565b3480156102c657600080fd5b5061015f6102d536600461138a565b63f23a6e6160e01b95945050505050565b60006001600160e01b03198216630271189760e51b148061031757506301ffc9a760e01b6001600160e01b03198316145b92915050565b3360009081527fc3a24b0501bd2c13a7e57f2db4369ec4c223447539fc0724a9d55ac4a06ebd4d602052604090205460019060ff166103785760405162461bcd60e51b815260040161036f9190611409565b60405180910390fd5b5060018360ff166004811115610390576103906113f3565b60048111156103a1576103a16113f3565b1415610476576040516323b872dd60e01b8152306004820152336024820152604481018690526001600160a01b038516906323b872dd90606401602060405180830381600087803b1580156103f557600080fd5b505af1158015610409573d6000803e3d6000fd5b505050506040513d601f19601f8201168201806040525081019061042d91906114b1565b50836001600160a01b03167fbe7426aee8a34d0263892b55ce65ce81d8f4c806eb4719e59015ea49feb92d228660405161046991815260200190565b60405180910390a2610725565b60028360ff16600481111561048d5761048d6113f3565b600481111561049e5761049e6113f3565b141561056457604051631759616b60e11b81526001600160a01b03851690632eb2c2d6906104d6903090339087908790600401611509565b600060405180830381600087803b1580156104f057600080fd5b505af1158015610504573d6000803e3d6000fd5b50505050816040516105169190611564565b6040518091039020846001600160a01b03167fcf0fc0dd90ac3cf4318edb07deb3128c56d4e65e3dd573c2ac4a9a2256a8191483604051610557919061159a565b60405180910390a3610725565b60038360ff16600481111561057b5761057b6113f3565b600481111561058c5761058c6113f3565b141561067e57836001600160a01b03166323b872dd3033856000815181106105b6576105b66115ad565b60209081029190910101516040516001600160e01b031960e086901b1681526001600160a01b0393841660048201529290911660248301526044820152606401600060405180830381600087803b15801561061057600080fd5b505af1158015610624573d6000803e3d6000fd5b505050508160008151811061063b5761063b6115ad565b6020026020010151846001600160a01b03167fcc7d0949892410da9ebd78d838ca9ba1601b557ad34c4a6cb4b492c5996bd8df60405160405180910390a3610725565b60048360ff166004811115610695576106956113f3565b60048111156106a6576106a66113f3565b141561070a57604051339086156108fc029087906000818181858888f193505050506106d157600080fd5b6040518581527f187404a50efcc6c7bf8cc93f2ad71795d1663a0718ceaa641e31d7c40f9fa08a906020015b60405180910390a1610725565b600260405162461bcd60e51b815260040161036f9190611409565b5050505050565b610734610dd9565b806003600085600281111561074b5761074b6113f3565b600281111561075c5761075c6113f3565b8152602080820192909252604090810160009081206001600160a01b0396909616815294909152909220805460ff1916921515929092179091555050565b600060018360ff1660048111156107b3576107b36113f3565b60048111156107c4576107c46113f3565b1415610849576040516370a0823160e01b81523060048201526001600160a01b038516906370a08231906024015b60206040518083038186803b15801561080a57600080fd5b505afa15801561081e573d6000803e3d6000fd5b505050506040513d601f19601f8201168201806040525081019061084291906115c3565b9050610933565b60028360ff166004811115610860576108606113f3565b6004811115610871576108716113f3565b14156108a857604051627eeac760e11b8152306004820152602481018390526001600160a01b0385169062fdd58e906044016107f2565b60038360ff1660048111156108bf576108bf6113f3565b60048111156108d0576108d06113f3565b1415610902576040516370a0823160e01b81523060048201526001600160a01b038516906370a08231906024016107f2565b60048360ff166004811115610919576109196113f3565b600481111561092a5761092a6113f3565b141561070a5750475b9392505050565b610942610dd9565b600080547fffffffffffffffffffffffff0000000000000000000000000000000000000000166001600160a01b0383169081179091556040519081527f2f658b440c35314f52658ea8a740e05b284cdc84dc9ae01e891f21b8933e7cad9060200160405180910390a150565b6109ed6040518060400160405280601181526020017f54726561737572793a206465706f73697400000000000000000000000000000081525086610e90565b610a2c6040518060400160405280601081526020017f547265617375727920616464726565730000000000000000000000000000000081525030610eee565b610a6b6040518060400160405280600a81526020017f6d73672e73656e6465720000000000000000000000000000000000000000000081525033610eee565b60018360ff166004811115610a8257610a826113f3565b6004811115610a9357610a936113f3565b1415610b5b576040516323b872dd60e01b8152336004820152306024820152604481018690526001600160a01b038516906323b872dd90606401602060405180830381600087803b158015610ae757600080fd5b505af1158015610afb573d6000803e3d6000fd5b505050506040513d601f19601f82011682018060405250810190610b1f91906114b1565b50836001600160a01b03167f27f44e9a3001987fb4861e2d482738bc6a12b52de72ca3a5216157b75c28f81c8660405161046991815260200190565b60028360ff166004811115610b7257610b726113f3565b6004811115610b8357610b836113f3565b1415610c3c57604051631759616b60e11b81526001600160a01b03851690632eb2c2d690610bbb903390309087908790600401611509565b600060405180830381600087803b158015610bd557600080fd5b505af1158015610be9573d6000803e3d6000fd5b5050505081604051610bfb9190611564565b6040518091039020846001600160a01b03167f9c511e12b37cf9c06f2b0af56889166acf736bc090e48eaf9320e732a22027cd83604051610557919061159a565b60038360ff166004811115610c5357610c536113f3565b6004811115610c6457610c646113f3565b1415610d5657836001600160a01b03166323b872dd333085600081518110610c8e57610c8e6115ad565b60209081029190910101516040516001600160e01b031960e086901b1681526001600160a01b0393841660048201529290911660248301526044820152606401600060405180830381600087803b158015610ce857600080fd5b505af1158015610cfc573d6000803e3d6000fd5b5050505081600081518110610d1357610d136115ad565b6020026020010151846001600160a01b03167f8e9bd0090bfdfe33dafcd3a7b1b2b55e5cfa68012442afee46824f63029d034e60405160405180910390a3610725565b60048360ff166004811115610d6d57610d6d6113f3565b6004811115610d7e57610d7e6113f3565b141561070a57604051339086156108fc029087906000818181858888f19350505050610da957600080fd5b6040513481527fd5269418e5a2b45e710169d2c4b95243f38cee4ca6044cb91d8636dc4d01dd8a906020016106fd565b60008054906101000a90046001600160a01b03166001600160a01b0316630c340a246040518163ffffffff1660e01b815260040160206040518083038186803b158015610e2557600080fd5b505afa158015610e39573d6000803e3d6000fd5b505050506040513d601f19601f82011682018060405250810190610e5d91906115dc565b6001600160a01b0316336001600160a01b031614610e8e5760405163075fd2b160e01b815260040160405180910390fd5b565b610eea8282604051602401610ea6929190611646565b60408051601f198184030181529190526020810180517bffffffffffffffffffffffffffffffffffffffffffffffffffffffff166309710a9d60e41b179052610f44565b5050565b610eea8282604051602401610f04929190611668565b60408051601f198184030181529190526020810180517bffffffffffffffffffffffffffffffffffffffffffffffffffffffff1663319af33360e01b1790525b80516a636f6e736f6c652e6c6f67602083016000808483855afa5050505050565b600060208284031215610f7757600080fd5b81356001600160e01b03198116811461093357600080fd5b6001600160a01b0381168114610fa457600080fd5b50565b634e487b7160e01b600052604160045260246000fd5b604051601f8201601f1916810167ffffffffffffffff81118282101715610fe657610fe6610fa7565b604052919050565b600082601f830112610fff57600080fd5b813567ffffffffffffffff81111561101957611019610fa7565b61102c601f8201601f1916602001610fbd565b81815284602083860101111561104157600080fd5b816020850160208301376000918101602001919091529392505050565b6000806000806080858703121561107457600080fd5b843561107f81610f8f565b9350602085013561108f81610f8f565b925060408501359150606085013567ffffffffffffffff8111156110b257600080fd5b6110be87828801610fee565b91505092959194509250565b8035600381106110d957600080fd5b919050565b600080604083850312156110f157600080fd5b6110fa836110ca565b9150602083013561110a81610f8f565b809150509250929050565b803560ff811681146110d957600080fd5b600082601f83011261113757600080fd5b8135602067ffffffffffffffff82111561115357611153610fa7565b8160051b611162828201610fbd565b928352848101820192828101908785111561117c57600080fd5b83870192505b8483101561119b57823582529183019190830190611182565b979650505050505050565b600080600080600060a086880312156111be57600080fd5b8535945060208601356111d081610f8f565b93506111de60408701611115565b9250606086013567ffffffffffffffff808211156111fb57600080fd5b61120789838a01611126565b9350608088013591508082111561121d57600080fd5b5061122a88828901611126565b9150509295509295909350565b8015158114610fa457600080fd5b60008060006060848603121561125a57600080fd5b611263846110ca565b9250602084013561127381610f8f565b9150604084013561128381611237565b809150509250925092565b6000806000606084860312156112a357600080fd5b83356112ae81610f8f565b92506112bc60208501611115565b9150604084013590509250925092565b6000602082840312156112de57600080fd5b813561093381610f8f565b600080600080600060a0868803121561130157600080fd5b853561130c81610f8f565b9450602086013561131c81610f8f565b9350604086013567ffffffffffffffff8082111561133957600080fd5b61134589838a01611126565b9450606088013591508082111561135b57600080fd5b61136789838a01611126565b9350608088013591508082111561137d57600080fd5b5061122a88828901610fee565b600080600080600060a086880312156113a257600080fd5b85356113ad81610f8f565b945060208601356113bd81610f8f565b93506040860135925060608601359150608086013567ffffffffffffffff8111156113e757600080fd5b61122a88828901610fee565b634e487b7160e01b600052602160045260246000fd5b600060208083526000845481600182811c91508083168061142b57607f831692505b85831081141561144957634e487b7160e01b85526022600452602485fd5b8786018381526020018180156114665760018114611477576114a2565b60ff198616825287820196506114a2565b60008b81526020902060005b8681101561149c57815484820152908501908901611483565b83019750505b50949998505050505050505050565b6000602082840312156114c357600080fd5b815161093381611237565b600081518084526020808501945080840160005b838110156114fe578151875295820195908201906001016114e2565b509495945050505050565b60006001600160a01b03808716835280861660208401525060a0604083015261153560a08301856114ce565b828103606084015261154781856114ce565b838103608090940193909352505060008152602001949350505050565b815160009082906020808601845b8381101561158e57815185529382019390820190600101611572565b50929695505050505050565b60208152600061093360208301846114ce565b634e487b7160e01b600052603260045260246000fd5b6000602082840312156115d557600080fd5b5051919050565b6000602082840312156115ee57600080fd5b815161093381610f8f565b6000815180845260005b8181101561161f57602081850181015186830182015201611603565b81811115611631576000602083870101525b50601f01601f19169290920160200192915050565b60408152600061165960408301856115f9565b90508260208301529392505050565b60408152600061167b60408301856115f9565b90506001600160a01b0383166020830152939250505056fea164736f6c6343000809000a",
  "devdoc": {
    "kind": "dev",
    "methods": {
      "deposit(uint256,address,uint8,uint256[],uint256[])": {
        "params": {
          "_amount": "uint256",
          "_amounts": "uint256[]",
          "_token": "address",
          "_tokenIds": "uint256[]",
          "_tokenType": "TokenType"
        }
      },
      "onERC721Received(address,address,uint256,bytes)": {
        "details": "See {IERC721Receiver-onERC721Received}. Always returns `IERC721Receiver.onERC721Received.selector`."
      },
      "supportsInterface(bytes4)": {
        "details": "See {IERC165-supportsInterface}."
      },
      "withdraw(uint256,address,uint8,uint256[],uint256[])": {
        "params": {
          "_amount": "uint256",
          "_amounts": "uint256[",
          "_token": "address",
          "_tokenIds": "uint256[]",
          "_tokenType": "TokenType"
        }
      }
    },
    "version": 1
  },
  "userdoc": {
    "kind": "user",
    "methods": {
      "deposit(uint256,address,uint8,uint256[],uint256[])": {
        "notice": "allow address to deposit an asset "
      },
      "withdraw(uint256,address,uint8,uint256[],uint256[])": {
        "notice": "allow approved address to withdraw from reserves"
      }
    },
    "version": 1
  },
  "storageLayout": {
    "storage": [
      {
        "astId": 8464,
        "contract": "contracts/Treasury.sol:Treasury",
        "label": "authority",
        "offset": 0,
        "slot": "0",
        "type": "t_contract(IAuthority)8321"
      },
      {
        "astId": 7807,
        "contract": "contracts/Treasury.sol:Treasury",
        "label": "notApproved",
        "offset": 0,
        "slot": "1",
        "type": "t_string_storage"
      },
      {
        "astId": 7810,
        "contract": "contracts/Treasury.sol:Treasury",
        "label": "invalidToken",
        "offset": 0,
        "slot": "2",
        "type": "t_string_storage"
      },
      {
        "astId": 7817,
        "contract": "contracts/Treasury.sol:Treasury",
        "label": "permissions",
        "offset": 0,
        "slot": "3",
        "type": "t_mapping(t_enum(STATUS)7798,t_mapping(t_address,t_bool))"
      }
    ],
    "types": {
      "t_address": {
        "encoding": "inplace",
        "label": "address",
        "numberOfBytes": "20"
      },
      "t_bool": {
        "encoding": "inplace",
        "label": "bool",
        "numberOfBytes": "1"
      },
      "t_contract(IAuthority)8321": {
        "encoding": "inplace",
        "label": "contract IAuthority",
        "numberOfBytes": "20"
      },
      "t_enum(STATUS)7798": {
        "encoding": "inplace",
        "label": "enum Treasury.STATUS",
        "numberOfBytes": "1"
      },
      "t_mapping(t_address,t_bool)": {
        "encoding": "mapping",
        "key": "t_address",
        "label": "mapping(address => bool)",
        "numberOfBytes": "32",
        "value": "t_bool"
      },
      "t_mapping(t_enum(STATUS)7798,t_mapping(t_address,t_bool))": {
        "encoding": "mapping",
        "key": "t_enum(STATUS)7798",
        "label": "mapping(enum Treasury.STATUS => mapping(address => bool))",
        "numberOfBytes": "32",
        "value": "t_mapping(t_address,t_bool)"
      },
      "t_string_storage": {
        "encoding": "bytes",
        "label": "string",
        "numberOfBytes": "32"
      }
    }
  }
}