{
  "address": "0xDc64a140Aa3E981100a9becA4E685f962f0cF6C9",
  "abi": [
    {
      "inputs": [
        {
          "internalType": "address",
          "name": "_authority",
          "type": "address"
        }
      ],
      "stateMutability": "nonpayable",
      "type": "constructor"
    },
    {
      "inputs": [],
      "name": "UNAUTHORIZED",
      "type": "error"
    },
    {
      "anonymous": false,
      "inputs": [
        {
          "indexed": false,
          "internalType": "contract IAuthority",
          "name": "authority",
          "type": "address"
        }
      ],
      "name": "AuthorityUpdated",
      "type": "event"
    },
    {
      "anonymous": false,
      "inputs": [
        {
          "indexed": true,
          "internalType": "address",
          "name": "token",
          "type": "address"
        },
        {
          "indexed": false,
          "internalType": "uint256",
          "name": "amount",
          "type": "uint256"
        }
      ],
      "name": "Deposit",
      "type": "event"
    },
    {
      "anonymous": false,
      "inputs": [
        {
          "indexed": true,
          "internalType": "address",
          "name": "token",
          "type": "address"
        },
        {
          "indexed": true,
          "internalType": "uint256[]",
          "name": "tokenIds",
          "type": "uint256[]"
        },
        {
          "indexed": false,
          "internalType": "uint256[]",
          "name": "amount",
          "type": "uint256[]"
        }
      ],
      "name": "DepositERC1155",
      "type": "event"
    },
    {
      "anonymous": false,
      "inputs": [
        {
          "indexed": true,
          "internalType": "address",
          "name": "token",
          "type": "address"
        },
        {
          "indexed": false,
          "internalType": "uint256",
          "name": "amount",
          "type": "uint256"
        }
      ],
      "name": "DepositERC20",
      "type": "event"
    },
    {
      "anonymous": false,
      "inputs": [
        {
          "indexed": true,
          "internalType": "address",
          "name": "token",
          "type": "address"
        },
        {
          "indexed": true,
          "internalType": "uint256",
          "name": "tokenId",
          "type": "uint256"
        }
      ],
      "name": "DepositERC721",
      "type": "event"
    },
    {
      "anonymous": false,
      "inputs": [
        {
          "indexed": false,
          "internalType": "uint256",
          "name": "amount",
          "type": "uint256"
        }
      ],
      "name": "DepositEther",
      "type": "event"
    },
    {
      "anonymous": false,
      "inputs": [
        {
          "indexed": true,
          "internalType": "address",
          "name": "token",
          "type": "address"
        },
        {
          "indexed": false,
          "internalType": "uint256",
          "name": "amount",
          "type": "uint256"
        }
      ],
      "name": "Withdraw",
      "type": "event"
    },
    {
      "anonymous": false,
      "inputs": [
        {
          "indexed": true,
          "internalType": "address",
          "name": "token",
          "type": "address"
        },
        {
          "indexed": true,
          "internalType": "uint256[]",
          "name": "tokenIds",
          "type": "uint256[]"
        },
        {
          "indexed": false,
          "internalType": "uint256[]",
          "name": "amount",
          "type": "uint256[]"
        }
      ],
      "name": "WithdrawERC1155",
      "type": "event"
    },
    {
      "anonymous": false,
      "inputs": [
        {
          "indexed": true,
          "internalType": "address",
          "name": "token",
          "type": "address"
        },
        {
          "indexed": false,
          "internalType": "uint256",
          "name": "amount",
          "type": "uint256"
        }
      ],
      "name": "WithdrawERC20",
      "type": "event"
    },
    {
      "anonymous": false,
      "inputs": [
        {
          "indexed": true,
          "internalType": "address",
          "name": "token",
          "type": "address"
        },
        {
          "indexed": true,
          "internalType": "uint256",
          "name": "tokenId",
          "type": "uint256"
        }
      ],
      "name": "WithdrawERC721",
      "type": "event"
    },
    {
      "anonymous": false,
      "inputs": [
        {
          "indexed": false,
          "internalType": "uint256",
          "name": "amount",
          "type": "uint256"
        }
      ],
      "name": "WithdrawalEther",
      "type": "event"
    },
    {
      "inputs": [],
      "name": "authority",
      "outputs": [
        {
          "internalType": "contract IAuthority",
          "name": "",
          "type": "address"
        }
      ],
      "stateMutability": "view",
      "type": "function"
    },
    {
      "inputs": [
        {
          "internalType": "uint256",
          "name": "_amount",
          "type": "uint256"
        },
        {
          "internalType": "address",
          "name": "_token",
          "type": "address"
        },
        {
          "internalType": "uint8",
          "name": "_tokenType",
          "type": "uint8"
        },
        {
          "internalType": "uint256[]",
          "name": "_tokenIds",
          "type": "uint256[]"
        },
        {
          "internalType": "uint256[]",
          "name": "_amounts",
          "type": "uint256[]"
        },
        {
          "internalType": "address",
          "name": "_sender",
          "type": "address"
        }
      ],
      "name": "deposit",
      "outputs": [],
      "stateMutability": "payable",
      "type": "function"
    },
    {
      "inputs": [
        {
          "internalType": "address",
          "name": "_token",
          "type": "address"
        },
        {
          "internalType": "uint8",
          "name": "_tokenType",
          "type": "uint8"
        },
        {
          "internalType": "uint256",
          "name": "_tokenId",
          "type": "uint256"
        }
      ],
      "name": "getTokenBalance",
      "outputs": [
        {
          "internalType": "uint256",
          "name": "",
          "type": "uint256"
        }
      ],
      "stateMutability": "view",
      "type": "function"
    },
    {
      "inputs": [
        {
          "internalType": "address",
          "name": "",
          "type": "address"
        },
        {
          "internalType": "address",
          "name": "",
          "type": "address"
        },
        {
          "internalType": "uint256[]",
          "name": "",
          "type": "uint256[]"
        },
        {
          "internalType": "uint256[]",
          "name": "",
          "type": "uint256[]"
        },
        {
          "internalType": "bytes",
          "name": "",
          "type": "bytes"
        }
      ],
      "name": "onERC1155BatchReceived",
      "outputs": [
        {
          "internalType": "bytes4",
          "name": "",
          "type": "bytes4"
        }
      ],
      "stateMutability": "nonpayable",
      "type": "function"
    },
    {
      "inputs": [
        {
          "internalType": "address",
          "name": "",
          "type": "address"
        },
        {
          "internalType": "address",
          "name": "",
          "type": "address"
        },
        {
          "internalType": "uint256",
          "name": "",
          "type": "uint256"
        },
        {
          "internalType": "uint256",
          "name": "",
          "type": "uint256"
        },
        {
          "internalType": "bytes",
          "name": "",
          "type": "bytes"
        }
      ],
      "name": "onERC1155Received",
      "outputs": [
        {
          "internalType": "bytes4",
          "name": "",
          "type": "bytes4"
        }
      ],
      "stateMutability": "nonpayable",
      "type": "function"
    },
    {
      "inputs": [
        {
          "internalType": "address",
          "name": "",
          "type": "address"
        },
        {
          "internalType": "address",
          "name": "",
          "type": "address"
        },
        {
          "internalType": "uint256",
          "name": "",
          "type": "uint256"
        },
        {
          "internalType": "bytes",
          "name": "",
          "type": "bytes"
        }
      ],
      "name": "onERC721Received",
      "outputs": [
        {
          "internalType": "bytes4",
          "name": "",
          "type": "bytes4"
        }
      ],
      "stateMutability": "nonpayable",
      "type": "function"
    },
    {
      "inputs": [
        {
          "internalType": "enum Treasury.STATUS",
          "name": "",
          "type": "uint8"
        },
        {
          "internalType": "address",
          "name": "",
          "type": "address"
        }
      ],
      "name": "permissions",
      "outputs": [
        {
          "internalType": "bool",
          "name": "",
          "type": "bool"
        }
      ],
      "stateMutability": "view",
      "type": "function"
    },
    {
      "inputs": [
        {
          "internalType": "contract IAuthority",
          "name": "_newAuthority",
          "type": "address"
        }
      ],
      "name": "setAuthority",
      "outputs": [],
      "stateMutability": "nonpayable",
      "type": "function"
    },
    {
      "inputs": [
        {
          "internalType": "enum Treasury.STATUS",
          "name": "_status",
          "type": "uint8"
        },
        {
          "internalType": "address",
          "name": "_address",
          "type": "address"
        },
        {
          "internalType": "bool",
          "name": "_permission",
          "type": "bool"
        }
      ],
      "name": "setPermission",
      "outputs": [],
      "stateMutability": "nonpayable",
      "type": "function"
    },
    {
      "inputs": [
        {
          "internalType": "bytes4",
          "name": "interfaceId",
          "type": "bytes4"
        }
      ],
      "name": "supportsInterface",
      "outputs": [
        {
          "internalType": "bool",
          "name": "",
          "type": "bool"
        }
      ],
      "stateMutability": "view",
      "type": "function"
    },
    {
      "inputs": [
        {
          "internalType": "uint256",
          "name": "_amount",
          "type": "uint256"
        },
        {
          "internalType": "address",
          "name": "_token",
          "type": "address"
        },
        {
          "internalType": "uint8",
          "name": "_tokenType",
          "type": "uint8"
        },
        {
          "internalType": "uint256[]",
          "name": "_tokenIds",
          "type": "uint256[]"
        },
        {
          "internalType": "uint256[]",
          "name": "_amounts",
          "type": "uint256[]"
        }
      ],
      "name": "withdraw",
      "outputs": [],
      "stateMutability": "nonpayable",
      "type": "function"
    },
    {
      "stateMutability": "payable",
      "type": "receive"
    }
  ],
  "transactionHash": "0x06251cf3d8e7975eed0c396efa9d8f965ec6ee5644ab62926303416e6297cd4c",
  "args": [
    "0xCf7Ed3AccA5a467e9e704C703E8D87F634fB0Fc9"
  ],
  "numDeployments": 1,
  "solcInputHash": "02f6f5b7f96c81c0711b29941957ccd4",
  "bytecode": "0x60c0604052601660808190527f54726561737572793a206e6f7420617070726f7665640000000000000000000060a090815262000040916001919062000113565b506040805180820190915260178082527f54726561737572793a20696e76616c696420746f6b656e0000000000000000006020909201918252620000879160029162000113565b503480156200009557600080fd5b506040516200178038038062001780833981016040819052620000b891620001b9565b600080546001600160a01b0319166001600160a01b03831690811790915560405190815281907f2f658b440c35314f52658ea8a740e05b284cdc84dc9ae01e891f21b8933e7cad9060200160405180910390a1505062000228565b8280546200012190620001eb565b90600052602060002090601f01602090048101928262000145576000855562000190565b82601f106200016057805160ff191683800117855562000190565b8280016001018555821562000190579182015b828111156200019057825182559160200191906001019062000173565b506200019e929150620001a2565b5090565b5b808211156200019e5760008155600101620001a3565b600060208284031215620001cc57600080fd5b81516001600160a01b0381168114620001e457600080fd5b9392505050565b600181811c908216806200020057607f821691505b602082108114156200022257634e487b7160e01b600052602260045260246000fd5b50919050565b61154880620002386000396000f3fe6080604052600436106100c05760003560e01c806379c728a511610074578063bc197c811161004e578063bc197c8114610256578063bf7e214f14610282578063f23a6e61146102ba57600080fd5b806379c728a5146101f55780637a9e5e4b14610223578063918afcdb1461024357600080fd5b8063330dd345116100a5578063330dd34514610178578063534b6d84146101b357806371a330f2146101d557600080fd5b806301ffc9a7146100ff578063150b7a021461013457600080fd5b366100fa576040513481527fd5269418e5a2b45e710169d2c4b95243f38cee4ca6044cb91d8636dc4d01dd8a9060200160405180910390a1005b600080fd5b34801561010b57600080fd5b5061011f61011a366004610e03565b6102e6565b60405190151581526020015b60405180910390f35b34801561014057600080fd5b5061015f61014f366004610efc565b630a85bd0160e11b949350505050565b6040516001600160e01b0319909116815260200161012b565b34801561018457600080fd5b5061011f610193366004610f7c565b600360209081526000928352604080842090915290825290205460ff1681565b3480156101bf57600080fd5b506101d36101ce366004611044565b61031d565b005b3480156101e157600080fd5b506101d36101f03660046110e3565b61072b565b34801561020157600080fd5b5061021561021036600461112c565b610799565b60405190815260200161012b565b34801561022f57600080fd5b506101d361023e36600461116a565b610939565b6101d3610251366004611187565b6109ad565b34801561026257600080fd5b5061015f61027136600461122b565b63bc197c8160e01b95945050505050565b34801561028e57600080fd5b506000546102a2906001600160a01b031681565b6040516001600160a01b03909116815260200161012b565b3480156102c657600080fd5b5061015f6102d53660046112cc565b63f23a6e6160e01b95945050505050565b60006001600160e01b03198216630271189760e51b148061031757506301ffc9a760e01b6001600160e01b03198316145b92915050565b3360009081527fc3a24b0501bd2c13a7e57f2db4369ec4c223447539fc0724a9d55ac4a06ebd4d602052604090205460019060ff166103785760405162461bcd60e51b815260040161036f919061134b565b60405180910390fd5b5060018360ff16600481111561039057610390611335565b60048111156103a1576103a1611335565b1415610476576040516323b872dd60e01b8152306004820152336024820152604481018690526001600160a01b038516906323b872dd90606401602060405180830381600087803b1580156103f557600080fd5b505af1158015610409573d6000803e3d6000fd5b505050506040513d601f19601f8201168201806040525081019061042d91906113f3565b50836001600160a01b03167fbe7426aee8a34d0263892b55ce65ce81d8f4c806eb4719e59015ea49feb92d228660405161046991815260200190565b60405180910390a2610724565b60028360ff16600481111561048d5761048d611335565b600481111561049e5761049e611335565b141561056457604051631759616b60e11b81526001600160a01b03851690632eb2c2d6906104d690309033908790879060040161144b565b600060405180830381600087803b1580156104f057600080fd5b505af1158015610504573d6000803e3d6000fd5b505050508160405161051691906114a6565b6040518091039020846001600160a01b03167fcf0fc0dd90ac3cf4318edb07deb3128c56d4e65e3dd573c2ac4a9a2256a819148360405161055791906114dc565b60405180910390a3610724565b60038360ff16600481111561057b5761057b611335565b600481111561058c5761058c611335565b141561067e57836001600160a01b03166323b872dd3033856000815181106105b6576105b66114ef565b60209081029190910101516040516001600160e01b031960e086901b1681526001600160a01b0393841660048201529290911660248301526044820152606401600060405180830381600087803b15801561061057600080fd5b505af1158015610624573d6000803e3d6000fd5b505050508160008151811061063b5761063b6114ef565b6020026020010151846001600160a01b03167fcc7d0949892410da9ebd78d838ca9ba1601b557ad34c4a6cb4b492c5996bd8df60405160405180910390a3610724565b60048360ff16600481111561069557610695611335565b60048111156106a6576106a6611335565b141561070957604051339086156108fc029087906000818181858888f193505050506106d157600080fd5b6040518581527f187404a50efcc6c7bf8cc93f2ad71795d1663a0718ceaa641e31d7c40f9fa08a9060200160405180910390a1610724565b600260405162461bcd60e51b815260040161036f919061134b565b5050505050565b610733610d4c565b806003600085600281111561074a5761074a611335565b600281111561075b5761075b611335565b8152602080820192909252604090810160009081206001600160a01b0396909616815294909152909220805460ff1916921515929092179091555050565b600060018360ff1660048111156107b2576107b2611335565b60048111156107c3576107c3611335565b1415610848576040516370a0823160e01b81523060048201526001600160a01b038516906370a08231906024015b60206040518083038186803b15801561080957600080fd5b505afa15801561081d573d6000803e3d6000fd5b505050506040513d601f19601f820116820180604052508101906108419190611505565b9050610932565b60028360ff16600481111561085f5761085f611335565b600481111561087057610870611335565b14156108a757604051627eeac760e11b8152306004820152602481018390526001600160a01b0385169062fdd58e906044016107f1565b60038360ff1660048111156108be576108be611335565b60048111156108cf576108cf611335565b1415610901576040516370a0823160e01b81523060048201526001600160a01b038516906370a08231906024016107f1565b60048360ff16600481111561091857610918611335565b600481111561092957610929611335565b14156107095750475b9392505050565b610941610d4c565b600080547fffffffffffffffffffffffff0000000000000000000000000000000000000000166001600160a01b0383169081179091556040519081527f2f658b440c35314f52658ea8a740e05b284cdc84dc9ae01e891f21b8933e7cad9060200160405180910390a150565b60018460ff1660048111156109c4576109c4611335565b60048111156109d5576109d5611335565b1415610aac576040516323b872dd60e01b81526001600160a01b038281166004830152306024830152604482018890528616906323b872dd90606401602060405180830381600087803b158015610a2b57600080fd5b505af1158015610a3f573d6000803e3d6000fd5b505050506040513d601f19601f82011682018060405250810190610a6391906113f3565b50846001600160a01b03167f27f44e9a3001987fb4861e2d482738bc6a12b52de72ca3a5216157b75c28f81c87604051610a9f91815260200190565b60405180910390a2610d44565b60028460ff166004811115610ac357610ac3611335565b6004811115610ad457610ad4611335565b1415610b9a57604051631759616b60e11b81526001600160a01b03861690632eb2c2d690610b0c90849030908890889060040161144b565b600060405180830381600087803b158015610b2657600080fd5b505af1158015610b3a573d6000803e3d6000fd5b5050505082604051610b4c91906114a6565b6040518091039020856001600160a01b03167f9c511e12b37cf9c06f2b0af56889166acf736bc090e48eaf9320e732a22027cd84604051610b8d91906114dc565b60405180910390a3610d44565b60038460ff166004811115610bb157610bb1611335565b6004811115610bc257610bc2611335565b1415610cb457846001600160a01b03166323b872dd823086600081518110610bec57610bec6114ef565b60209081029190910101516040516001600160e01b031960e086901b1681526001600160a01b0393841660048201529290911660248301526044820152606401600060405180830381600087803b158015610c4657600080fd5b505af1158015610c5a573d6000803e3d6000fd5b5050505082600081518110610c7157610c716114ef565b6020026020010151856001600160a01b03167f8e9bd0090bfdfe33dafcd3a7b1b2b55e5cfa68012442afee46824f63029d034e60405160405180910390a3610d44565b60048460ff166004811115610ccb57610ccb611335565b6004811115610cdc57610cdc611335565b1415610709576040516001600160a01b0382169087156108fc029088906000818181858888f19350505050610d1057600080fd5b6040513481527fd5269418e5a2b45e710169d2c4b95243f38cee4ca6044cb91d8636dc4d01dd8a9060200160405180910390a15b505050505050565b60008054906101000a90046001600160a01b03166001600160a01b0316630c340a246040518163ffffffff1660e01b815260040160206040518083038186803b158015610d9857600080fd5b505afa158015610dac573d6000803e3d6000fd5b505050506040513d601f19601f82011682018060405250810190610dd0919061151e565b6001600160a01b0316336001600160a01b031614610e015760405163075fd2b160e01b815260040160405180910390fd5b565b600060208284031215610e1557600080fd5b81356001600160e01b03198116811461093257600080fd5b6001600160a01b0381168114610e4257600080fd5b50565b634e487b7160e01b600052604160045260246000fd5b604051601f8201601f1916810167ffffffffffffffff81118282101715610e8457610e84610e45565b604052919050565b600082601f830112610e9d57600080fd5b813567ffffffffffffffff811115610eb757610eb7610e45565b610eca601f8201601f1916602001610e5b565b818152846020838601011115610edf57600080fd5b816020850160208301376000918101602001919091529392505050565b60008060008060808587031215610f1257600080fd5b8435610f1d81610e2d565b93506020850135610f2d81610e2d565b925060408501359150606085013567ffffffffffffffff811115610f5057600080fd5b610f5c87828801610e8c565b91505092959194509250565b803560038110610f7757600080fd5b919050565b60008060408385031215610f8f57600080fd5b610f9883610f68565b91506020830135610fa881610e2d565b809150509250929050565b803560ff81168114610f7757600080fd5b600082601f830112610fd557600080fd5b8135602067ffffffffffffffff821115610ff157610ff1610e45565b8160051b611000828201610e5b565b928352848101820192828101908785111561101a57600080fd5b83870192505b8483101561103957823582529183019190830190611020565b979650505050505050565b600080600080600060a0868803121561105c57600080fd5b85359450602086013561106e81610e2d565b935061107c60408701610fb3565b9250606086013567ffffffffffffffff8082111561109957600080fd5b6110a589838a01610fc4565b935060808801359150808211156110bb57600080fd5b506110c888828901610fc4565b9150509295509295909350565b8015158114610e4257600080fd5b6000806000606084860312156110f857600080fd5b61110184610f68565b9250602084013561111181610e2d565b91506040840135611121816110d5565b809150509250925092565b60008060006060848603121561114157600080fd5b833561114c81610e2d565b925061115a60208501610fb3565b9150604084013590509250925092565b60006020828403121561117c57600080fd5b813561093281610e2d565b60008060008060008060c087890312156111a057600080fd5b8635955060208701356111b281610e2d565b94506111c060408801610fb3565b9350606087013567ffffffffffffffff808211156111dd57600080fd5b6111e98a838b01610fc4565b945060808901359150808211156111ff57600080fd5b5061120c89828a01610fc4565b92505060a087013561121d81610e2d565b809150509295509295509295565b600080600080600060a0868803121561124357600080fd5b853561124e81610e2d565b9450602086013561125e81610e2d565b9350604086013567ffffffffffffffff8082111561127b57600080fd5b61128789838a01610fc4565b9450606088013591508082111561129d57600080fd5b6112a989838a01610fc4565b935060808801359150808211156112bf57600080fd5b506110c888828901610e8c565b600080600080600060a086880312156112e457600080fd5b85356112ef81610e2d565b945060208601356112ff81610e2d565b93506040860135925060608601359150608086013567ffffffffffffffff81111561132957600080fd5b6110c888828901610e8c565b634e487b7160e01b600052602160045260246000fd5b600060208083526000845481600182811c91508083168061136d57607f831692505b85831081141561138b57634e487b7160e01b85526022600452602485fd5b8786018381526020018180156113a857600181146113b9576113e4565b60ff198616825287820196506113e4565b60008b81526020902060005b868110156113de578154848201529085019089016113c5565b83019750505b50949998505050505050505050565b60006020828403121561140557600080fd5b8151610932816110d5565b600081518084526020808501945080840160005b8381101561144057815187529582019590820190600101611424565b509495945050505050565b60006001600160a01b03808716835280861660208401525060a0604083015261147760a0830185611410565b82810360608401526114898185611410565b838103608090940193909352505060008152602001949350505050565b815160009082906020808601845b838110156114d0578151855293820193908201906001016114b4565b50929695505050505050565b6020815260006109326020830184611410565b634e487b7160e01b600052603260045260246000fd5b60006020828403121561151757600080fd5b5051919050565b60006020828403121561153057600080fd5b815161093281610e2d56fea164736f6c6343000809000a",
  "devdoc": {
    "kind": "dev",
    "methods": {
      "deposit(uint256,address,uint8,uint256[],uint256[],address)": {
        "params": {
          "_amount": "uint256",
          "_amounts": "uint256[]",
          "_token": "address",
          "_tokenIds": "uint256[]",
          "_tokenType": "TokenType"
        }
      },
      "onERC721Received(address,address,uint256,bytes)": {
        "details": "See {IERC721Receiver-onERC721Received}. Always returns `IERC721Receiver.onERC721Received.selector`."
      },
      "supportsInterface(bytes4)": {
        "details": "See {IERC165-supportsInterface}."
      },
      "withdraw(uint256,address,uint8,uint256[],uint256[])": {
        "params": {
          "_amount": "uint256",
          "_amounts": "uint256[",
          "_token": "address",
          "_tokenIds": "uint256[]",
          "_tokenType": "TokenType"
        }
      }
    },
    "version": 1
  },
  "userdoc": {
    "kind": "user",
    "methods": {
      "deposit(uint256,address,uint8,uint256[],uint256[],address)": {
        "notice": "allow address to deposit an asset "
      },
      "withdraw(uint256,address,uint8,uint256[],uint256[])": {
        "notice": "allow approved address to withdraw from reserves"
      }
    },
    "version": 1
  },
  "storageLayout": {
    "storage": [
      {
        "astId": 8469,
        "contract": "contracts/Treasury.sol:Treasury",
        "label": "authority",
        "offset": 0,
        "slot": "0",
        "type": "t_contract(IAuthority)8324"
      },
      {
        "astId": 7837,
        "contract": "contracts/Treasury.sol:Treasury",
        "label": "notApproved",
        "offset": 0,
        "slot": "1",
        "type": "t_string_storage"
      },
      {
        "astId": 7840,
        "contract": "contracts/Treasury.sol:Treasury",
        "label": "invalidToken",
        "offset": 0,
        "slot": "2",
        "type": "t_string_storage"
      },
      {
        "astId": 7847,
        "contract": "contracts/Treasury.sol:Treasury",
        "label": "permissions",
        "offset": 0,
        "slot": "3",
        "type": "t_mapping(t_enum(STATUS)7828,t_mapping(t_address,t_bool))"
      }
    ],
    "types": {
      "t_address": {
        "encoding": "inplace",
        "label": "address",
        "numberOfBytes": "20"
      },
      "t_bool": {
        "encoding": "inplace",
        "label": "bool",
        "numberOfBytes": "1"
      },
      "t_contract(IAuthority)8324": {
        "encoding": "inplace",
        "label": "contract IAuthority",
        "numberOfBytes": "20"
      },
      "t_enum(STATUS)7828": {
        "encoding": "inplace",
        "label": "enum Treasury.STATUS",
        "numberOfBytes": "1"
      },
      "t_mapping(t_address,t_bool)": {
        "encoding": "mapping",
        "key": "t_address",
        "label": "mapping(address => bool)",
        "numberOfBytes": "32",
        "value": "t_bool"
      },
      "t_mapping(t_enum(STATUS)7828,t_mapping(t_address,t_bool))": {
        "encoding": "mapping",
        "key": "t_enum(STATUS)7828",
        "label": "mapping(enum Treasury.STATUS => mapping(address => bool))",
        "numberOfBytes": "32",
        "value": "t_mapping(t_address,t_bool)"
      },
      "t_string_storage": {
        "encoding": "bytes",
        "label": "string",
        "numberOfBytes": "32"
      }
    }
  }
}