{
  "abi": [
    {
      "anonymous": false,
      "inputs": [
        {
          "indexed": true,
          "internalType": "address",
          "name": "previousOwner",
          "type": "address"
        },
        {
          "indexed": true,
          "internalType": "address",
          "name": "newOwner",
          "type": "address"
        }
      ],
      "name": "OwnershipTransferred",
      "type": "event"
    },
    {
      "anonymous": false,
      "inputs": [
        {
          "indexed": false,
          "internalType": "bytes32",
          "name": "price",
          "type": "bytes32"
        }
      ],
      "name": "PriceUpdate",
      "type": "event"
    },
    {
      "inputs": [],
      "name": "owner",
      "outputs": [
        {
          "internalType": "address",
          "name": "",
          "type": "address"
        }
      ],
      "stateMutability": "view",
      "type": "function"
    },
    {
      "inputs": [],
      "name": "peek",
      "outputs": [
        {
          "internalType": "bytes32",
          "name": "",
          "type": "bytes32"
        },
        {
          "internalType": "bool",
          "name": "",
          "type": "bool"
        }
      ],
      "stateMutability": "view",
      "type": "function"
    },
    {
      "inputs": [],
      "name": "price",
      "outputs": [
        {
          "internalType": "bytes32",
          "name": "",
          "type": "bytes32"
        }
      ],
      "stateMutability": "view",
      "type": "function"
    },
    {
      "inputs": [],
      "name": "renounceOwnership",
      "outputs": [],
      "stateMutability": "nonpayable",
      "type": "function"
    },
    {
      "inputs": [
        {
          "internalType": "uint256",
          "name": "_price",
          "type": "uint256"
        }
      ],
      "name": "setPrice",
      "outputs": [],
      "stateMutability": "nonpayable",
      "type": "function"
    },
    {
      "inputs": [
        {
          "internalType": "address",
          "name": "newOwner",
          "type": "address"
        }
      ],
      "name": "transferOwnership",
      "outputs": [],
      "stateMutability": "nonpayable",
      "type": "function"
    }
  ],
  "bytecode": {
    "object": "0x608060405234801561001057600080fd5b5061001a3361001f565b61006f565b600080546001600160a01b038381166001600160a01b0319831681178455604051919092169283917f8be0079c531659141344cd1fd0a4f28419497f9722a3daafe3b4186f6b6457e09190a35050565b61030a8061007e6000396000f3fe608060405234801561001057600080fd5b50600436106100625760003560e01c806359e02dd714610067578063715018a6146100895780638da5cb5b1461009357806391b7f5ed146100ae578063a035b1fe146100c1578063f2fde38b146100d8575b600080fd5b61006f6100eb565b604080519283529015156020830152015b60405180910390f35b61009161010c565b005b6000546040516001600160a01b039091168152602001610080565b6100916100bc36600461028b565b610120565b6100ca60015481565b604051908152602001610080565b6100916100e63660046102a4565b610163565b6000806001546000801b036101035750600091829150565b50506001805491565b6101146101e1565b61011e600061023b565b565b6101286101e1565b60018190556040518181527f3500614d792a368ab3c20285be59acb332a20632feb94ce03975d7ed7682c8d09060200160405180910390a150565b61016b6101e1565b6001600160a01b0381166101d55760405162461bcd60e51b815260206004820152602660248201527f4f776e61626c653a206e6577206f776e657220697320746865207a65726f206160448201526564647265737360d01b60648201526084015b60405180910390fd5b6101de8161023b565b50565b6000546001600160a01b0316331461011e5760405162461bcd60e51b815260206004820181905260248201527f4f776e61626c653a2063616c6c6572206973206e6f7420746865206f776e657260448201526064016101cc565b600080546001600160a01b038381166001600160a01b0319831681178455604051919092169283917f8be0079c531659141344cd1fd0a4f28419497f9722a3daafe3b4186f6b6457e09190a35050565b60006020828403121561029d57600080fd5b5035919050565b6000602082840312156102b657600080fd5b81356001600160a01b03811681146102cd57600080fd5b939250505056fea2646970667358221220db12baf23f27dbf590f8e0a50f9242c3225fc8f30c3ed9a3fed0c3f77d64f61964736f6c63430008100033",
    "linkReferences": {}
  },
  "methodIdentifiers": {
    "owner()": "8da5cb5b",
    "peek()": "59e02dd7",
    "price()": "a035b1fe",
    "renounceOwnership()": "715018a6",
    "setPrice(uint256)": "91b7f5ed",
    "transferOwnership(address)": "f2fde38b"
  },
  "id": 72
}