{
  "address": "0x4c348bA79C87e1961902Eb01FbDf8bC1D150C397",
  "abi": [
    {
      "inputs": [
        {
          "internalType": "address",
          "name": "_authority",
          "type": "address"
        }
      ],
      "stateMutability": "nonpayable",
      "type": "constructor"
    },
    {
      "inputs": [],
      "name": "UNAUTHORIZED",
      "type": "error"
    },
    {
      "anonymous": false,
      "inputs": [
        {
          "indexed": false,
          "internalType": "contract IAuthority",
          "name": "authority",
          "type": "address"
        }
      ],
      "name": "AuthorityUpdated",
      "type": "event"
    },
    {
      "anonymous": false,
      "inputs": [
        {
          "indexed": true,
          "internalType": "address",
          "name": "claimOwner",
          "type": "address"
        },
        {
          "indexed": false,
          "internalType": "enum Escrow.OfferStatus",
          "name": "toStatus",
          "type": "uint8"
        },
        {
          "indexed": false,
          "internalType": "uint256",
          "name": "offerId",
          "type": "uint256"
        }
      ],
      "name": "ClaimToken",
      "type": "event"
    },
    {
      "anonymous": false,
      "inputs": [
        {
          "indexed": true,
          "internalType": "address",
          "name": "executor",
          "type": "address"
        },
        {
          "indexed": false,
          "internalType": "uint256",
          "name": "offerId",
          "type": "uint256"
        }
      ],
      "name": "FinishOffer",
      "type": "event"
    },
    {
      "anonymous": false,
      "inputs": [
        {
          "indexed": true,
          "internalType": "address",
          "name": "creator",
          "type": "address"
        },
        {
          "indexed": true,
          "internalType": "address",
          "name": "executor",
          "type": "address"
        },
        {
          "indexed": false,
          "internalType": "uint256",
          "name": "offerId",
          "type": "uint256"
        }
      ],
      "name": "NewOffer",
      "type": "event"
    },
    {
      "anonymous": false,
      "inputs": [
        {
          "indexed": true,
          "internalType": "address",
          "name": "requester",
          "type": "address"
        },
        {
          "indexed": false,
          "internalType": "uint256",
          "name": "offerId",
          "type": "uint256"
        }
      ],
      "name": "OfferCancelled",
      "type": "event"
    },
    {
      "inputs": [],
      "name": "authority",
      "outputs": [
        {
          "internalType": "contract IAuthority",
          "name": "",
          "type": "address"
        }
      ],
      "stateMutability": "view",
      "type": "function"
    },
    {
      "inputs": [
        {
          "internalType": "uint256",
          "name": "offerId",
          "type": "uint256"
        }
      ],
      "name": "cancelOffer",
      "outputs": [
        {
          "internalType": "bool",
          "name": "",
          "type": "bool"
        }
      ],
      "stateMutability": "nonpayable",
      "type": "function"
    },
    {
      "inputs": [
        {
          "internalType": "uint256",
          "name": "offerId",
          "type": "uint256"
        }
      ],
      "name": "getOffer",
      "outputs": [
        {
          "internalType": "address",
          "name": "",
          "type": "address"
        },
        {
          "internalType": "address",
          "name": "",
          "type": "address"
        },
        {
          "internalType": "uint8",
          "name": "",
          "type": "uint8"
        },
        {
          "internalType": "string",
          "name": "",
          "type": "string"
        }
      ],
      "stateMutability": "view",
      "type": "function"
    },
    {
      "inputs": [
        {
          "internalType": "address",
          "name": "u",
          "type": "address"
        }
      ],
      "name": "offerPerUser",
      "outputs": [
        {
          "internalType": "uint256[]",
          "name": "",
          "type": "uint256[]"
        }
      ],
      "stateMutability": "view",
      "type": "function"
    },
    {
      "inputs": [
        {
          "internalType": "contract IAuthority",
          "name": "_newAuthority",
          "type": "address"
        }
      ],
      "name": "setAuthority",
      "outputs": [],
      "stateMutability": "nonpayable",
      "type": "function"
    },
    {
      "inputs": [
        {
          "internalType": "address",
          "name": "_treasury",
          "type": "address"
        }
      ],
      "name": "setTreasury",
      "outputs": [],
      "stateMutability": "nonpayable",
      "type": "function"
    },
    {
      "inputs": [
        {
          "internalType": "address",
          "name": "token",
          "type": "address"
        },
        {
          "internalType": "uint256",
          "name": "creatorAmount",
          "type": "uint256"
        },
        {
          "internalType": "address",
          "name": "executerAddress",
          "type": "address"
        },
        {
          "internalType": "uint256",
          "name": "executorAmount",
          "type": "uint256"
        }
      ],
      "name": "startOffer",
      "outputs": [
        {
          "internalType": "uint256",
          "name": "",
          "type": "uint256"
        }
      ],
      "stateMutability": "payable",
      "type": "function"
    },
    {
      "inputs": [],
      "name": "treasury",
      "outputs": [
        {
          "internalType": "contract ITreasury",
          "name": "",
          "type": "address"
        }
      ],
      "stateMutability": "view",
      "type": "function"
    },
    {
      "inputs": [
        {
          "internalType": "address",
          "name": "tokenAddress",
          "type": "address"
        },
        {
          "internalType": "uint256",
          "name": "amount",
          "type": "uint256"
        }
      ],
      "name": "verifyOfferIntegrity",
      "outputs": [
        {
          "internalType": "bool",
          "name": "",
          "type": "bool"
        }
      ],
      "stateMutability": "pure",
      "type": "function"
    }
  ],
  "transactionHash": "0x8d23dda2ba68370d20ac4a03d8598527fcf47dd7d1c7f7ac03a322b13c58e73a",
  "args": [
    "0xea63f7dED6f2E7F6979185478D6D49996402904f"
  ],
  "numDeployments": 1,
  "solcInputHash": "db6c8cb5fb7c5f890c9b4bb8849b997c",
  "bytecode": "0x608060405234801561001057600080fd5b5060405161105b38038061105b83398101604081905261002f9161014d565b600080546001600160a01b0319166001600160a01b03831690811790915560405190815281907f2f658b440c35314f52658ea8a740e05b284cdc84dc9ae01e891f21b8933e7cad9060200160405180910390a1506001600160a01b03811661009657600080fd5b60006006819055600781905560088190556002819055546040805163fbfa77cf60e01b815290516001600160a01b039092169163fbfa77cf91600481810192602092909190829003018186803b1580156100ef57600080fd5b505afa158015610103573d6000803e3d6000fd5b505050506040513d601f19601f82011682018060405250810190610127919061014d565b600180546001600160a01b0319166001600160a01b03929092169190911790555061017d565b60006020828403121561015f57600080fd5b81516001600160a01b038116811461017657600080fd5b9392505050565b610ecf8061018c6000396000f3fe6080604052600436106100965760003560e01c8063bf7e214f11610069578063df9b3a401161004e578063df9b3a40146101ab578063ef706adf146101cc578063f0f44260146101ec57600080fd5b8063bf7e214f1461015b578063da870a881461017b57600080fd5b80634579268a1461009b57806361d027b3146100d45780637a9e5e4b1461010c5780639a2bd5841461012e575b600080fd5b3480156100a757600080fd5b506100bb6100b6366004610c89565b61020c565b6040516100cb9493929190610ca2565b60405180910390f35b3480156100e057600080fd5b506001546100f4906001600160a01b031681565b6040516001600160a01b0390911681526020016100cb565b34801561011857600080fd5b5061012c610127366004610d36565b6102f6565b005b34801561013a57600080fd5b5061014e610149366004610d36565b61035f565b6040516100cb9190610d5a565b34801561016757600080fd5b506000546100f4906001600160a01b031681565b34801561018757600080fd5b5061019b610196366004610d9e565b6103cb565b60405190151581526020016100cb565b6101be6101b9366004610dca565b61048b565b6040519081526020016100cb565b3480156101d857600080fd5b5061019b6101e7366004610c89565b610778565b3480156101f857600080fd5b5061012c610207366004610d36565b6108e2565b600081815260046020526040812060018101546005820154600c8301548493849360609391926001600160a01b03918216929091169060ff16600381111561025657610256610e12565b83600a0180805461026690610e28565b80601f016020809104026020016040519081016040528092919081815260200182805461029290610e28565b80156102df5780601f106102b4576101008083540402835291602001916102df565b820191906000526020600020905b8154815290600101906020018083116102c257829003601f168201915b505050505090509450945094509450509193509193565b6102fe610979565b6000805473ffffffffffffffffffffffffffffffffffffffff19166001600160a01b0383169081179091556040519081527f2f658b440c35314f52658ea8a740e05b284cdc84dc9ae01e891f21b8933e7cad9060200160405180910390a150565b6001600160a01b0381166000908152600560209081526040918290208054835181840281018401909452808452606093928301828280156103bf57602002820191906000526020600020905b8154815260200190600101908083116103ab575b50505050509050919050565b60006001600160a01b0383166104325760405162461bcd60e51b815260206004820152602160248201527f4552524f523a2043524541544f525f434f4e54524143545f4e4f545f56414c496044820152601160fa1b60648201526084015b60405180910390fd5b600082116104825760405162461bcd60e51b815260206004820152601b60248201527f4552524f523a20414d4f554e545f4d5553545f504f53495449564500000000006044820152606401610429565b50600192915050565b60006001600160a01b0383166104e35760405162461bcd60e51b815260206004820152601a60248201527f45584543555445525f414444524553535f4e4f545f56414c49440000000000006044820152606401610429565b600280549060006104f383610e63565b909155505060028054600081815260046020526040808220600981019390935582546001600160a01b03808b1673ffffffffffffffffffffffffffffffffffffffff199283161790945584548352818320600101805482163317905593548252902060050180549186169190921617905561056e85856103cb565b5061057a338686610a30565b506002805460009081526004602081905260408083206003018890559254825291902001805460ff191660011790556105b385836103cb565b506105bf838684610a30565b5060028054600090815260046020818152604080842060070189905584548452808420600801805460ff19908116600190811790925586548652828620600c018054909116821790553380865260058452828620875481548085018355918852858820909101556001600160a01b038a81168752838720975488548085018a55988852949096209096019290925590549051630b8b4a6160e21b815291820188905288831660248301526044820193909352911690632e2d298490606401600060405180830381600087803b15801561069757600080fd5b505af11580156106ab573d6000803e3d6000fd5b5050600154604051630b8b4a6160e21b8152600481018690526001600160a01b03898116602483015287811660448301529091169250632e2d29849150606401600060405180830381600087803b15801561070557600080fd5b505af1158015610719573d6000803e3d6000fd5b50505050826001600160a01b0316336001600160a01b03167f3a70875340d4e51f5512fc83d1c1a2eca9e850635d587e6988614dca764fe22c60025460405161076491815260200190565b60405180910390a350600254949350505050565b60008181526004602052604081206001600c82015460ff1660038111156107a1576107a1610e12565b146107ee5760405162461bcd60e51b815260206004820181905260248201527f4552524f523a204f464645525f5354415455532049534e5420435245415445446044820152606401610429565b60058101546001600160a01b0316331480610815575060018101546001600160a01b031633145b6108875760405162461bcd60e51b815260206004820152602860248201527f4552524f523a2045584543555445522049534e542043524541544f52204f522060448201527f45584543555445520000000000000000000000000000000000000000000000006064820152608401610429565b600083815260046020908152604091829020600c01805460ff19166003179055905184815233917f899cab278284ae4a91172caa0943607a0bcb19766254c3ebe1139be00650b102910160405180910390a250600192915050565b6108ea610979565b6001600160a01b03811661094a5760405162461bcd60e51b815260206004820152602160248201527f4552524f523a2054524541535552595f414444524553535f4e4f545f56414c496044820152601160fa1b6064820152608401610429565b6001805473ffffffffffffffffffffffffffffffffffffffff19166001600160a01b0392909216919091179055565b60008054906101000a90046001600160a01b03166001600160a01b0316630c340a246040518163ffffffff1660e01b815260040160206040518083038186803b1580156109c557600080fd5b505afa1580156109d9573d6000803e3d6000fd5b505050506040513d601f19601f820116820180604052508101906109fd9190610e8c565b6001600160a01b0316336001600160a01b031614610a2e5760405163075fd2b160e01b815260040160405180910390fd5b565b6040516370a0823160e01b81526001600160a01b038481166004830152600091908416906370a082319060240160206040518083038186803b158015610a7557600080fd5b505afa158015610a89573d6000803e3d6000fd5b505050506040513d601f19601f82011682018060405250810190610aad9190610ea9565b821115610b065760405162461bcd60e51b815260206004820152602160248201527f4552524f523a204552525f4e4f545f454e4f5547485f46554e44535f455243326044820152600360fc1b6064820152608401610429565b826001600160a01b031663dd62ed3e8560008054906101000a90046001600160a01b03166001600160a01b031663fbfa77cf6040518163ffffffff1660e01b815260040160206040518083038186803b158015610b6257600080fd5b505afa158015610b76573d6000803e3d6000fd5b505050506040513d601f19601f82011682018060405250810190610b9a9190610e8c565b6040517fffffffff0000000000000000000000000000000000000000000000000000000060e085901b1681526001600160a01b0392831660048201529116602482015260440160206040518083038186803b158015610bf857600080fd5b505afa158015610c0c573d6000803e3d6000fd5b505050506040513d601f19601f82011682018060405250810190610c309190610ea9565b821115610c7f5760405162461bcd60e51b815260206004820181905260248201527f4552524f523a204552525f4e4f545f414c4c4f575f5350454e445f46554e44536044820152606401610429565b5060019392505050565b600060208284031215610c9b57600080fd5b5035919050565b60006001600160a01b03808716835260208187168185015260ff86166040850152608060608501528451915081608085015260005b82811015610cf35785810182015185820160a001528101610cd7565b82811115610d0557600060a084870101525b5050601f01601f19169190910160a00195945050505050565b6001600160a01b0381168114610d3357600080fd5b50565b600060208284031215610d4857600080fd5b8135610d5381610d1e565b9392505050565b6020808252825182820181905260009190848201906040850190845b81811015610d9257835183529284019291840191600101610d76565b50909695505050505050565b60008060408385031215610db157600080fd5b8235610dbc81610d1e565b946020939093013593505050565b60008060008060808587031215610de057600080fd5b8435610deb81610d1e565b9350602085013592506040850135610e0281610d1e565b9396929550929360600135925050565b634e487b7160e01b600052602160045260246000fd5b600181811c90821680610e3c57607f821691505b60208210811415610e5d57634e487b7160e01b600052602260045260246000fd5b50919050565b6000600019821415610e8557634e487b7160e01b600052601160045260246000fd5b5060010190565b600060208284031215610e9e57600080fd5b8151610d5381610d1e565b600060208284031215610ebb57600080fd5b505191905056fea164736f6c6343000809000a",
  "devdoc": {
    "kind": "dev",
    "methods": {},
    "version": 1
  },
  "userdoc": {
    "kind": "user",
    "methods": {},
    "version": 1
  },
  "storageLayout": {
    "storage": [
      {
        "astId": 7312,
        "contract": "contracts/Escrow.sol:Escrow",
        "label": "authority",
        "offset": 0,
        "slot": "0",
        "type": "t_contract(IAuthority)7227"
      },
      {
        "astId": 6364,
        "contract": "contracts/Escrow.sol:Escrow",
        "label": "treasury",
        "offset": 0,
        "slot": "1",
        "type": "t_contract(ITreasury)7251"
      },
      {
        "astId": 6366,
        "contract": "contracts/Escrow.sol:Escrow",
        "label": "_offerId",
        "offset": 0,
        "slot": "2",
        "type": "t_uint256"
      },
      {
        "astId": 6368,
        "contract": "contracts/Escrow.sol:Escrow",
        "label": "_symbol",
        "offset": 0,
        "slot": "3",
        "type": "t_string_storage"
      },
      {
        "astId": 6373,
        "contract": "contracts/Escrow.sol:Escrow",
        "label": "_transactions",
        "offset": 0,
        "slot": "4",
        "type": "t_mapping(t_uint256,t_struct(Offer)6424_storage)"
      },
      {
        "astId": 6378,
        "contract": "contracts/Escrow.sol:Escrow",
        "label": "_openOffers",
        "offset": 0,
        "slot": "5",
        "type": "t_mapping(t_address,t_array(t_uint256)dyn_storage)"
      },
      {
        "astId": 6380,
        "contract": "contracts/Escrow.sol:Escrow",
        "label": "_openOfferAcc",
        "offset": 0,
        "slot": "6",
        "type": "t_uint256"
      },
      {
        "astId": 6382,
        "contract": "contracts/Escrow.sol:Escrow",
        "label": "_totalOfferCompletedAcc",
        "offset": 0,
        "slot": "7",
        "type": "t_uint256"
      },
      {
        "astId": 6384,
        "contract": "contracts/Escrow.sol:Escrow",
        "label": "_totalOfferClaimAcc",
        "offset": 0,
        "slot": "8",
        "type": "t_uint256"
      }
    ],
    "types": {
      "t_address": {
        "encoding": "inplace",
        "label": "address",
        "numberOfBytes": "20"
      },
      "t_array(t_uint256)dyn_storage": {
        "base": "t_uint256",
        "encoding": "dynamic_array",
        "label": "uint256[]",
        "numberOfBytes": "32"
      },
      "t_bytes32": {
        "encoding": "inplace",
        "label": "bytes32",
        "numberOfBytes": "32"
      },
      "t_contract(IAuthority)7227": {
        "encoding": "inplace",
        "label": "contract IAuthority",
        "numberOfBytes": "20"
      },
      "t_contract(ITreasury)7251": {
        "encoding": "inplace",
        "label": "contract ITreasury",
        "numberOfBytes": "20"
      },
      "t_enum(OfferStatus)6389": {
        "encoding": "inplace",
        "label": "enum Escrow.OfferStatus",
        "numberOfBytes": "1"
      },
      "t_enum(UserStatus)6394": {
        "encoding": "inplace",
        "label": "enum Escrow.UserStatus",
        "numberOfBytes": "1"
      },
      "t_mapping(t_address,t_array(t_uint256)dyn_storage)": {
        "encoding": "mapping",
        "key": "t_address",
        "label": "mapping(address => uint256[])",
        "numberOfBytes": "32",
        "value": "t_array(t_uint256)dyn_storage"
      },
      "t_mapping(t_uint256,t_struct(Offer)6424_storage)": {
        "encoding": "mapping",
        "key": "t_uint256",
        "label": "mapping(uint256 => struct Escrow.Offer)",
        "numberOfBytes": "32",
        "value": "t_struct(Offer)6424_storage"
      },
      "t_string_storage": {
        "encoding": "bytes",
        "label": "string",
        "numberOfBytes": "32"
      },
      "t_struct(Offer)6424_storage": {
        "encoding": "inplace",
        "label": "struct Escrow.Offer",
        "members": [
          {
            "astId": 6404,
            "contract": "contracts/Escrow.sol:Escrow",
            "label": "token",
            "offset": 0,
            "slot": "0",
            "type": "t_address"
          },
          {
            "astId": 6406,
            "contract": "contracts/Escrow.sol:Escrow",
            "label": "creator",
            "offset": 0,
            "slot": "1",
            "type": "t_address"
          },
          {
            "astId": 6409,
            "contract": "contracts/Escrow.sol:Escrow",
            "label": "creatorCounterpart",
            "offset": 0,
            "slot": "2",
            "type": "t_struct(OfferCounterpart)6402_storage"
          },
          {
            "astId": 6411,
            "contract": "contracts/Escrow.sol:Escrow",
            "label": "executor",
            "offset": 0,
            "slot": "5",
            "type": "t_address"
          },
          {
            "astId": 6414,
            "contract": "contracts/Escrow.sol:Escrow",
            "label": "executorCounterpart",
            "offset": 0,
            "slot": "6",
            "type": "t_struct(OfferCounterpart)6402_storage"
          },
          {
            "astId": 6416,
            "contract": "contracts/Escrow.sol:Escrow",
            "label": "id",
            "offset": 0,
            "slot": "9",
            "type": "t_uint256"
          },
          {
            "astId": 6418,
            "contract": "contracts/Escrow.sol:Escrow",
            "label": "file",
            "offset": 0,
            "slot": "10",
            "type": "t_string_storage"
          },
          {
            "astId": 6420,
            "contract": "contracts/Escrow.sol:Escrow",
            "label": "description",
            "offset": 0,
            "slot": "11",
            "type": "t_string_storage"
          },
          {
            "astId": 6423,
            "contract": "contracts/Escrow.sol:Escrow",
            "label": "offerStatus",
            "offset": 0,
            "slot": "12",
            "type": "t_enum(OfferStatus)6389"
          }
        ],
        "numberOfBytes": "416"
      },
      "t_struct(OfferCounterpart)6402_storage": {
        "encoding": "inplace",
        "label": "struct Escrow.OfferCounterpart",
        "members": [
          {
            "astId": 6396,
            "contract": "contracts/Escrow.sol:Escrow",
            "label": "commitment",
            "offset": 0,
            "slot": "0",
            "type": "t_bytes32"
          },
          {
            "astId": 6398,
            "contract": "contracts/Escrow.sol:Escrow",
            "label": "amount",
            "offset": 0,
            "slot": "1",
            "type": "t_uint256"
          },
          {
            "astId": 6401,
            "contract": "contracts/Escrow.sol:Escrow",
            "label": "offerorStatus",
            "offset": 0,
            "slot": "2",
            "type": "t_enum(UserStatus)6394"
          }
        ],
        "numberOfBytes": "96"
      },
      "t_uint256": {
        "encoding": "inplace",
        "label": "uint256",
        "numberOfBytes": "32"
      }
    }
  }
}