{
  "address": "0x3f24eFc51a1b651104F56ca7214A0ffc5dd7f57F",
  "abi": [
    {
      "inputs": [
        {
          "internalType": "address",
          "name": "_authority",
          "type": "address"
        }
      ],
      "stateMutability": "nonpayable",
      "type": "constructor"
    },
    {
      "inputs": [],
      "name": "UNAUTHORIZED",
      "type": "error"
    },
    {
      "anonymous": false,
      "inputs": [
        {
          "indexed": false,
          "internalType": "contract IAuthority",
          "name": "authority",
          "type": "address"
        }
      ],
      "name": "AuthorityUpdated",
      "type": "event"
    },
    {
      "anonymous": false,
      "inputs": [
        {
          "indexed": true,
          "internalType": "address",
          "name": "token",
          "type": "address"
        },
        {
          "indexed": false,
          "internalType": "uint256",
          "name": "amount",
          "type": "uint256"
        }
      ],
      "name": "DepositERC20",
      "type": "event"
    },
    {
      "anonymous": false,
      "inputs": [
        {
          "indexed": true,
          "internalType": "address",
          "name": "token",
          "type": "address"
        },
        {
          "indexed": false,
          "internalType": "uint256",
          "name": "amount",
          "type": "uint256"
        }
      ],
      "name": "WithdrawERC20",
      "type": "event"
    },
    {
      "inputs": [],
      "name": "authority",
      "outputs": [
        {
          "internalType": "contract IAuthority",
          "name": "",
          "type": "address"
        }
      ],
      "stateMutability": "view",
      "type": "function"
    },
    {
      "inputs": [
        {
          "internalType": "uint256",
          "name": "_amount",
          "type": "uint256"
        },
        {
          "internalType": "address",
          "name": "_token",
          "type": "address"
        },
        {
          "internalType": "address",
          "name": "_sender",
          "type": "address"
        }
      ],
      "name": "deposit",
      "outputs": [],
      "stateMutability": "nonpayable",
      "type": "function"
    },
    {
      "inputs": [
        {
          "internalType": "address",
          "name": "",
          "type": "address"
        },
        {
          "internalType": "uint256",
          "name": "",
          "type": "uint256"
        }
      ],
      "name": "erc1155Treasury",
      "outputs": [
        {
          "internalType": "uint256",
          "name": "",
          "type": "uint256"
        }
      ],
      "stateMutability": "view",
      "type": "function"
    },
    {
      "inputs": [
        {
          "internalType": "address",
          "name": "",
          "type": "address"
        }
      ],
      "name": "erc20Treasury",
      "outputs": [
        {
          "internalType": "uint256",
          "name": "",
          "type": "uint256"
        }
      ],
      "stateMutability": "view",
      "type": "function"
    },
    {
      "inputs": [],
      "name": "fee",
      "outputs": [
        {
          "internalType": "uint256",
          "name": "",
          "type": "uint256"
        }
      ],
      "stateMutability": "view",
      "type": "function"
    },
    {
      "inputs": [],
      "name": "feeDivisor",
      "outputs": [
        {
          "internalType": "uint256",
          "name": "",
          "type": "uint256"
        }
      ],
      "stateMutability": "view",
      "type": "function"
    },
    {
      "inputs": [
        {
          "internalType": "address",
          "name": "_token",
          "type": "address"
        }
      ],
      "name": "getTokenBalance",
      "outputs": [
        {
          "internalType": "uint256",
          "name": "",
          "type": "uint256"
        }
      ],
      "stateMutability": "view",
      "type": "function"
    },
    {
      "inputs": [
        {
          "internalType": "address",
          "name": "_token",
          "type": "address"
        }
      ],
      "name": "getTreasuryBalance",
      "outputs": [
        {
          "internalType": "uint256",
          "name": "",
          "type": "uint256"
        }
      ],
      "stateMutability": "view",
      "type": "function"
    },
    {
      "inputs": [
        {
          "internalType": "enum Treasury.STATUS",
          "name": "",
          "type": "uint8"
        },
        {
          "internalType": "address",
          "name": "",
          "type": "address"
        }
      ],
      "name": "permissions",
      "outputs": [
        {
          "internalType": "bool",
          "name": "",
          "type": "bool"
        }
      ],
      "stateMutability": "view",
      "type": "function"
    },
    {
      "inputs": [
        {
          "internalType": "contract IAuthority",
          "name": "_newAuthority",
          "type": "address"
        }
      ],
      "name": "setAuthority",
      "outputs": [],
      "stateMutability": "nonpayable",
      "type": "function"
    },
    {
      "inputs": [
        {
          "internalType": "uint256",
          "name": "_fee",
          "type": "uint256"
        }
      ],
      "name": "setFee",
      "outputs": [],
      "stateMutability": "nonpayable",
      "type": "function"
    },
    {
      "inputs": [
        {
          "internalType": "enum Treasury.STATUS",
          "name": "_status",
          "type": "uint8"
        },
        {
          "internalType": "address",
          "name": "_address",
          "type": "address"
        },
        {
          "internalType": "bool",
          "name": "_permission",
          "type": "bool"
        }
      ],
      "name": "setPermission",
      "outputs": [],
      "stateMutability": "nonpayable",
      "type": "function"
    },
    {
      "inputs": [
        {
          "internalType": "uint256",
          "name": "_amount",
          "type": "uint256"
        },
        {
          "internalType": "address",
          "name": "_token",
          "type": "address"
        }
      ],
      "name": "withdraw",
      "outputs": [],
      "stateMutability": "nonpayable",
      "type": "function"
    }
  ],
  "transactionHash": "0x9800cd2cc3b84e95dc5476c540d0df7f55dd39c9623b83f0ff5806b9cfe1fb3c",
  "args": [
    "0xea63f7dED6f2E7F6979185478D6D49996402904f"
  ],
  "numDeployments": 1,
  "solcInputHash": "db6c8cb5fb7c5f890c9b4bb8849b997c",
  "bytecode": "0x60c0604052601660808190527f54726561737572793a206e6f7420617070726f7665640000000000000000000060a09081526200004091600191906200011e565b506040805180820190915260178082527f54726561737572793a20696e76616c696420746f6b656e000000000000000000602090920191825262000087916002916200011e565b50600a600455612710600555348015620000a057600080fd5b5060405162000c3538038062000c35833981016040819052620000c391620001c4565b600080546001600160a01b0319166001600160a01b03831690811790915560405190815281907f2f658b440c35314f52658ea8a740e05b284cdc84dc9ae01e891f21b8933e7cad9060200160405180910390a1505062000233565b8280546200012c90620001f6565b90600052602060002090601f0160209004810192826200015057600085556200019b565b82601f106200016b57805160ff19168380011785556200019b565b828001600101855582156200019b579182015b828111156200019b5782518255916020019190600101906200017e565b50620001a9929150620001ad565b5090565b5b80821115620001a95760008155600101620001ae565b600060208284031215620001d757600080fd5b81516001600160a01b0381168114620001ef57600080fd5b9392505050565b600181811c908216806200020b57607f821691505b602082108114156200022d57634e487b7160e01b600052602260045260246000fd5b50919050565b6109f280620002436000396000f3fe608060405234801561001057600080fd5b50600436106100de5760003560e01c806371a330f21161008c5780639a36f932116100665780639a36f932146101fc578063bf7e214f14610205578063cd6f483b14610230578063ddca3f431461025057600080fd5b806371a330f2146101ab57806372cf7066146101be5780637a9e5e4b146101e957600080fd5b80633aecd0e3116100bd5780633aecd0e31461014e57806357baeac81461016f57806369fe0e2d1461019857600080fd5b8062f714ce146100e35780632e2d2984146100f8578063330dd3451461010b575b600080fd5b6100f66100f13660046106fe565b610259565b005b6100f661010636600461072e565b610383565b610139610119366004610784565b600360209081526000928352604080842090915290825290205460ff1681565b60405190151581526020015b60405180910390f35b61016161015c3660046107b0565b61045e565b604051908152602001610145565b61016161017d3660046107b0565b6001600160a01b031660009081526006602052604090205490565b6100f66101a63660046107d4565b6104de565b6100f66101b93660046107fb565b6104f9565b6101616101cc366004610839565b600760209081526000928352604080842090915290825290205481565b6100f66101f73660046107b0565b610567565b61016160055481565b600054610218906001600160a01b031681565b6040516001600160a01b039091168152602001610145565b61016161023e3660046107b0565b60066020526000908152604090205481565b61016160045481565b3360009081527fc3a24b0501bd2c13a7e57f2db4369ec4c223447539fc0724a9d55ac4a06ebd4d602052604090205460019060ff166102b45760405162461bcd60e51b81526004016102ab919061087b565b60405180910390fd5b506040516323b872dd60e01b8152306004820152336024820152604481018390526001600160a01b038216906323b872dd90606401602060405180830381600087803b15801561030357600080fd5b505af1158015610317573d6000803e3d6000fd5b505050506040513d601f19601f8201168201806040525081019061033b9190610923565b50806001600160a01b03167fbe7426aee8a34d0263892b55ce65ce81d8f4c806eb4719e59015ea49feb92d228360405161037791815260200190565b60405180910390a25050565b6040516323b872dd60e01b81526001600160a01b038281166004830152306024830152604482018590528316906323b872dd90606401602060405180830381600087803b1580156103d357600080fd5b505af11580156103e7573d6000803e3d6000fd5b505050506040513d601f19601f8201168201806040525081019061040b9190610923565b50816001600160a01b03167f27f44e9a3001987fb4861e2d482738bc6a12b52de72ca3a5216157b75c28f81c8460405161044791815260200190565b60405180910390a261045982846105db565b505050565b6040516370a0823160e01b81523060048201526000906001600160a01b038316906370a082319060240160206040518083038186803b1580156104a057600080fd5b505afa1580156104b4573d6000803e3d6000fd5b505050506040513d601f19601f820116820180604052508101906104d89190610940565b92915050565b6104e661062f565b61271081106104f457600080fd5b600455565b61050161062f565b806003600085600281111561051857610518610865565b600281111561052957610529610865565b8152602080820192909252604090810160009081206001600160a01b0396909616815294909152909220805460ff1916921515929092179091555050565b61056f61062f565b600080547fffffffffffffffffffffffff0000000000000000000000000000000000000000166001600160a01b0383169081179091556040519081527f2f658b440c35314f52658ea8a740e05b284cdc84dc9ae01e891f21b8933e7cad9060200160405180910390a150565b6000600554600454836105ee919061096f565b6105f8919061098e565b6001600160a01b0384166000908152600660205260408120805492935083929091906106259084906109b0565b9091555050505050565b60008054906101000a90046001600160a01b03166001600160a01b0316630c340a246040518163ffffffff1660e01b815260040160206040518083038186803b15801561067b57600080fd5b505afa15801561068f573d6000803e3d6000fd5b505050506040513d601f19601f820116820180604052508101906106b391906109c8565b6001600160a01b0316336001600160a01b0316146106e45760405163075fd2b160e01b815260040160405180910390fd5b565b6001600160a01b03811681146106fb57600080fd5b50565b6000806040838503121561071157600080fd5b823591506020830135610723816106e6565b809150509250929050565b60008060006060848603121561074357600080fd5b833592506020840135610755816106e6565b91506040840135610765816106e6565b809150509250925092565b80356003811061077f57600080fd5b919050565b6000806040838503121561079757600080fd5b6107a083610770565b91506020830135610723816106e6565b6000602082840312156107c257600080fd5b81356107cd816106e6565b9392505050565b6000602082840312156107e657600080fd5b5035919050565b80151581146106fb57600080fd5b60008060006060848603121561081057600080fd5b61081984610770565b92506020840135610829816106e6565b91506040840135610765816107ed565b6000806040838503121561084c57600080fd5b8235610857816106e6565b946020939093013593505050565b634e487b7160e01b600052602160045260246000fd5b600060208083526000845481600182811c91508083168061089d57607f831692505b8583108114156108bb57634e487b7160e01b85526022600452602485fd5b8786018381526020018180156108d857600181146108e957610914565b60ff19861682528782019650610914565b60008b81526020902060005b8681101561090e578154848201529085019089016108f5565b83019750505b50949998505050505050505050565b60006020828403121561093557600080fd5b81516107cd816107ed565b60006020828403121561095257600080fd5b5051919050565b634e487b7160e01b600052601160045260246000fd5b600081600019048311821515161561098957610989610959565b500290565b6000826109ab57634e487b7160e01b600052601260045260246000fd5b500490565b600082198211156109c3576109c3610959565b500190565b6000602082840312156109da57600080fd5b81516107cd816106e656fea164736f6c6343000809000a",
  "devdoc": {
    "kind": "dev",
    "methods": {
      "deposit(uint256,address,address)": {
        "params": {
          "_amount": "uint256",
          "_sender": "address",
          "_token": "address"
        }
      },
      "withdraw(uint256,address)": {
        "params": {
          "_amount": "uint256",
          "_token": "address"
        }
      }
    },
    "version": 1
  },
  "userdoc": {
    "kind": "user",
    "methods": {
      "deposit(uint256,address,address)": {
        "notice": "allow address to deposit an asset "
      },
      "withdraw(uint256,address)": {
        "notice": "allow approved address to withdraw from reserves ||||| TODO: wait for payment approval"
      }
    },
    "version": 1
  },
  "storageLayout": {
    "storage": [
      {
        "astId": 7312,
        "contract": "contracts/Treasury.sol:Treasury",
        "label": "authority",
        "offset": 0,
        "slot": "0",
        "type": "t_contract(IAuthority)7227"
      },
      {
        "astId": 6947,
        "contract": "contracts/Treasury.sol:Treasury",
        "label": "notApproved",
        "offset": 0,
        "slot": "1",
        "type": "t_string_storage"
      },
      {
        "astId": 6950,
        "contract": "contracts/Treasury.sol:Treasury",
        "label": "invalidToken",
        "offset": 0,
        "slot": "2",
        "type": "t_string_storage"
      },
      {
        "astId": 6957,
        "contract": "contracts/Treasury.sol:Treasury",
        "label": "permissions",
        "offset": 0,
        "slot": "3",
        "type": "t_mapping(t_enum(STATUS)6938,t_mapping(t_address,t_bool))"
      },
      {
        "astId": 6960,
        "contract": "contracts/Treasury.sol:Treasury",
        "label": "fee",
        "offset": 0,
        "slot": "4",
        "type": "t_uint256"
      },
      {
        "astId": 6963,
        "contract": "contracts/Treasury.sol:Treasury",
        "label": "feeDivisor",
        "offset": 0,
        "slot": "5",
        "type": "t_uint256"
      },
      {
        "astId": 6967,
        "contract": "contracts/Treasury.sol:Treasury",
        "label": "erc20Treasury",
        "offset": 0,
        "slot": "6",
        "type": "t_mapping(t_address,t_uint256)"
      },
      {
        "astId": 6973,
        "contract": "contracts/Treasury.sol:Treasury",
        "label": "erc1155Treasury",
        "offset": 0,
        "slot": "7",
        "type": "t_mapping(t_address,t_mapping(t_uint256,t_uint256))"
      }
    ],
    "types": {
      "t_address": {
        "encoding": "inplace",
        "label": "address",
        "numberOfBytes": "20"
      },
      "t_bool": {
        "encoding": "inplace",
        "label": "bool",
        "numberOfBytes": "1"
      },
      "t_contract(IAuthority)7227": {
        "encoding": "inplace",
        "label": "contract IAuthority",
        "numberOfBytes": "20"
      },
      "t_enum(STATUS)6938": {
        "encoding": "inplace",
        "label": "enum Treasury.STATUS",
        "numberOfBytes": "1"
      },
      "t_mapping(t_address,t_bool)": {
        "encoding": "mapping",
        "key": "t_address",
        "label": "mapping(address => bool)",
        "numberOfBytes": "32",
        "value": "t_bool"
      },
      "t_mapping(t_address,t_mapping(t_uint256,t_uint256))": {
        "encoding": "mapping",
        "key": "t_address",
        "label": "mapping(address => mapping(uint256 => uint256))",
        "numberOfBytes": "32",
        "value": "t_mapping(t_uint256,t_uint256)"
      },
      "t_mapping(t_address,t_uint256)": {
        "encoding": "mapping",
        "key": "t_address",
        "label": "mapping(address => uint256)",
        "numberOfBytes": "32",
        "value": "t_uint256"
      },
      "t_mapping(t_enum(STATUS)6938,t_mapping(t_address,t_bool))": {
        "encoding": "mapping",
        "key": "t_enum(STATUS)6938",
        "label": "mapping(enum Treasury.STATUS => mapping(address => bool))",
        "numberOfBytes": "32",
        "value": "t_mapping(t_address,t_bool)"
      },
      "t_mapping(t_uint256,t_uint256)": {
        "encoding": "mapping",
        "key": "t_uint256",
        "label": "mapping(uint256 => uint256)",
        "numberOfBytes": "32",
        "value": "t_uint256"
      },
      "t_string_storage": {
        "encoding": "bytes",
        "label": "string",
        "numberOfBytes": "32"
      },
      "t_uint256": {
        "encoding": "inplace",
        "label": "uint256",
        "numberOfBytes": "32"
      }
    }
  }
}